{
	"voting.sol": {
		"Voting": {
			"abi": [
				{
					"inputs": [
						{
							"internalType": "string[]",
							"name": "_candidateNames",
							"type": "string[]"
						},
						{
							"internalType": "uint256",
							"name": "_durationInMinutes",
							"type": "uint256"
						}
					],
					"stateMutability": "nonpayable",
					"type": "constructor"
				},
				{
					"inputs": [
						{
							"internalType": "string",
							"name": "_name",
							"type": "string"
						}
					],
					"name": "addCandidate",
					"outputs": [],
					"stateMutability": "nonpayable",
					"type": "function"
				},
				{
					"inputs": [
						{
							"internalType": "uint256",
							"name": "",
							"type": "uint256"
						}
					],
					"name": "candidates",
					"outputs": [
						{
							"internalType": "string",
							"name": "name",
							"type": "string"
						},
						{
							"internalType": "uint256",
							"name": "voteCount",
							"type": "uint256"
						}
					],
					"stateMutability": "view",
					"type": "function"
				},
				{
					"inputs": [],
					"name": "getAllVotesOfCandiates",
					"outputs": [
						{
							"components": [
								{
									"internalType": "string",
									"name": "name",
									"type": "string"
								},
								{
									"internalType": "uint256",
									"name": "voteCount",
									"type": "uint256"
								}
							],
							"internalType": "struct Voting.Candidate[]",
							"name": "",
							"type": "tuple[]"
						}
					],
					"stateMutability": "view",
					"type": "function"
				},
				{
					"inputs": [],
					"name": "getRemainingTime",
					"outputs": [
						{
							"internalType": "uint256",
							"name": "",
							"type": "uint256"
						}
					],
					"stateMutability": "view",
					"type": "function"
				},
				{
					"inputs": [],
					"name": "getVotingStatus",
					"outputs": [
						{
							"internalType": "bool",
							"name": "",
							"type": "bool"
						}
					],
					"stateMutability": "view",
					"type": "function"
				},
				{
					"inputs": [
						{
							"internalType": "uint256",
							"name": "_candidateIndex",
							"type": "uint256"
						}
					],
					"name": "vote",
					"outputs": [],
					"stateMutability": "nonpayable",
					"type": "function"
				},
				{
					"inputs": [
						{
							"internalType": "address",
							"name": "",
							"type": "address"
						}
					],
					"name": "voters",
					"outputs": [
						{
							"internalType": "bool",
							"name": "",
							"type": "bool"
						}
					],
					"stateMutability": "view",
					"type": "function"
				},
				{
					"inputs": [],
					"name": "votingEnd",
					"outputs": [
						{
							"internalType": "uint256",
							"name": "",
							"type": "uint256"
						}
					],
					"stateMutability": "view",
					"type": "function"
				},
				{
					"inputs": [],
					"name": "votingStart",
					"outputs": [
						{
							"internalType": "uint256",
							"name": "",
							"type": "uint256"
						}
					],
					"stateMutability": "view",
					"type": "function"
				}
			],
			"devdoc": {
				"kind": "dev",
				"methods": {},
				"version": 1
			},
			"evm": {
				"assembly": "    /* \"voting.sol\":60:1840  contract Voting {... */\n  mstore(0x40, 0x80)\n    /* \"voting.sol\":331:721  constructor(string[] memory _candidateNames, uint256 _durationInMinutes) {... */\n  callvalue\n  dup1\n  iszero\n  tag_1\n  jumpi\n  revert(0x00, 0x00)\ntag_1:\n  pop\n  mload(0x40)\n  sub(codesize, bytecodeSize)\n  dup1\n  bytecodeSize\n  dup4\n  codecopy\n  dup2\n  dup2\n  add\n  0x40\n  mstore\n  dup2\n  add\n  swap1\n  tag_2\n  swap2\n  swap1\n  tag_3\n  jump\t// in\ntag_2:\n    /* \"voting.sol\":416:425  uint256 i */\n  0x00\n    /* \"voting.sol\":428:429  0 */\n  0x00\n    /* \"voting.sol\":416:429  uint256 i = 0 */\n  swap1\n  pop\n    /* \"voting.sol\":411:588  for (uint256 i = 0; i < _candidateNames.length; i++) {... */\ntag_6:\n    /* \"voting.sol\":435:450  _candidateNames */\n  dup3\n    /* \"voting.sol\":435:457  _candidateNames.length */\n  mload\n    /* \"voting.sol\":431:432  i */\n  dup2\n    /* \"voting.sol\":431:457  i < _candidateNames.length */\n  lt\n    /* \"voting.sol\":411:588  for (uint256 i = 0; i < _candidateNames.length; i++) {... */\n  iszero\n  tag_7\n  jumpi\n    /* \"voting.sol\":475:485  candidates */\n  0x00\n    /* \"voting.sol\":491:579  Candidate({... */\n  mload(0x40)\n  dup1\n  0x40\n  add\n  0x40\n  mstore\n  dup1\n    /* \"voting.sol\":522:537  _candidateNames */\n  dup6\n    /* \"voting.sol\":538:539  i */\n  dup5\n    /* \"voting.sol\":522:540  _candidateNames[i] */\n  dup2\n  mload\n  dup2\n  lt\n  tag_9\n  jumpi\n  tag_10\n  tag_11\n  jump\t// in\ntag_10:\ntag_9:\n  0x20\n  mul\n  0x20\n  add\n  add\n  mload\n    /* \"voting.sol\":491:579  Candidate({... */\n  dup2\n  mstore\n  0x20\n  add\n    /* \"voting.sol\":566:567  0 */\n  0x00\n    /* \"voting.sol\":491:579  Candidate({... */\n  dup2\n  mstore\n  pop\n    /* \"voting.sol\":475:580  candidates.push(Candidate({... */\n  swap1\n  dup1\n  0x01\n  dup2\n  sload\n  add\n  dup1\n  dup3\n  sstore\n  dup1\n  swap2\n  pop\n  pop\n  0x01\n  swap1\n  sub\n  swap1\n  0x00\n  mstore\n  keccak256(0x00, 0x20)\n  swap1\n  0x02\n  mul\n  add\n  0x00\n  swap1\n  swap2\n  swap1\n  swap2\n  swap1\n  swap2\n  pop\n  0x00\n  dup3\n  add\n  mload\n  dup2\n  0x00\n  add\n  swap1\n  dup2\n  tag_13\n  swap2\n  swap1\n  tag_14\n  jump\t// in\ntag_13:\n  pop\n  0x20\n  dup3\n  add\n  mload\n  dup2\n  0x01\n  add\n  sstore\n  pop\n  pop\n    /* \"voting.sol\":459:462  i++ */\n  dup1\n  dup1\n  0x01\n  add\n  swap2\n  pop\n  pop\n    /* \"voting.sol\":411:588  for (uint256 i = 0; i < _candidateNames.length; i++) {... */\n  jump(tag_6)\ntag_7:\n  pop\n    /* \"voting.sol\":602:612  msg.sender */\n  caller\n    /* \"voting.sol\":594:599  owner */\n  0x01\n  0x00\n    /* \"voting.sol\":594:612  owner = msg.sender */\n  0x0100\n  exp\n  dup2\n  sload\n  dup2\n  0xffffffffffffffffffffffffffffffffffffffff\n  mul\n  not\n  and\n  swap1\n  dup4\n  0xffffffffffffffffffffffffffffffffffffffff\n  and\n  mul\n  or\n  swap1\n  sstore\n  pop\n    /* \"voting.sol\":633:648  block.timestamp */\n  timestamp\n    /* \"voting.sol\":619:630  votingStart */\n  0x03\n    /* \"voting.sol\":619:648  votingStart = block.timestamp */\n  dup2\n  swap1\n  sstore\n  pop\n    /* \"voting.sol\":707:716  1 minutes */\n  0x3c\n    /* \"voting.sol\":686:704  _durationInMinutes */\n  dup2\n    /* \"voting.sol\":686:716  _durationInMinutes * 1 minutes */\n  tag_15\n  swap2\n  swap1\n  tag_16\n  jump\t// in\ntag_15:\n    /* \"voting.sol\":667:682  block.timestamp */\n  timestamp\n    /* \"voting.sol\":667:717  block.timestamp + (_durationInMinutes * 1 minutes) */\n  tag_17\n  swap2\n  swap1\n  tag_18\n  jump\t// in\ntag_17:\n    /* \"voting.sol\":655:664  votingEnd */\n  0x04\n    /* \"voting.sol\":655:717  votingEnd = block.timestamp + (_durationInMinutes * 1 minutes) */\n  dup2\n  swap1\n  sstore\n  pop\n    /* \"voting.sol\":331:721  constructor(string[] memory _candidateNames, uint256 _durationInMinutes) {... */\n  pop\n  pop\n    /* \"voting.sol\":60:1840  contract Voting {... */\n  jump(tag_19)\n    /* \"#utility.yul\":7:82   */\ntag_20:\n    /* \"#utility.yul\":40:46   */\n  0x00\n    /* \"#utility.yul\":73:75   */\n  0x40\n    /* \"#utility.yul\":67:76   */\n  mload\n    /* \"#utility.yul\":57:76   */\n  swap1\n  pop\n    /* \"#utility.yul\":7:82   */\n  swap1\n  jump\t// out\n    /* \"#utility.yul\":88:205   */\ntag_21:\n    /* \"#utility.yul\":197:198   */\n  0x00\n    /* \"#utility.yul\":194:195   */\n  0x00\n    /* \"#utility.yul\":187:199   */\n  revert\n    /* \"#utility.yul\":211:328   */\ntag_22:\n    /* \"#utility.yul\":320:321   */\n  0x00\n    /* \"#utility.yul\":317:318   */\n  0x00\n    /* \"#utility.yul\":310:322   */\n  revert\n    /* \"#utility.yul\":334:451   */\ntag_23:\n    /* \"#utility.yul\":443:444   */\n  0x00\n    /* \"#utility.yul\":440:441   */\n  0x00\n    /* \"#utility.yul\":433:445   */\n  revert\n    /* \"#utility.yul\":457:559   */\ntag_24:\n    /* \"#utility.yul\":498:504   */\n  0x00\n    /* \"#utility.yul\":549:551   */\n  0x1f\n    /* \"#utility.yul\":545:552   */\n  not\n    /* \"#utility.yul\":540:542   */\n  0x1f\n    /* \"#utility.yul\":533:538   */\n  dup4\n    /* \"#utility.yul\":529:543   */\n  add\n    /* \"#utility.yul\":525:553   */\n  and\n    /* \"#utility.yul\":515:553   */\n  swap1\n  pop\n    /* \"#utility.yul\":457:559   */\n  swap2\n  swap1\n  pop\n  jump\t// out\n    /* \"#utility.yul\":565:745   */\ntag_25:\n    /* \"#utility.yul\":613:690   */\n  0x4e487b7100000000000000000000000000000000000000000000000000000000\n    /* \"#utility.yul\":610:611   */\n  0x00\n    /* \"#utility.yul\":603:691   */\n  mstore\n    /* \"#utility.yul\":710:714   */\n  0x41\n    /* \"#utility.yul\":707:708   */\n  0x04\n    /* \"#utility.yul\":700:715   */\n  mstore\n    /* \"#utility.yul\":734:738   */\n  0x24\n    /* \"#utility.yul\":731:732   */\n  0x00\n    /* \"#utility.yul\":724:739   */\n  revert\n    /* \"#utility.yul\":751:1032   */\ntag_26:\n    /* \"#utility.yul\":834:861   */\n  tag_67\n    /* \"#utility.yul\":856:860   */\n  dup3\n    /* \"#utility.yul\":834:861   */\n  tag_24\n  jump\t// in\ntag_67:\n    /* \"#utility.yul\":826:832   */\n  dup2\n    /* \"#utility.yul\":822:862   */\n  add\n    /* \"#utility.yul\":964:970   */\n  dup2\n    /* \"#utility.yul\":952:962   */\n  dup2\n    /* \"#utility.yul\":949:971   */\n  lt\n    /* \"#utility.yul\":928:946   */\n  0xffffffffffffffff\n    /* \"#utility.yul\":916:926   */\n  dup3\n    /* \"#utility.yul\":913:947   */\n  gt\n    /* \"#utility.yul\":910:972   */\n  or\n    /* \"#utility.yul\":907:995   */\n  iszero\n  tag_68\n  jumpi\n    /* \"#utility.yul\":975:993   */\n  tag_69\n  tag_25\n  jump\t// in\ntag_69:\n    /* \"#utility.yul\":907:995   */\ntag_68:\n    /* \"#utility.yul\":1015:1025   */\n  dup1\n    /* \"#utility.yul\":1011:1013   */\n  0x40\n    /* \"#utility.yul\":1004:1026   */\n  mstore\n    /* \"#utility.yul\":794:1032   */\n  pop\n    /* \"#utility.yul\":751:1032   */\n  pop\n  pop\n  jump\t// out\n    /* \"#utility.yul\":1038:1167   */\ntag_27:\n    /* \"#utility.yul\":1072:1078   */\n  0x00\n    /* \"#utility.yul\":1099:1119   */\n  tag_71\n  tag_20\n  jump\t// in\ntag_71:\n    /* \"#utility.yul\":1089:1119   */\n  swap1\n  pop\n    /* \"#utility.yul\":1128:1161   */\n  tag_72\n    /* \"#utility.yul\":1156:1160   */\n  dup3\n    /* \"#utility.yul\":1148:1154   */\n  dup3\n    /* \"#utility.yul\":1128:1161   */\n  tag_26\n  jump\t// in\ntag_72:\n    /* \"#utility.yul\":1038:1167   */\n  swap2\n  swap1\n  pop\n  jump\t// out\n    /* \"#utility.yul\":1173:1494   */\ntag_28:\n    /* \"#utility.yul\":1260:1264   */\n  0x00\n    /* \"#utility.yul\":1350:1368   */\n  0xffffffffffffffff\n    /* \"#utility.yul\":1342:1348   */\n  dup3\n    /* \"#utility.yul\":1339:1369   */\n  gt\n    /* \"#utility.yul\":1336:1392   */\n  iszero\n  tag_74\n  jumpi\n    /* \"#utility.yul\":1372:1390   */\n  tag_75\n  tag_25\n  jump\t// in\ntag_75:\n    /* \"#utility.yul\":1336:1392   */\ntag_74:\n    /* \"#utility.yul\":1422:1426   */\n  0x20\n    /* \"#utility.yul\":1414:1420   */\n  dup3\n    /* \"#utility.yul\":1410:1427   */\n  mul\n    /* \"#utility.yul\":1402:1427   */\n  swap1\n  pop\n    /* \"#utility.yul\":1482:1486   */\n  0x20\n    /* \"#utility.yul\":1476:1480   */\n  dup2\n    /* \"#utility.yul\":1472:1487   */\n  add\n    /* \"#utility.yul\":1464:1487   */\n  swap1\n  pop\n    /* \"#utility.yul\":1173:1494   */\n  swap2\n  swap1\n  pop\n  jump\t// out\n    /* \"#utility.yul\":1500:1617   */\ntag_29:\n    /* \"#utility.yul\":1609:1610   */\n  0x00\n    /* \"#utility.yul\":1606:1607   */\n  0x00\n    /* \"#utility.yul\":1599:1611   */\n  revert\n    /* \"#utility.yul\":1623:1740   */\ntag_30:\n    /* \"#utility.yul\":1732:1733   */\n  0x00\n    /* \"#utility.yul\":1729:1730   */\n  0x00\n    /* \"#utility.yul\":1722:1734   */\n  revert\n    /* \"#utility.yul\":1746:2054   */\ntag_31:\n    /* \"#utility.yul\":1808:1812   */\n  0x00\n    /* \"#utility.yul\":1898:1916   */\n  0xffffffffffffffff\n    /* \"#utility.yul\":1890:1896   */\n  dup3\n    /* \"#utility.yul\":1887:1917   */\n  gt\n    /* \"#utility.yul\":1884:1940   */\n  iszero\n  tag_79\n  jumpi\n    /* \"#utility.yul\":1920:1938   */\n  tag_80\n  tag_25\n  jump\t// in\ntag_80:\n    /* \"#utility.yul\":1884:1940   */\ntag_79:\n    /* \"#utility.yul\":1958:1987   */\n  tag_81\n    /* \"#utility.yul\":1980:1986   */\n  dup3\n    /* \"#utility.yul\":1958:1987   */\n  tag_24\n  jump\t// in\ntag_81:\n    /* \"#utility.yul\":1950:1987   */\n  swap1\n  pop\n    /* \"#utility.yul\":2042:2046   */\n  0x20\n    /* \"#utility.yul\":2036:2040   */\n  dup2\n    /* \"#utility.yul\":2032:2047   */\n  add\n    /* \"#utility.yul\":2024:2047   */\n  swap1\n  pop\n    /* \"#utility.yul\":1746:2054   */\n  swap2\n  swap1\n  pop\n  jump\t// out\n    /* \"#utility.yul\":2060:2199   */\ntag_32:\n    /* \"#utility.yul\":2149:2155   */\n  dup3\n    /* \"#utility.yul\":2144:2147   */\n  dup2\n    /* \"#utility.yul\":2139:2142   */\n  dup4\n    /* \"#utility.yul\":2133:2156   */\n  mcopy\n    /* \"#utility.yul\":2190:2191   */\n  0x00\n    /* \"#utility.yul\":2181:2187   */\n  dup4\n    /* \"#utility.yul\":2176:2179   */\n  dup4\n    /* \"#utility.yul\":2172:2188   */\n  add\n    /* \"#utility.yul\":2165:2192   */\n  mstore\n    /* \"#utility.yul\":2060:2199   */\n  pop\n  pop\n  pop\n  jump\t// out\n    /* \"#utility.yul\":2205:2639   */\ntag_33:\n    /* \"#utility.yul\":2294:2299   */\n  0x00\n    /* \"#utility.yul\":2319:2385   */\n  tag_84\n    /* \"#utility.yul\":2335:2384   */\n  tag_85\n    /* \"#utility.yul\":2377:2383   */\n  dup5\n    /* \"#utility.yul\":2335:2384   */\n  tag_31\n  jump\t// in\ntag_85:\n    /* \"#utility.yul\":2319:2385   */\n  tag_27\n  jump\t// in\ntag_84:\n    /* \"#utility.yul\":2310:2385   */\n  swap1\n  pop\n    /* \"#utility.yul\":2408:2414   */\n  dup3\n    /* \"#utility.yul\":2401:2406   */\n  dup2\n    /* \"#utility.yul\":2394:2415   */\n  mstore\n    /* \"#utility.yul\":2446:2450   */\n  0x20\n    /* \"#utility.yul\":2439:2444   */\n  dup2\n    /* \"#utility.yul\":2435:2451   */\n  add\n    /* \"#utility.yul\":2484:2487   */\n  dup5\n    /* \"#utility.yul\":2475:2481   */\n  dup5\n    /* \"#utility.yul\":2470:2473   */\n  dup5\n    /* \"#utility.yul\":2466:2482   */\n  add\n    /* \"#utility.yul\":2463:2488   */\n  gt\n    /* \"#utility.yul\":2460:2572   */\n  iszero\n  tag_86\n  jumpi\n    /* \"#utility.yul\":2491:2570   */\n  tag_87\n  tag_30\n  jump\t// in\ntag_87:\n    /* \"#utility.yul\":2460:2572   */\ntag_86:\n    /* \"#utility.yul\":2581:2633   */\n  tag_88\n    /* \"#utility.yul\":2626:2632   */\n  dup5\n    /* \"#utility.yul\":2621:2624   */\n  dup3\n    /* \"#utility.yul\":2616:2619   */\n  dup6\n    /* \"#utility.yul\":2581:2633   */\n  tag_32\n  jump\t// in\ntag_88:\n    /* \"#utility.yul\":2300:2639   */\n  pop\n    /* \"#utility.yul\":2205:2639   */\n  swap4\n  swap3\n  pop\n  pop\n  pop\n  jump\t// out\n    /* \"#utility.yul\":2659:3014   */\ntag_34:\n    /* \"#utility.yul\":2726:2731   */\n  0x00\n    /* \"#utility.yul\":2775:2778   */\n  dup3\n    /* \"#utility.yul\":2768:2772   */\n  0x1f\n    /* \"#utility.yul\":2760:2766   */\n  dup4\n    /* \"#utility.yul\":2756:2773   */\n  add\n    /* \"#utility.yul\":2752:2779   */\n  slt\n    /* \"#utility.yul\":2742:2864   */\n  tag_90\n  jumpi\n    /* \"#utility.yul\":2783:2862   */\n  tag_91\n  tag_23\n  jump\t// in\ntag_91:\n    /* \"#utility.yul\":2742:2864   */\ntag_90:\n    /* \"#utility.yul\":2893:2899   */\n  dup2\n    /* \"#utility.yul\":2887:2900   */\n  mload\n    /* \"#utility.yul\":2918:3008   */\n  tag_92\n    /* \"#utility.yul\":3004:3007   */\n  dup5\n    /* \"#utility.yul\":2996:3002   */\n  dup3\n    /* \"#utility.yul\":2989:2993   */\n  0x20\n    /* \"#utility.yul\":2981:2987   */\n  dup7\n    /* \"#utility.yul\":2977:2994   */\n  add\n    /* \"#utility.yul\":2918:3008   */\n  tag_33\n  jump\t// in\ntag_92:\n    /* \"#utility.yul\":2909:3008   */\n  swap2\n  pop\n    /* \"#utility.yul\":2732:3014   */\n  pop\n    /* \"#utility.yul\":2659:3014   */\n  swap3\n  swap2\n  pop\n  pop\n  jump\t// out\n    /* \"#utility.yul\":3036:3996   */\ntag_35:\n    /* \"#utility.yul\":3153:3158   */\n  0x00\n    /* \"#utility.yul\":3178:3269   */\n  tag_94\n    /* \"#utility.yul\":3194:3268   */\n  tag_95\n    /* \"#utility.yul\":3261:3267   */\n  dup5\n    /* \"#utility.yul\":3194:3268   */\n  tag_28\n  jump\t// in\ntag_95:\n    /* \"#utility.yul\":3178:3269   */\n  tag_27\n  jump\t// in\ntag_94:\n    /* \"#utility.yul\":3169:3269   */\n  swap1\n  pop\n    /* \"#utility.yul\":3289:3294   */\n  dup1\n    /* \"#utility.yul\":3318:3324   */\n  dup4\n    /* \"#utility.yul\":3311:3316   */\n  dup3\n    /* \"#utility.yul\":3304:3325   */\n  mstore\n    /* \"#utility.yul\":3352:3356   */\n  0x20\n    /* \"#utility.yul\":3345:3350   */\n  dup3\n    /* \"#utility.yul\":3341:3357   */\n  add\n    /* \"#utility.yul\":3334:3357   */\n  swap1\n  pop\n    /* \"#utility.yul\":3405:3409   */\n  0x20\n    /* \"#utility.yul\":3397:3403   */\n  dup5\n    /* \"#utility.yul\":3393:3410   */\n  mul\n    /* \"#utility.yul\":3385:3391   */\n  dup4\n    /* \"#utility.yul\":3381:3411   */\n  add\n    /* \"#utility.yul\":3434:3437   */\n  dup6\n    /* \"#utility.yul\":3426:3432   */\n  dup2\n    /* \"#utility.yul\":3423:3438   */\n  gt\n    /* \"#utility.yul\":3420:3542   */\n  iszero\n  tag_96\n  jumpi\n    /* \"#utility.yul\":3453:3532   */\n  tag_97\n  tag_29\n  jump\t// in\ntag_97:\n    /* \"#utility.yul\":3420:3542   */\ntag_96:\n    /* \"#utility.yul\":3568:3574   */\n  dup4\n    /* \"#utility.yul\":3551:3990   */\ntag_98:\n    /* \"#utility.yul\":3585:3591   */\n  dup2\n    /* \"#utility.yul\":3580:3583   */\n  dup2\n    /* \"#utility.yul\":3577:3592   */\n  lt\n    /* \"#utility.yul\":3551:3990   */\n  iszero\n  tag_100\n  jumpi\n    /* \"#utility.yul\":3667:3670   */\n  dup1\n    /* \"#utility.yul\":3661:3671   */\n  mload\n    /* \"#utility.yul\":3703:3721   */\n  0xffffffffffffffff\n    /* \"#utility.yul\":3690:3701   */\n  dup2\n    /* \"#utility.yul\":3687:3722   */\n  gt\n    /* \"#utility.yul\":3684:3806   */\n  iszero\n  tag_101\n  jumpi\n    /* \"#utility.yul\":3725:3804   */\n  tag_102\n  tag_23\n  jump\t// in\ntag_102:\n    /* \"#utility.yul\":3684:3806   */\ntag_101:\n    /* \"#utility.yul\":3849:3860   */\n  dup1\n    /* \"#utility.yul\":3841:3847   */\n  dup7\n    /* \"#utility.yul\":3837:3861   */\n  add\n    /* \"#utility.yul\":3887:3945   */\n  tag_103\n    /* \"#utility.yul\":3941:3944   */\n  dup10\n    /* \"#utility.yul\":3929:3939   */\n  dup3\n    /* \"#utility.yul\":3887:3945   */\n  tag_34\n  jump\t// in\ntag_103:\n    /* \"#utility.yul\":3882:3885   */\n  dup6\n    /* \"#utility.yul\":3875:3946   */\n  mstore\n    /* \"#utility.yul\":3975:3979   */\n  0x20\n    /* \"#utility.yul\":3970:3973   */\n  dup6\n    /* \"#utility.yul\":3966:3980   */\n  add\n    /* \"#utility.yul\":3959:3980   */\n  swap5\n  pop\n    /* \"#utility.yul\":3627:3990   */\n  pop\n  pop\n    /* \"#utility.yul\":3611:3615   */\n  0x20\n    /* \"#utility.yul\":3606:3609   */\n  dup2\n    /* \"#utility.yul\":3602:3616   */\n  add\n    /* \"#utility.yul\":3595:3616   */\n  swap1\n  pop\n    /* \"#utility.yul\":3551:3990   */\n  jump(tag_98)\ntag_100:\n    /* \"#utility.yul\":3555:3576   */\n  pop\n    /* \"#utility.yul\":3159:3996   */\n  pop\n  pop\n    /* \"#utility.yul\":3036:3996   */\n  swap4\n  swap3\n  pop\n  pop\n  pop\n  jump\t// out\n    /* \"#utility.yul\":4018:4423   */\ntag_36:\n    /* \"#utility.yul\":4110:4115   */\n  0x00\n    /* \"#utility.yul\":4159:4162   */\n  dup3\n    /* \"#utility.yul\":4152:4156   */\n  0x1f\n    /* \"#utility.yul\":4144:4150   */\n  dup4\n    /* \"#utility.yul\":4140:4157   */\n  add\n    /* \"#utility.yul\":4136:4163   */\n  slt\n    /* \"#utility.yul\":4126:4248   */\n  tag_105\n  jumpi\n    /* \"#utility.yul\":4167:4246   */\n  tag_106\n  tag_23\n  jump\t// in\ntag_106:\n    /* \"#utility.yul\":4126:4248   */\ntag_105:\n    /* \"#utility.yul\":4277:4283   */\n  dup2\n    /* \"#utility.yul\":4271:4284   */\n  mload\n    /* \"#utility.yul\":4302:4417   */\n  tag_107\n    /* \"#utility.yul\":4413:4416   */\n  dup5\n    /* \"#utility.yul\":4405:4411   */\n  dup3\n    /* \"#utility.yul\":4398:4402   */\n  0x20\n    /* \"#utility.yul\":4390:4396   */\n  dup7\n    /* \"#utility.yul\":4386:4403   */\n  add\n    /* \"#utility.yul\":4302:4417   */\n  tag_35\n  jump\t// in\ntag_107:\n    /* \"#utility.yul\":4293:4417   */\n  swap2\n  pop\n    /* \"#utility.yul\":4116:4423   */\n  pop\n    /* \"#utility.yul\":4018:4423   */\n  swap3\n  swap2\n  pop\n  pop\n  jump\t// out\n    /* \"#utility.yul\":4429:4506   */\ntag_37:\n    /* \"#utility.yul\":4466:4473   */\n  0x00\n    /* \"#utility.yul\":4495:4500   */\n  dup2\n    /* \"#utility.yul\":4484:4500   */\n  swap1\n  pop\n    /* \"#utility.yul\":4429:4506   */\n  swap2\n  swap1\n  pop\n  jump\t// out\n    /* \"#utility.yul\":4512:4634   */\ntag_38:\n    /* \"#utility.yul\":4585:4609   */\n  tag_110\n    /* \"#utility.yul\":4603:4608   */\n  dup2\n    /* \"#utility.yul\":4585:4609   */\n  tag_37\n  jump\t// in\ntag_110:\n    /* \"#utility.yul\":4578:4583   */\n  dup2\n    /* \"#utility.yul\":4575:4610   */\n  eq\n    /* \"#utility.yul\":4565:4628   */\n  tag_111\n  jumpi\n    /* \"#utility.yul\":4624:4625   */\n  0x00\n    /* \"#utility.yul\":4621:4622   */\n  0x00\n    /* \"#utility.yul\":4614:4626   */\n  revert\n    /* \"#utility.yul\":4565:4628   */\ntag_111:\n    /* \"#utility.yul\":4512:4634   */\n  pop\n  jump\t// out\n    /* \"#utility.yul\":4640:4783   */\ntag_39:\n    /* \"#utility.yul\":4697:4702   */\n  0x00\n    /* \"#utility.yul\":4728:4734   */\n  dup2\n    /* \"#utility.yul\":4722:4735   */\n  mload\n    /* \"#utility.yul\":4713:4735   */\n  swap1\n  pop\n    /* \"#utility.yul\":4744:4777   */\n  tag_113\n    /* \"#utility.yul\":4771:4776   */\n  dup2\n    /* \"#utility.yul\":4744:4777   */\n  tag_38\n  jump\t// in\ntag_113:\n    /* \"#utility.yul\":4640:4783   */\n  swap3\n  swap2\n  pop\n  pop\n  jump\t// out\n    /* \"#utility.yul\":4789:5519   */\ntag_3:\n    /* \"#utility.yul\":4903:4909   */\n  0x00\n    /* \"#utility.yul\":4911:4917   */\n  0x00\n    /* \"#utility.yul\":4960:4962   */\n  0x40\n    /* \"#utility.yul\":4948:4957   */\n  dup4\n    /* \"#utility.yul\":4939:4946   */\n  dup6\n    /* \"#utility.yul\":4935:4958   */\n  sub\n    /* \"#utility.yul\":4931:4963   */\n  slt\n    /* \"#utility.yul\":4928:5047   */\n  iszero\n  tag_115\n  jumpi\n    /* \"#utility.yul\":4966:5045   */\n  tag_116\n  tag_21\n  jump\t// in\ntag_116:\n    /* \"#utility.yul\":4928:5047   */\ntag_115:\n    /* \"#utility.yul\":5107:5108   */\n  0x00\n    /* \"#utility.yul\":5096:5105   */\n  dup4\n    /* \"#utility.yul\":5092:5109   */\n  add\n    /* \"#utility.yul\":5086:5110   */\n  mload\n    /* \"#utility.yul\":5137:5155   */\n  0xffffffffffffffff\n    /* \"#utility.yul\":5129:5135   */\n  dup2\n    /* \"#utility.yul\":5126:5156   */\n  gt\n    /* \"#utility.yul\":5123:5240   */\n  iszero\n  tag_117\n  jumpi\n    /* \"#utility.yul\":5159:5238   */\n  tag_118\n  tag_22\n  jump\t// in\ntag_118:\n    /* \"#utility.yul\":5123:5240   */\ntag_117:\n    /* \"#utility.yul\":5264:5363   */\n  tag_119\n    /* \"#utility.yul\":5355:5362   */\n  dup6\n    /* \"#utility.yul\":5346:5352   */\n  dup3\n    /* \"#utility.yul\":5335:5344   */\n  dup7\n    /* \"#utility.yul\":5331:5353   */\n  add\n    /* \"#utility.yul\":5264:5363   */\n  tag_36\n  jump\t// in\ntag_119:\n    /* \"#utility.yul\":5254:5363   */\n  swap3\n  pop\n    /* \"#utility.yul\":5057:5373   */\n  pop\n    /* \"#utility.yul\":5412:5414   */\n  0x20\n    /* \"#utility.yul\":5438:5502   */\n  tag_120\n    /* \"#utility.yul\":5494:5501   */\n  dup6\n    /* \"#utility.yul\":5485:5491   */\n  dup3\n    /* \"#utility.yul\":5474:5483   */\n  dup7\n    /* \"#utility.yul\":5470:5492   */\n  add\n    /* \"#utility.yul\":5438:5502   */\n  tag_39\n  jump\t// in\ntag_120:\n    /* \"#utility.yul\":5428:5502   */\n  swap2\n  pop\n    /* \"#utility.yul\":5383:5512   */\n  pop\n    /* \"#utility.yul\":4789:5519   */\n  swap3\n  pop\n  swap3\n  swap1\n  pop\n  jump\t// out\n    /* \"#utility.yul\":5525:5705   */\ntag_11:\n    /* \"#utility.yul\":5573:5650   */\n  0x4e487b7100000000000000000000000000000000000000000000000000000000\n    /* \"#utility.yul\":5570:5571   */\n  0x00\n    /* \"#utility.yul\":5563:5651   */\n  mstore\n    /* \"#utility.yul\":5670:5674   */\n  0x32\n    /* \"#utility.yul\":5667:5668   */\n  0x04\n    /* \"#utility.yul\":5660:5675   */\n  mstore\n    /* \"#utility.yul\":5694:5698   */\n  0x24\n    /* \"#utility.yul\":5691:5692   */\n  0x00\n    /* \"#utility.yul\":5684:5699   */\n  revert\n    /* \"#utility.yul\":5711:5810   */\ntag_40:\n    /* \"#utility.yul\":5763:5769   */\n  0x00\n    /* \"#utility.yul\":5797:5802   */\n  dup2\n    /* \"#utility.yul\":5791:5803   */\n  mload\n    /* \"#utility.yul\":5781:5803   */\n  swap1\n  pop\n    /* \"#utility.yul\":5711:5810   */\n  swap2\n  swap1\n  pop\n  jump\t// out\n    /* \"#utility.yul\":5816:5996   */\ntag_41:\n    /* \"#utility.yul\":5864:5941   */\n  0x4e487b7100000000000000000000000000000000000000000000000000000000\n    /* \"#utility.yul\":5861:5862   */\n  0x00\n    /* \"#utility.yul\":5854:5942   */\n  mstore\n    /* \"#utility.yul\":5961:5965   */\n  0x22\n    /* \"#utility.yul\":5958:5959   */\n  0x04\n    /* \"#utility.yul\":5951:5966   */\n  mstore\n    /* \"#utility.yul\":5985:5989   */\n  0x24\n    /* \"#utility.yul\":5982:5983   */\n  0x00\n    /* \"#utility.yul\":5975:5990   */\n  revert\n    /* \"#utility.yul\":6002:6322   */\ntag_42:\n    /* \"#utility.yul\":6046:6052   */\n  0x00\n    /* \"#utility.yul\":6083:6084   */\n  0x02\n    /* \"#utility.yul\":6077:6081   */\n  dup3\n    /* \"#utility.yul\":6073:6085   */\n  div\n    /* \"#utility.yul\":6063:6085   */\n  swap1\n  pop\n    /* \"#utility.yul\":6130:6131   */\n  0x01\n    /* \"#utility.yul\":6124:6128   */\n  dup3\n    /* \"#utility.yul\":6120:6132   */\n  and\n    /* \"#utility.yul\":6151:6169   */\n  dup1\n    /* \"#utility.yul\":6141:6222   */\n  tag_125\n  jumpi\n    /* \"#utility.yul\":6207:6211   */\n  0x7f\n    /* \"#utility.yul\":6199:6205   */\n  dup3\n    /* \"#utility.yul\":6195:6212   */\n  and\n    /* \"#utility.yul\":6185:6212   */\n  swap2\n  pop\n    /* \"#utility.yul\":6141:6222   */\ntag_125:\n    /* \"#utility.yul\":6269:6271   */\n  0x20\n    /* \"#utility.yul\":6261:6267   */\n  dup3\n    /* \"#utility.yul\":6258:6272   */\n  lt\n    /* \"#utility.yul\":6238:6256   */\n  dup2\n    /* \"#utility.yul\":6235:6273   */\n  sub\n    /* \"#utility.yul\":6232:6316   */\n  tag_126\n  jumpi\n    /* \"#utility.yul\":6288:6306   */\n  tag_127\n  tag_41\n  jump\t// in\ntag_127:\n    /* \"#utility.yul\":6232:6316   */\ntag_126:\n    /* \"#utility.yul\":6053:6322   */\n  pop\n    /* \"#utility.yul\":6002:6322   */\n  swap2\n  swap1\n  pop\n  jump\t// out\n    /* \"#utility.yul\":6328:6469   */\ntag_43:\n    /* \"#utility.yul\":6377:6381   */\n  0x00\n    /* \"#utility.yul\":6400:6403   */\n  dup2\n    /* \"#utility.yul\":6392:6403   */\n  swap1\n  pop\n    /* \"#utility.yul\":6423:6426   */\n  dup2\n    /* \"#utility.yul\":6420:6421   */\n  0x00\n    /* \"#utility.yul\":6413:6427   */\n  mstore\n    /* \"#utility.yul\":6457:6461   */\n  0x20\n    /* \"#utility.yul\":6454:6455   */\n  0x00\n    /* \"#utility.yul\":6444:6462   */\n  keccak256\n    /* \"#utility.yul\":6436:6462   */\n  swap1\n  pop\n    /* \"#utility.yul\":6328:6469   */\n  swap2\n  swap1\n  pop\n  jump\t// out\n    /* \"#utility.yul\":6475:6568   */\ntag_44:\n    /* \"#utility.yul\":6512:6518   */\n  0x00\n    /* \"#utility.yul\":6559:6561   */\n  0x20\n    /* \"#utility.yul\":6554:6556   */\n  0x1f\n    /* \"#utility.yul\":6547:6552   */\n  dup4\n    /* \"#utility.yul\":6543:6557   */\n  add\n    /* \"#utility.yul\":6539:6562   */\n  div\n    /* \"#utility.yul\":6529:6562   */\n  swap1\n  pop\n    /* \"#utility.yul\":6475:6568   */\n  swap2\n  swap1\n  pop\n  jump\t// out\n    /* \"#utility.yul\":6574:6681   */\ntag_45:\n    /* \"#utility.yul\":6618:6626   */\n  0x00\n    /* \"#utility.yul\":6668:6673   */\n  dup3\n    /* \"#utility.yul\":6662:6666   */\n  dup3\n    /* \"#utility.yul\":6658:6674   */\n  shl\n    /* \"#utility.yul\":6637:6674   */\n  swap1\n  pop\n    /* \"#utility.yul\":6574:6681   */\n  swap3\n  swap2\n  pop\n  pop\n  jump\t// out\n    /* \"#utility.yul\":6687:7080   */\ntag_46:\n    /* \"#utility.yul\":6756:6762   */\n  0x00\n    /* \"#utility.yul\":6806:6807   */\n  0x08\n    /* \"#utility.yul\":6794:6804   */\n  dup4\n    /* \"#utility.yul\":6790:6808   */\n  mul\n    /* \"#utility.yul\":6829:6926   */\n  tag_132\n    /* \"#utility.yul\":6859:6925   */\n  0xffffffffffffffffffffffffffffffffffffffffffffffffffffffffffffffff\n    /* \"#utility.yul\":6848:6857   */\n  dup3\n    /* \"#utility.yul\":6829:6926   */\n  tag_45\n  jump\t// in\ntag_132:\n    /* \"#utility.yul\":6947:6986   */\n  tag_133\n    /* \"#utility.yul\":6977:6985   */\n  dup7\n    /* \"#utility.yul\":6966:6975   */\n  dup4\n    /* \"#utility.yul\":6947:6986   */\n  tag_45\n  jump\t// in\ntag_133:\n    /* \"#utility.yul\":6935:6986   */\n  swap6\n  pop\n    /* \"#utility.yul\":7019:7023   */\n  dup1\n    /* \"#utility.yul\":7015:7024   */\n  not\n    /* \"#utility.yul\":7008:7013   */\n  dup5\n    /* \"#utility.yul\":7004:7025   */\n  and\n    /* \"#utility.yul\":6995:7025   */\n  swap4\n  pop\n    /* \"#utility.yul\":7068:7072   */\n  dup1\n    /* \"#utility.yul\":7058:7066   */\n  dup7\n    /* \"#utility.yul\":7054:7073   */\n  and\n    /* \"#utility.yul\":7047:7052   */\n  dup5\n    /* \"#utility.yul\":7044:7074   */\n  or\n    /* \"#utility.yul\":7034:7074   */\n  swap3\n  pop\n    /* \"#utility.yul\":6763:7080   */\n  pop\n  pop\n    /* \"#utility.yul\":6687:7080   */\n  swap4\n  swap3\n  pop\n  pop\n  pop\n  jump\t// out\n    /* \"#utility.yul\":7086:7146   */\ntag_47:\n    /* \"#utility.yul\":7114:7117   */\n  0x00\n    /* \"#utility.yul\":7135:7140   */\n  dup2\n    /* \"#utility.yul\":7128:7140   */\n  swap1\n  pop\n    /* \"#utility.yul\":7086:7146   */\n  swap2\n  swap1\n  pop\n  jump\t// out\n    /* \"#utility.yul\":7152:7294   */\ntag_48:\n    /* \"#utility.yul\":7202:7211   */\n  0x00\n    /* \"#utility.yul\":7235:7288   */\n  tag_136\n    /* \"#utility.yul\":7253:7287   */\n  tag_137\n    /* \"#utility.yul\":7262:7286   */\n  tag_138\n    /* \"#utility.yul\":7280:7285   */\n  dup5\n    /* \"#utility.yul\":7262:7286   */\n  tag_37\n  jump\t// in\ntag_138:\n    /* \"#utility.yul\":7253:7287   */\n  tag_47\n  jump\t// in\ntag_137:\n    /* \"#utility.yul\":7235:7288   */\n  tag_37\n  jump\t// in\ntag_136:\n    /* \"#utility.yul\":7222:7288   */\n  swap1\n  pop\n    /* \"#utility.yul\":7152:7294   */\n  swap2\n  swap1\n  pop\n  jump\t// out\n    /* \"#utility.yul\":7300:7375   */\ntag_49:\n    /* \"#utility.yul\":7343:7346   */\n  0x00\n    /* \"#utility.yul\":7364:7369   */\n  dup2\n    /* \"#utility.yul\":7357:7369   */\n  swap1\n  pop\n    /* \"#utility.yul\":7300:7375   */\n  swap2\n  swap1\n  pop\n  jump\t// out\n    /* \"#utility.yul\":7381:7650   */\ntag_50:\n    /* \"#utility.yul\":7491:7530   */\n  tag_141\n    /* \"#utility.yul\":7522:7529   */\n  dup4\n    /* \"#utility.yul\":7491:7530   */\n  tag_48\n  jump\t// in\ntag_141:\n    /* \"#utility.yul\":7552:7643   */\n  tag_142\n    /* \"#utility.yul\":7601:7642   */\n  tag_143\n    /* \"#utility.yul\":7625:7641   */\n  dup3\n    /* \"#utility.yul\":7601:7642   */\n  tag_49\n  jump\t// in\ntag_143:\n    /* \"#utility.yul\":7593:7599   */\n  dup5\n    /* \"#utility.yul\":7586:7590   */\n  dup5\n    /* \"#utility.yul\":7580:7591   */\n  sload\n    /* \"#utility.yul\":7552:7643   */\n  tag_46\n  jump\t// in\ntag_142:\n    /* \"#utility.yul\":7546:7550   */\n  dup3\n    /* \"#utility.yul\":7539:7644   */\n  sstore\n    /* \"#utility.yul\":7457:7650   */\n  pop\n    /* \"#utility.yul\":7381:7650   */\n  pop\n  pop\n  pop\n  jump\t// out\n    /* \"#utility.yul\":7656:7729   */\ntag_51:\n    /* \"#utility.yul\":7701:7704   */\n  0x00\n    /* \"#utility.yul\":7722:7723   */\n  0x00\n    /* \"#utility.yul\":7715:7723   */\n  swap1\n  pop\n    /* \"#utility.yul\":7656:7729   */\n  swap1\n  jump\t// out\n    /* \"#utility.yul\":7735:7924   */\ntag_52:\n    /* \"#utility.yul\":7812:7844   */\n  tag_146\n  tag_51\n  jump\t// in\ntag_146:\n    /* \"#utility.yul\":7853:7918   */\n  tag_147\n    /* \"#utility.yul\":7911:7917   */\n  dup2\n    /* \"#utility.yul\":7903:7909   */\n  dup5\n    /* \"#utility.yul\":7897:7901   */\n  dup5\n    /* \"#utility.yul\":7853:7918   */\n  tag_50\n  jump\t// in\ntag_147:\n    /* \"#utility.yul\":7788:7924   */\n  pop\n    /* \"#utility.yul\":7735:7924   */\n  pop\n  pop\n  jump\t// out\n    /* \"#utility.yul\":7930:8116   */\ntag_53:\n    /* \"#utility.yul\":7990:8110   */\ntag_149:\n    /* \"#utility.yul\":8007:8010   */\n  dup2\n    /* \"#utility.yul\":8000:8005   */\n  dup2\n    /* \"#utility.yul\":7997:8011   */\n  lt\n    /* \"#utility.yul\":7990:8110   */\n  iszero\n  tag_151\n  jumpi\n    /* \"#utility.yul\":8061:8100   */\n  tag_152\n    /* \"#utility.yul\":8098:8099   */\n  0x00\n    /* \"#utility.yul\":8091:8096   */\n  dup3\n    /* \"#utility.yul\":8061:8100   */\n  tag_52\n  jump\t// in\ntag_152:\n    /* \"#utility.yul\":8034:8035   */\n  0x01\n    /* \"#utility.yul\":8027:8032   */\n  dup2\n    /* \"#utility.yul\":8023:8036   */\n  add\n    /* \"#utility.yul\":8014:8036   */\n  swap1\n  pop\n    /* \"#utility.yul\":7990:8110   */\n  jump(tag_149)\ntag_151:\n    /* \"#utility.yul\":7930:8116   */\n  pop\n  pop\n  jump\t// out\n    /* \"#utility.yul\":8122:8665   */\ntag_54:\n    /* \"#utility.yul\":8223:8225   */\n  0x1f\n    /* \"#utility.yul\":8218:8221   */\n  dup3\n    /* \"#utility.yul\":8215:8226   */\n  gt\n    /* \"#utility.yul\":8212:8658   */\n  iszero\n  tag_154\n  jumpi\n    /* \"#utility.yul\":8257:8295   */\n  tag_155\n    /* \"#utility.yul\":8289:8294   */\n  dup2\n    /* \"#utility.yul\":8257:8295   */\n  tag_43\n  jump\t// in\ntag_155:\n    /* \"#utility.yul\":8341:8370   */\n  tag_156\n    /* \"#utility.yul\":8359:8369   */\n  dup5\n    /* \"#utility.yul\":8341:8370   */\n  tag_44\n  jump\t// in\ntag_156:\n    /* \"#utility.yul\":8331:8339   */\n  dup2\n    /* \"#utility.yul\":8327:8371   */\n  add\n    /* \"#utility.yul\":8524:8526   */\n  0x20\n    /* \"#utility.yul\":8512:8522   */\n  dup6\n    /* \"#utility.yul\":8509:8527   */\n  lt\n    /* \"#utility.yul\":8506:8555   */\n  iszero\n  tag_157\n  jumpi\n    /* \"#utility.yul\":8545:8553   */\n  dup2\n    /* \"#utility.yul\":8530:8553   */\n  swap1\n  pop\n    /* \"#utility.yul\":8506:8555   */\ntag_157:\n    /* \"#utility.yul\":8568:8648   */\n  tag_158\n    /* \"#utility.yul\":8624:8646   */\n  tag_159\n    /* \"#utility.yul\":8642:8645   */\n  dup6\n    /* \"#utility.yul\":8624:8646   */\n  tag_44\n  jump\t// in\ntag_159:\n    /* \"#utility.yul\":8614:8622   */\n  dup4\n    /* \"#utility.yul\":8610:8647   */\n  add\n    /* \"#utility.yul\":8597:8608   */\n  dup3\n    /* \"#utility.yul\":8568:8648   */\n  tag_53\n  jump\t// in\ntag_158:\n    /* \"#utility.yul\":8227:8658   */\n  pop\n  pop\n    /* \"#utility.yul\":8212:8658   */\ntag_154:\n    /* \"#utility.yul\":8122:8665   */\n  pop\n  pop\n  pop\n  jump\t// out\n    /* \"#utility.yul\":8671:8788   */\ntag_55:\n    /* \"#utility.yul\":8725:8733   */\n  0x00\n    /* \"#utility.yul\":8775:8780   */\n  dup3\n    /* \"#utility.yul\":8769:8773   */\n  dup3\n    /* \"#utility.yul\":8765:8781   */\n  shr\n    /* \"#utility.yul\":8744:8781   */\n  swap1\n  pop\n    /* \"#utility.yul\":8671:8788   */\n  swap3\n  swap2\n  pop\n  pop\n  jump\t// out\n    /* \"#utility.yul\":8794:8963   */\ntag_56:\n    /* \"#utility.yul\":8838:8844   */\n  0x00\n    /* \"#utility.yul\":8871:8922   */\n  tag_162\n    /* \"#utility.yul\":8919:8920   */\n  0x00\n    /* \"#utility.yul\":8915:8921   */\n  not\n    /* \"#utility.yul\":8907:8912   */\n  dup5\n    /* \"#utility.yul\":8904:8905   */\n  0x08\n    /* \"#utility.yul\":8900:8913   */\n  mul\n    /* \"#utility.yul\":8871:8922   */\n  tag_55\n  jump\t// in\ntag_162:\n    /* \"#utility.yul\":8867:8923   */\n  not\n    /* \"#utility.yul\":8952:8956   */\n  dup1\n    /* \"#utility.yul\":8946:8950   */\n  dup4\n    /* \"#utility.yul\":8942:8957   */\n  and\n    /* \"#utility.yul\":8932:8957   */\n  swap2\n  pop\n    /* \"#utility.yul\":8845:8963   */\n  pop\n    /* \"#utility.yul\":8794:8963   */\n  swap3\n  swap2\n  pop\n  pop\n  jump\t// out\n    /* \"#utility.yul\":8968:9263   */\ntag_57:\n    /* \"#utility.yul\":9044:9048   */\n  0x00\n    /* \"#utility.yul\":9190:9219   */\n  tag_164\n    /* \"#utility.yul\":9215:9218   */\n  dup4\n    /* \"#utility.yul\":9209:9213   */\n  dup4\n    /* \"#utility.yul\":9190:9219   */\n  tag_56\n  jump\t// in\ntag_164:\n    /* \"#utility.yul\":9182:9219   */\n  swap2\n  pop\n    /* \"#utility.yul\":9252:9255   */\n  dup3\n    /* \"#utility.yul\":9249:9250   */\n  0x02\n    /* \"#utility.yul\":9245:9256   */\n  mul\n    /* \"#utility.yul\":9239:9243   */\n  dup3\n    /* \"#utility.yul\":9236:9257   */\n  or\n    /* \"#utility.yul\":9228:9257   */\n  swap1\n  pop\n    /* \"#utility.yul\":8968:9263   */\n  swap3\n  swap2\n  pop\n  pop\n  jump\t// out\n    /* \"#utility.yul\":9268:10663   */\ntag_14:\n    /* \"#utility.yul\":9385:9422   */\n  tag_166\n    /* \"#utility.yul\":9418:9421   */\n  dup3\n    /* \"#utility.yul\":9385:9422   */\n  tag_40\n  jump\t// in\ntag_166:\n    /* \"#utility.yul\":9487:9505   */\n  0xffffffffffffffff\n    /* \"#utility.yul\":9479:9485   */\n  dup2\n    /* \"#utility.yul\":9476:9506   */\n  gt\n    /* \"#utility.yul\":9473:9529   */\n  iszero\n  tag_167\n  jumpi\n    /* \"#utility.yul\":9509:9527   */\n  tag_168\n  tag_25\n  jump\t// in\ntag_168:\n    /* \"#utility.yul\":9473:9529   */\ntag_167:\n    /* \"#utility.yul\":9553:9591   */\n  tag_169\n    /* \"#utility.yul\":9585:9589   */\n  dup3\n    /* \"#utility.yul\":9579:9590   */\n  sload\n    /* \"#utility.yul\":9553:9591   */\n  tag_42\n  jump\t// in\ntag_169:\n    /* \"#utility.yul\":9638:9705   */\n  tag_170\n    /* \"#utility.yul\":9698:9704   */\n  dup3\n    /* \"#utility.yul\":9690:9696   */\n  dup3\n    /* \"#utility.yul\":9684:9688   */\n  dup6\n    /* \"#utility.yul\":9638:9705   */\n  tag_54\n  jump\t// in\ntag_170:\n    /* \"#utility.yul\":9732:9733   */\n  0x00\n    /* \"#utility.yul\":9756:9760   */\n  0x20\n    /* \"#utility.yul\":9743:9760   */\n  swap1\n  pop\n    /* \"#utility.yul\":9788:9790   */\n  0x1f\n    /* \"#utility.yul\":9780:9786   */\n  dup4\n    /* \"#utility.yul\":9777:9791   */\n  gt\n    /* \"#utility.yul\":9805:9806   */\n  0x01\n    /* \"#utility.yul\":9800:10418   */\n  dup2\n  eq\n  tag_172\n  jumpi\n    /* \"#utility.yul\":10462:10463   */\n  0x00\n    /* \"#utility.yul\":10479:10485   */\n  dup5\n    /* \"#utility.yul\":10476:10553   */\n  iszero\n  tag_173\n  jumpi\n    /* \"#utility.yul\":10528:10537   */\n  dup3\n    /* \"#utility.yul\":10523:10526   */\n  dup8\n    /* \"#utility.yul\":10519:10538   */\n  add\n    /* \"#utility.yul\":10513:10539   */\n  mload\n    /* \"#utility.yul\":10504:10539   */\n  swap1\n  pop\n    /* \"#utility.yul\":10476:10553   */\ntag_173:\n    /* \"#utility.yul\":10579:10646   */\n  tag_174\n    /* \"#utility.yul\":10639:10645   */\n  dup6\n    /* \"#utility.yul\":10632:10637   */\n  dup3\n    /* \"#utility.yul\":10579:10646   */\n  tag_57\n  jump\t// in\ntag_174:\n    /* \"#utility.yul\":10573:10577   */\n  dup7\n    /* \"#utility.yul\":10566:10647   */\n  sstore\n    /* \"#utility.yul\":10435:10657   */\n  pop\n    /* \"#utility.yul\":9770:10657   */\n  jump(tag_171)\n    /* \"#utility.yul\":9800:10418   */\ntag_172:\n    /* \"#utility.yul\":9852:9856   */\n  0x1f\n    /* \"#utility.yul\":9848:9857   */\n  not\n    /* \"#utility.yul\":9840:9846   */\n  dup5\n    /* \"#utility.yul\":9836:9858   */\n  and\n    /* \"#utility.yul\":9886:9923   */\n  tag_175\n    /* \"#utility.yul\":9918:9922   */\n  dup7\n    /* \"#utility.yul\":9886:9923   */\n  tag_43\n  jump\t// in\ntag_175:\n    /* \"#utility.yul\":9945:9946   */\n  0x00\n    /* \"#utility.yul\":9959:10167   */\ntag_176:\n    /* \"#utility.yul\":9973:9980   */\n  dup3\n    /* \"#utility.yul\":9970:9971   */\n  dup2\n    /* \"#utility.yul\":9967:9981   */\n  lt\n    /* \"#utility.yul\":9959:10167   */\n  iszero\n  tag_178\n  jumpi\n    /* \"#utility.yul\":10052:10061   */\n  dup5\n    /* \"#utility.yul\":10047:10050   */\n  dup10\n    /* \"#utility.yul\":10043:10062   */\n  add\n    /* \"#utility.yul\":10037:10063   */\n  mload\n    /* \"#utility.yul\":10029:10035   */\n  dup3\n    /* \"#utility.yul\":10022:10064   */\n  sstore\n    /* \"#utility.yul\":10103:10104   */\n  0x01\n    /* \"#utility.yul\":10095:10101   */\n  dup3\n    /* \"#utility.yul\":10091:10105   */\n  add\n    /* \"#utility.yul\":10081:10105   */\n  swap2\n  pop\n    /* \"#utility.yul\":10150:10152   */\n  0x20\n    /* \"#utility.yul\":10139:10148   */\n  dup6\n    /* \"#utility.yul\":10135:10153   */\n  add\n    /* \"#utility.yul\":10122:10153   */\n  swap5\n  pop\n    /* \"#utility.yul\":9996:10000   */\n  0x20\n    /* \"#utility.yul\":9993:9994   */\n  dup2\n    /* \"#utility.yul\":9989:10001   */\n  add\n    /* \"#utility.yul\":9984:10001   */\n  swap1\n  pop\n    /* \"#utility.yul\":9959:10167   */\n  jump(tag_176)\ntag_178:\n    /* \"#utility.yul\":10195:10201   */\n  dup7\n    /* \"#utility.yul\":10186:10193   */\n  dup4\n    /* \"#utility.yul\":10183:10202   */\n  lt\n    /* \"#utility.yul\":10180:10359   */\n  iszero\n  tag_179\n  jumpi\n    /* \"#utility.yul\":10253:10262   */\n  dup5\n    /* \"#utility.yul\":10248:10251   */\n  dup10\n    /* \"#utility.yul\":10244:10263   */\n  add\n    /* \"#utility.yul\":10238:10264   */\n  mload\n    /* \"#utility.yul\":10296:10344   */\n  tag_180\n    /* \"#utility.yul\":10338:10342   */\n  0x1f\n    /* \"#utility.yul\":10330:10336   */\n  dup10\n    /* \"#utility.yul\":10326:10343   */\n  and\n    /* \"#utility.yul\":10315:10324   */\n  dup3\n    /* \"#utility.yul\":10296:10344   */\n  tag_56\n  jump\t// in\ntag_180:\n    /* \"#utility.yul\":10288:10294   */\n  dup4\n    /* \"#utility.yul\":10281:10345   */\n  sstore\n    /* \"#utility.yul\":10203:10359   */\n  pop\n    /* \"#utility.yul\":10180:10359   */\ntag_179:\n    /* \"#utility.yul\":10405:10406   */\n  0x01\n    /* \"#utility.yul\":10401:10402   */\n  0x02\n    /* \"#utility.yul\":10393:10399   */\n  dup9\n    /* \"#utility.yul\":10389:10403   */\n  mul\n    /* \"#utility.yul\":10385:10407   */\n  add\n    /* \"#utility.yul\":10379:10383   */\n  dup9\n    /* \"#utility.yul\":10372:10408   */\n  sstore\n    /* \"#utility.yul\":9807:10418   */\n  pop\n  pop\n  pop\n    /* \"#utility.yul\":9770:10657   */\ntag_171:\n  pop\n    /* \"#utility.yul\":9360:10663   */\n  pop\n  pop\n  pop\n    /* \"#utility.yul\":9268:10663   */\n  pop\n  pop\n  jump\t// out\n    /* \"#utility.yul\":10669:10849   */\ntag_58:\n    /* \"#utility.yul\":10717:10794   */\n  0x4e487b7100000000000000000000000000000000000000000000000000000000\n    /* \"#utility.yul\":10714:10715   */\n  0x00\n    /* \"#utility.yul\":10707:10795   */\n  mstore\n    /* \"#utility.yul\":10814:10818   */\n  0x11\n    /* \"#utility.yul\":10811:10812   */\n  0x04\n    /* \"#utility.yul\":10804:10819   */\n  mstore\n    /* \"#utility.yul\":10838:10842   */\n  0x24\n    /* \"#utility.yul\":10835:10836   */\n  0x00\n    /* \"#utility.yul\":10828:10843   */\n  revert\n    /* \"#utility.yul\":10855:11265   */\ntag_16:\n    /* \"#utility.yul\":10895:10902   */\n  0x00\n    /* \"#utility.yul\":10918:10938   */\n  tag_183\n    /* \"#utility.yul\":10936:10937   */\n  dup3\n    /* \"#utility.yul\":10918:10938   */\n  tag_37\n  jump\t// in\ntag_183:\n    /* \"#utility.yul\":10913:10938   */\n  swap2\n  pop\n    /* \"#utility.yul\":10952:10972   */\n  tag_184\n    /* \"#utility.yul\":10970:10971   */\n  dup4\n    /* \"#utility.yul\":10952:10972   */\n  tag_37\n  jump\t// in\ntag_184:\n    /* \"#utility.yul\":10947:10972   */\n  swap3\n  pop\n    /* \"#utility.yul\":11007:11008   */\n  dup3\n    /* \"#utility.yul\":11004:11005   */\n  dup3\n    /* \"#utility.yul\":11000:11009   */\n  mul\n    /* \"#utility.yul\":11029:11059   */\n  tag_185\n    /* \"#utility.yul\":11047:11058   */\n  dup2\n    /* \"#utility.yul\":11029:11059   */\n  tag_37\n  jump\t// in\ntag_185:\n    /* \"#utility.yul\":11018:11059   */\n  swap2\n  pop\n    /* \"#utility.yul\":11208:11209   */\n  dup3\n    /* \"#utility.yul\":11199:11206   */\n  dup3\n    /* \"#utility.yul\":11195:11210   */\n  div\n    /* \"#utility.yul\":11192:11193   */\n  dup5\n    /* \"#utility.yul\":11189:11211   */\n  eq\n    /* \"#utility.yul\":11169:11170   */\n  dup4\n    /* \"#utility.yul\":11162:11171   */\n  iszero\n    /* \"#utility.yul\":11142:11225   */\n  or\n    /* \"#utility.yul\":11119:11258   */\n  tag_186\n  jumpi\n    /* \"#utility.yul\":11238:11256   */\n  tag_187\n  tag_58\n  jump\t// in\ntag_187:\n    /* \"#utility.yul\":11119:11258   */\ntag_186:\n    /* \"#utility.yul\":10903:11265   */\n  pop\n    /* \"#utility.yul\":10855:11265   */\n  swap3\n  swap2\n  pop\n  pop\n  jump\t// out\n    /* \"#utility.yul\":11271:11462   */\ntag_18:\n    /* \"#utility.yul\":11311:11314   */\n  0x00\n    /* \"#utility.yul\":11330:11350   */\n  tag_189\n    /* \"#utility.yul\":11348:11349   */\n  dup3\n    /* \"#utility.yul\":11330:11350   */\n  tag_37\n  jump\t// in\ntag_189:\n    /* \"#utility.yul\":11325:11350   */\n  swap2\n  pop\n    /* \"#utility.yul\":11364:11384   */\n  tag_190\n    /* \"#utility.yul\":11382:11383   */\n  dup4\n    /* \"#utility.yul\":11364:11384   */\n  tag_37\n  jump\t// in\ntag_190:\n    /* \"#utility.yul\":11359:11384   */\n  swap3\n  pop\n    /* \"#utility.yul\":11407:11408   */\n  dup3\n    /* \"#utility.yul\":11404:11405   */\n  dup3\n    /* \"#utility.yul\":11400:11409   */\n  add\n    /* \"#utility.yul\":11393:11409   */\n  swap1\n  pop\n    /* \"#utility.yul\":11428:11431   */\n  dup1\n    /* \"#utility.yul\":11425:11426   */\n  dup3\n    /* \"#utility.yul\":11422:11432   */\n  gt\n    /* \"#utility.yul\":11419:11455   */\n  iszero\n  tag_191\n  jumpi\n    /* \"#utility.yul\":11435:11453   */\n  tag_192\n  tag_58\n  jump\t// in\ntag_192:\n    /* \"#utility.yul\":11419:11455   */\ntag_191:\n    /* \"#utility.yul\":11271:11462   */\n  swap3\n  swap2\n  pop\n  pop\n  jump\t// out\n    /* \"voting.sol\":60:1840  contract Voting {... */\ntag_19:\n  dataSize(sub_0)\n  dup1\n  dataOffset(sub_0)\n  0x00\n  codecopy\n  0x00\n  return\nstop\n\nsub_0: assembly {\n        /* \"voting.sol\":60:1840  contract Voting {... */\n      mstore(0x40, 0x80)\n      callvalue\n      dup1\n      iszero\n      tag_1\n      jumpi\n      revert(0x00, 0x00)\n    tag_1:\n      pop\n      jumpi(tag_2, lt(calldatasize, 0x04))\n      shr(0xe0, calldataload(0x00))\n      dup1\n      0x4d6bda5f\n      gt\n      tag_12\n      jumpi\n      dup1\n      0x4d6bda5f\n      eq\n      tag_7\n      jumpi\n      dup1\n      0x581c281c\n      eq\n      tag_8\n      jumpi\n      dup1\n      0x85a38635\n      eq\n      tag_9\n      jumpi\n      dup1\n      0xa3ec138d\n      eq\n      tag_10\n      jumpi\n      dup1\n      0xefb98bcf\n      eq\n      tag_11\n      jumpi\n      jump(tag_2)\n    tag_12:\n      dup1\n      0x0121b93f\n      eq\n      tag_3\n      jumpi\n      dup1\n      0x101158af\n      eq\n      tag_4\n      jumpi\n      dup1\n      0x3477ee2e\n      eq\n      tag_5\n      jumpi\n      dup1\n      0x462e91ec\n      eq\n      tag_6\n      jumpi\n    tag_2:\n      revert(0x00, 0x00)\n        /* \"voting.sol\":1002:1293  function vote(uint256 _candidateIndex) public {... */\n    tag_3:\n      tag_13\n      0x04\n      dup1\n      calldatasize\n      sub\n      dup2\n      add\n      swap1\n      tag_14\n      swap2\n      swap1\n      tag_15\n      jump\t// in\n    tag_14:\n      tag_16\n      jump\t// in\n    tag_13:\n      stop\n        /* \"voting.sol\":269:295  uint256 public votingStart */\n    tag_4:\n      tag_17\n      tag_18\n      jump\t// in\n    tag_17:\n      mload(0x40)\n      tag_19\n      swap2\n      swap1\n      tag_20\n      jump\t// in\n    tag_19:\n      mload(0x40)\n      dup1\n      swap2\n      sub\n      swap1\n      return\n        /* \"voting.sol\":166:195  Candidate[] public candidates */\n    tag_5:\n      tag_21\n      0x04\n      dup1\n      calldatasize\n      sub\n      dup2\n      add\n      swap1\n      tag_22\n      swap2\n      swap1\n      tag_15\n      jump\t// in\n    tag_22:\n      tag_23\n      jump\t// in\n    tag_21:\n      mload(0x40)\n      tag_24\n      swap3\n      swap2\n      swap1\n      tag_25\n      jump\t// in\n    tag_24:\n      mload(0x40)\n      dup1\n      swap2\n      sub\n      swap1\n      return\n        /* \"voting.sol\":815:994  function addCandidate(string memory _name) public onlyOwner {... */\n    tag_6:\n      tag_26\n      0x04\n      dup1\n      calldatasize\n      sub\n      dup2\n      add\n      swap1\n      tag_27\n      swap2\n      swap1\n      tag_28\n      jump\t// in\n    tag_27:\n      tag_29\n      jump\t// in\n    tag_26:\n      stop\n        /* \"voting.sol\":1301:1411  function getAllVotesOfCandiates() public view returns (Candidate[] memory){... */\n    tag_7:\n      tag_30\n      tag_31\n      jump\t// in\n    tag_30:\n      mload(0x40)\n      tag_32\n      swap2\n      swap1\n      tag_33\n      jump\t// in\n    tag_32:\n      mload(0x40)\n      dup1\n      swap2\n      sub\n      swap1\n      return\n        /* \"voting.sol\":1419:1562  function getVotingStatus() public view returns (bool) {... */\n    tag_8:\n      tag_34\n      tag_35\n      jump\t// in\n    tag_34:\n      mload(0x40)\n      tag_36\n      swap2\n      swap1\n      tag_37\n      jump\t// in\n    tag_36:\n      mload(0x40)\n      dup1\n      swap2\n      sub\n      swap1\n      return\n        /* \"voting.sol\":302:326  uint256 public votingEnd */\n    tag_9:\n      tag_38\n      tag_39\n      jump\t// in\n    tag_38:\n      mload(0x40)\n      tag_40\n      swap2\n      swap1\n      tag_20\n      jump\t// in\n    tag_40:\n      mload(0x40)\n      dup1\n      swap2\n      sub\n      swap1\n      return\n        /* \"voting.sol\":222:260  mapping(address => bool) public voters */\n    tag_10:\n      tag_41\n      0x04\n      dup1\n      calldatasize\n      sub\n      dup2\n      add\n      swap1\n      tag_42\n      swap2\n      swap1\n      tag_43\n      jump\t// in\n    tag_42:\n      tag_44\n      jump\t// in\n    tag_41:\n      mload(0x40)\n      tag_45\n      swap2\n      swap1\n      tag_37\n      jump\t// in\n    tag_45:\n      mload(0x40)\n      dup1\n      swap2\n      sub\n      swap1\n      return\n        /* \"voting.sol\":1570:1837  function getRemainingTime() public view returns (uint256) {... */\n    tag_11:\n      tag_46\n      tag_47\n      jump\t// in\n    tag_46:\n      mload(0x40)\n      tag_48\n      swap2\n      swap1\n      tag_20\n      jump\t// in\n    tag_48:\n      mload(0x40)\n      dup1\n      swap2\n      sub\n      swap1\n      return\n        /* \"voting.sol\":1002:1293  function vote(uint256 _candidateIndex) public {... */\n    tag_16:\n        /* \"voting.sol\":1068:1074  voters */\n      0x02\n        /* \"voting.sol\":1068:1086  voters[msg.sender] */\n      0x00\n        /* \"voting.sol\":1075:1085  msg.sender */\n      caller\n        /* \"voting.sol\":1068:1086  voters[msg.sender] */\n      0xffffffffffffffffffffffffffffffffffffffff\n      and\n      0xffffffffffffffffffffffffffffffffffffffff\n      and\n      dup2\n      mstore\n      0x20\n      add\n      swap1\n      dup2\n      mstore\n      0x20\n      add\n      0x00\n      keccak256\n      0x00\n      swap1\n      sload\n      swap1\n      0x0100\n      exp\n      swap1\n      div\n      0xff\n      and\n        /* \"voting.sol\":1067:1086  !voters[msg.sender] */\n      iszero\n        /* \"voting.sol\":1059:1114  require(!voters[msg.sender], \"You have already voted.\") */\n      tag_50\n      jumpi\n      mload(0x40)\n      0x08c379a000000000000000000000000000000000000000000000000000000000\n      dup2\n      mstore\n      0x04\n      add\n      tag_51\n      swap1\n      tag_52\n      jump\t// in\n    tag_51:\n      mload(0x40)\n      dup1\n      swap2\n      sub\n      swap1\n      revert\n    tag_50:\n        /* \"voting.sol\":1151:1161  candidates */\n      0x00\n        /* \"voting.sol\":1151:1168  candidates.length */\n      dup1\n      sload\n      swap1\n      pop\n        /* \"voting.sol\":1133:1148  _candidateIndex */\n      dup2\n        /* \"voting.sol\":1133:1168  _candidateIndex < candidates.length */\n      lt\n        /* \"voting.sol\":1125:1197  require(_candidateIndex < candidates.length, \"Invalid candidate index.\") */\n      tag_53\n      jumpi\n      mload(0x40)\n      0x08c379a000000000000000000000000000000000000000000000000000000000\n      dup2\n      mstore\n      0x04\n      add\n      tag_54\n      swap1\n      tag_55\n      jump\t// in\n    tag_54:\n      mload(0x40)\n      dup1\n      swap2\n      sub\n      swap1\n      revert\n    tag_53:\n        /* \"voting.sol\":1210:1220  candidates */\n      0x00\n        /* \"voting.sol\":1221:1236  _candidateIndex */\n      dup2\n        /* \"voting.sol\":1210:1237  candidates[_candidateIndex] */\n      dup2\n      sload\n      dup2\n      lt\n      tag_56\n      jumpi\n      tag_57\n      tag_58\n      jump\t// in\n    tag_57:\n    tag_56:\n      swap1\n      0x00\n      mstore\n      keccak256(0x00, 0x20)\n      swap1\n      0x02\n      mul\n      add\n        /* \"voting.sol\":1210:1247  candidates[_candidateIndex].voteCount */\n      0x01\n      add\n      0x00\n        /* \"voting.sol\":1210:1249  candidates[_candidateIndex].voteCount++ */\n      dup2\n      sload\n      dup1\n      swap3\n      swap2\n      swap1\n      tag_60\n      swap1\n      tag_61\n      jump\t// in\n    tag_60:\n      swap2\n      swap1\n      pop\n      sstore\n      pop\n        /* \"voting.sol\":1281:1285  true */\n      0x01\n        /* \"voting.sol\":1260:1266  voters */\n      0x02\n        /* \"voting.sol\":1260:1278  voters[msg.sender] */\n      0x00\n        /* \"voting.sol\":1267:1277  msg.sender */\n      caller\n        /* \"voting.sol\":1260:1278  voters[msg.sender] */\n      0xffffffffffffffffffffffffffffffffffffffff\n      and\n      0xffffffffffffffffffffffffffffffffffffffff\n      and\n      dup2\n      mstore\n      0x20\n      add\n      swap1\n      dup2\n      mstore\n      0x20\n      add\n      0x00\n      keccak256\n      0x00\n        /* \"voting.sol\":1260:1285  voters[msg.sender] = true */\n      0x0100\n      exp\n      dup2\n      sload\n      dup2\n      0xff\n      mul\n      not\n      and\n      swap1\n      dup4\n      iszero\n      iszero\n      mul\n      or\n      swap1\n      sstore\n      pop\n        /* \"voting.sol\":1002:1293  function vote(uint256 _candidateIndex) public {... */\n      pop\n      jump\t// out\n        /* \"voting.sol\":269:295  uint256 public votingStart */\n    tag_18:\n      sload(0x03)\n      dup2\n      jump\t// out\n        /* \"voting.sol\":166:195  Candidate[] public candidates */\n    tag_23:\n      0x00\n      dup2\n      dup2\n      sload\n      dup2\n      lt\n      tag_62\n      jumpi\n      0x00\n      dup1\n      revert\n    tag_62:\n      swap1\n      0x00\n      mstore\n      keccak256(0x00, 0x20)\n      swap1\n      0x02\n      mul\n      add\n      0x00\n      swap2\n      pop\n      swap1\n      pop\n      dup1\n      0x00\n      add\n      dup1\n      sload\n      tag_64\n      swap1\n      tag_65\n      jump\t// in\n    tag_64:\n      dup1\n      0x1f\n      add\n      0x20\n      dup1\n      swap2\n      div\n      mul\n      0x20\n      add\n      mload(0x40)\n      swap1\n      dup2\n      add\n      0x40\n      mstore\n      dup1\n      swap3\n      swap2\n      swap1\n      dup2\n      dup2\n      mstore\n      0x20\n      add\n      dup3\n      dup1\n      sload\n      tag_66\n      swap1\n      tag_65\n      jump\t// in\n    tag_66:\n      dup1\n      iszero\n      tag_67\n      jumpi\n      dup1\n      0x1f\n      lt\n      tag_68\n      jumpi\n      0x0100\n      dup1\n      dup4\n      sload\n      div\n      mul\n      dup4\n      mstore\n      swap2\n      0x20\n      add\n      swap2\n      jump(tag_67)\n    tag_68:\n      dup3\n      add\n      swap2\n      swap1\n      0x00\n      mstore\n      keccak256(0x00, 0x20)\n      swap1\n    tag_69:\n      dup2\n      sload\n      dup2\n      mstore\n      swap1\n      0x01\n      add\n      swap1\n      0x20\n      add\n      dup1\n      dup4\n      gt\n      tag_69\n      jumpi\n      dup3\n      swap1\n      sub\n      0x1f\n      and\n      dup3\n      add\n      swap2\n    tag_67:\n      pop\n      pop\n      pop\n      pop\n      pop\n      swap1\n      dup1\n      0x01\n      add\n      sload\n      swap1\n      pop\n      dup3\n      jump\t// out\n        /* \"voting.sol\":815:994  function addCandidate(string memory _name) public onlyOwner {... */\n    tag_29:\n        /* \"voting.sol\":781:786  owner */\n      0x01\n      0x00\n      swap1\n      sload\n      swap1\n      0x0100\n      exp\n      swap1\n      div\n      0xffffffffffffffffffffffffffffffffffffffff\n      and\n        /* \"voting.sol\":767:786  msg.sender == owner */\n      0xffffffffffffffffffffffffffffffffffffffff\n      and\n        /* \"voting.sol\":767:777  msg.sender */\n      caller\n        /* \"voting.sol\":767:786  msg.sender == owner */\n      0xffffffffffffffffffffffffffffffffffffffff\n      and\n      eq\n        /* \"voting.sol\":759:787  require(msg.sender == owner) */\n      tag_71\n      jumpi\n      revert(0x00, 0x00)\n    tag_71:\n        /* \"voting.sol\":886:896  candidates */\n      0x00\n        /* \"voting.sol\":902:985  Candidate({... */\n      mload(0x40)\n      dup1\n      0x40\n      add\n      0x40\n      mstore\n      dup1\n        /* \"voting.sol\":937:942  _name */\n      dup4\n        /* \"voting.sol\":902:985  Candidate({... */\n      dup2\n      mstore\n      0x20\n      add\n        /* \"voting.sol\":972:973  0 */\n      0x00\n        /* \"voting.sol\":902:985  Candidate({... */\n      dup2\n      mstore\n      pop\n        /* \"voting.sol\":886:986  candidates.push(Candidate({... */\n      swap1\n      dup1\n      0x01\n      dup2\n      sload\n      add\n      dup1\n      dup3\n      sstore\n      dup1\n      swap2\n      pop\n      pop\n      0x01\n      swap1\n      sub\n      swap1\n      0x00\n      mstore\n      keccak256(0x00, 0x20)\n      swap1\n      0x02\n      mul\n      add\n      0x00\n      swap1\n      swap2\n      swap1\n      swap2\n      swap1\n      swap2\n      pop\n      0x00\n      dup3\n      add\n      mload\n      dup2\n      0x00\n      add\n      swap1\n      dup2\n      tag_74\n      swap2\n      swap1\n      tag_75\n      jump\t// in\n    tag_74:\n      pop\n      0x20\n      dup3\n      add\n      mload\n      dup2\n      0x01\n      add\n      sstore\n      pop\n      pop\n        /* \"voting.sol\":815:994  function addCandidate(string memory _name) public onlyOwner {... */\n      pop\n      jump\t// out\n        /* \"voting.sol\":1301:1411  function getAllVotesOfCandiates() public view returns (Candidate[] memory){... */\n    tag_31:\n        /* \"voting.sol\":1356:1374  Candidate[] memory */\n      0x60\n        /* \"voting.sol\":1393:1403  candidates */\n      0x00\n        /* \"voting.sol\":1386:1403  return candidates */\n      dup1\n      sload\n      dup1\n      0x20\n      mul\n      0x20\n      add\n      mload(0x40)\n      swap1\n      dup2\n      add\n      0x40\n      mstore\n      dup1\n      swap3\n      swap2\n      swap1\n      dup2\n      dup2\n      mstore\n      0x20\n      add\n      0x00\n      swap1\n    tag_77:\n      dup3\n      dup3\n      lt\n      iszero\n      tag_78\n      jumpi\n      dup4\n      dup3\n      swap1\n      0x00\n      mstore\n      keccak256(0x00, 0x20)\n      swap1\n      0x02\n      mul\n      add\n      mload(0x40)\n      dup1\n      0x40\n      add\n      0x40\n      mstore\n      swap1\n      dup2\n      0x00\n      dup3\n      add\n      dup1\n      sload\n      tag_80\n      swap1\n      tag_65\n      jump\t// in\n    tag_80:\n      dup1\n      0x1f\n      add\n      0x20\n      dup1\n      swap2\n      div\n      mul\n      0x20\n      add\n      mload(0x40)\n      swap1\n      dup2\n      add\n      0x40\n      mstore\n      dup1\n      swap3\n      swap2\n      swap1\n      dup2\n      dup2\n      mstore\n      0x20\n      add\n      dup3\n      dup1\n      sload\n      tag_81\n      swap1\n      tag_65\n      jump\t// in\n    tag_81:\n      dup1\n      iszero\n      tag_82\n      jumpi\n      dup1\n      0x1f\n      lt\n      tag_83\n      jumpi\n      0x0100\n      dup1\n      dup4\n      sload\n      div\n      mul\n      dup4\n      mstore\n      swap2\n      0x20\n      add\n      swap2\n      jump(tag_82)\n    tag_83:\n      dup3\n      add\n      swap2\n      swap1\n      0x00\n      mstore\n      keccak256(0x00, 0x20)\n      swap1\n    tag_84:\n      dup2\n      sload\n      dup2\n      mstore\n      swap1\n      0x01\n      add\n      swap1\n      0x20\n      add\n      dup1\n      dup4\n      gt\n      tag_84\n      jumpi\n      dup3\n      swap1\n      sub\n      0x1f\n      and\n      dup3\n      add\n      swap2\n    tag_82:\n      pop\n      pop\n      pop\n      pop\n      pop\n      dup2\n      mstore\n      0x20\n      add\n      0x01\n      dup3\n      add\n      sload\n      dup2\n      mstore\n      pop\n      pop\n      dup2\n      mstore\n      0x20\n      add\n      swap1\n      0x01\n      add\n      swap1\n      jump(tag_77)\n    tag_78:\n      pop\n      pop\n      pop\n      pop\n      swap1\n      pop\n        /* \"voting.sol\":1301:1411  function getAllVotesOfCandiates() public view returns (Candidate[] memory){... */\n      swap1\n      jump\t// out\n        /* \"voting.sol\":1419:1562  function getVotingStatus() public view returns (bool) {... */\n    tag_35:\n        /* \"voting.sol\":1467:1471  bool */\n      0x00\n        /* \"voting.sol\":1511:1522  votingStart */\n      sload(0x03)\n        /* \"voting.sol\":1492:1507  block.timestamp */\n      timestamp\n        /* \"voting.sol\":1492:1522  block.timestamp >= votingStart */\n      lt\n      iszero\n        /* \"voting.sol\":1492:1553  block.timestamp >= votingStart && block.timestamp < votingEnd */\n      dup1\n      iszero\n      tag_86\n      jumpi\n      pop\n        /* \"voting.sol\":1544:1553  votingEnd */\n      sload(0x04)\n        /* \"voting.sol\":1526:1541  block.timestamp */\n      timestamp\n        /* \"voting.sol\":1526:1553  block.timestamp < votingEnd */\n      lt\n        /* \"voting.sol\":1492:1553  block.timestamp >= votingStart && block.timestamp < votingEnd */\n    tag_86:\n        /* \"voting.sol\":1484:1554  return (block.timestamp >= votingStart && block.timestamp < votingEnd) */\n      swap1\n      pop\n        /* \"voting.sol\":1419:1562  function getVotingStatus() public view returns (bool) {... */\n      swap1\n      jump\t// out\n        /* \"voting.sol\":302:326  uint256 public votingEnd */\n    tag_39:\n      sload(0x04)\n      dup2\n      jump\t// out\n        /* \"voting.sol\":222:260  mapping(address => bool) public voters */\n    tag_44:\n      mstore(0x20, 0x02)\n      dup1\n      0x00\n      mstore\n      keccak256(0x00, 0x40)\n      0x00\n      swap2\n      pop\n      sload\n      swap1\n      0x0100\n      exp\n      swap1\n      div\n      0xff\n      and\n      dup2\n      jump\t// out\n        /* \"voting.sol\":1570:1837  function getRemainingTime() public view returns (uint256) {... */\n    tag_47:\n        /* \"voting.sol\":1619:1626  uint256 */\n      0x00\n        /* \"voting.sol\":1666:1677  votingStart */\n      sload(0x03)\n        /* \"voting.sol\":1647:1662  block.timestamp */\n      timestamp\n        /* \"voting.sol\":1647:1677  block.timestamp >= votingStart */\n      lt\n      iszero\n        /* \"voting.sol\":1639:1709  require(block.timestamp >= votingStart, \"Voting has not started yet.\") */\n      tag_88\n      jumpi\n      mload(0x40)\n      0x08c379a000000000000000000000000000000000000000000000000000000000\n      dup2\n      mstore\n      0x04\n      add\n      tag_89\n      swap1\n      tag_90\n      jump\t// in\n    tag_89:\n      mload(0x40)\n      dup1\n      swap2\n      sub\n      swap1\n      revert\n    tag_88:\n        /* \"voting.sol\":1743:1752  votingEnd */\n      sload(0x04)\n        /* \"voting.sol\":1724:1739  block.timestamp */\n      timestamp\n        /* \"voting.sol\":1724:1752  block.timestamp >= votingEnd */\n      lt\n        /* \"voting.sol\":1720:1785  if (block.timestamp >= votingEnd) {... */\n      tag_91\n      jumpi\n        /* \"voting.sol\":1776:1777  0 */\n      0x00\n        /* \"voting.sol\":1769:1777  return 0 */\n      swap1\n      pop\n      jump(tag_87)\n        /* \"voting.sol\":1720:1785  if (block.timestamp >= votingEnd) {... */\n    tag_91:\n        /* \"voting.sol\":1814:1829  block.timestamp */\n      timestamp\n        /* \"voting.sol\":1802:1811  votingEnd */\n      sload(0x04)\n        /* \"voting.sol\":1802:1829  votingEnd - block.timestamp */\n      tag_92\n      swap2\n      swap1\n      tag_93\n      jump\t// in\n    tag_92:\n        /* \"voting.sol\":1795:1829  return votingEnd - block.timestamp */\n      swap1\n      pop\n        /* \"voting.sol\":1570:1837  function getRemainingTime() public view returns (uint256) {... */\n    tag_87:\n      swap1\n      jump\t// out\n        /* \"#utility.yul\":7:82   */\n    tag_94:\n        /* \"#utility.yul\":40:46   */\n      0x00\n        /* \"#utility.yul\":73:75   */\n      0x40\n        /* \"#utility.yul\":67:76   */\n      mload\n        /* \"#utility.yul\":57:76   */\n      swap1\n      pop\n        /* \"#utility.yul\":7:82   */\n      swap1\n      jump\t// out\n        /* \"#utility.yul\":88:205   */\n    tag_95:\n        /* \"#utility.yul\":197:198   */\n      0x00\n        /* \"#utility.yul\":194:195   */\n      0x00\n        /* \"#utility.yul\":187:199   */\n      revert\n        /* \"#utility.yul\":211:328   */\n    tag_96:\n        /* \"#utility.yul\":320:321   */\n      0x00\n        /* \"#utility.yul\":317:318   */\n      0x00\n        /* \"#utility.yul\":310:322   */\n      revert\n        /* \"#utility.yul\":334:411   */\n    tag_97:\n        /* \"#utility.yul\":371:378   */\n      0x00\n        /* \"#utility.yul\":400:405   */\n      dup2\n        /* \"#utility.yul\":389:405   */\n      swap1\n      pop\n        /* \"#utility.yul\":334:411   */\n      swap2\n      swap1\n      pop\n      jump\t// out\n        /* \"#utility.yul\":417:539   */\n    tag_98:\n        /* \"#utility.yul\":490:514   */\n      tag_160\n        /* \"#utility.yul\":508:513   */\n      dup2\n        /* \"#utility.yul\":490:514   */\n      tag_97\n      jump\t// in\n    tag_160:\n        /* \"#utility.yul\":483:488   */\n      dup2\n        /* \"#utility.yul\":480:515   */\n      eq\n        /* \"#utility.yul\":470:533   */\n      tag_161\n      jumpi\n        /* \"#utility.yul\":529:530   */\n      0x00\n        /* \"#utility.yul\":526:527   */\n      0x00\n        /* \"#utility.yul\":519:531   */\n      revert\n        /* \"#utility.yul\":470:533   */\n    tag_161:\n        /* \"#utility.yul\":417:539   */\n      pop\n      jump\t// out\n        /* \"#utility.yul\":545:684   */\n    tag_99:\n        /* \"#utility.yul\":591:596   */\n      0x00\n        /* \"#utility.yul\":629:635   */\n      dup2\n        /* \"#utility.yul\":616:636   */\n      calldataload\n        /* \"#utility.yul\":607:636   */\n      swap1\n      pop\n        /* \"#utility.yul\":645:678   */\n      tag_163\n        /* \"#utility.yul\":672:677   */\n      dup2\n        /* \"#utility.yul\":645:678   */\n      tag_98\n      jump\t// in\n    tag_163:\n        /* \"#utility.yul\":545:684   */\n      swap3\n      swap2\n      pop\n      pop\n      jump\t// out\n        /* \"#utility.yul\":690:1019   */\n    tag_15:\n        /* \"#utility.yul\":749:755   */\n      0x00\n        /* \"#utility.yul\":798:800   */\n      0x20\n        /* \"#utility.yul\":786:795   */\n      dup3\n        /* \"#utility.yul\":777:784   */\n      dup5\n        /* \"#utility.yul\":773:796   */\n      sub\n        /* \"#utility.yul\":769:801   */\n      slt\n        /* \"#utility.yul\":766:885   */\n      iszero\n      tag_165\n      jumpi\n        /* \"#utility.yul\":804:883   */\n      tag_166\n      tag_95\n      jump\t// in\n    tag_166:\n        /* \"#utility.yul\":766:885   */\n    tag_165:\n        /* \"#utility.yul\":924:925   */\n      0x00\n        /* \"#utility.yul\":949:1002   */\n      tag_167\n        /* \"#utility.yul\":994:1001   */\n      dup5\n        /* \"#utility.yul\":985:991   */\n      dup3\n        /* \"#utility.yul\":974:983   */\n      dup6\n        /* \"#utility.yul\":970:992   */\n      add\n        /* \"#utility.yul\":949:1002   */\n      tag_99\n      jump\t// in\n    tag_167:\n        /* \"#utility.yul\":939:1002   */\n      swap2\n      pop\n        /* \"#utility.yul\":895:1012   */\n      pop\n        /* \"#utility.yul\":690:1019   */\n      swap3\n      swap2\n      pop\n      pop\n      jump\t// out\n        /* \"#utility.yul\":1025:1143   */\n    tag_100:\n        /* \"#utility.yul\":1112:1136   */\n      tag_169\n        /* \"#utility.yul\":1130:1135   */\n      dup2\n        /* \"#utility.yul\":1112:1136   */\n      tag_97\n      jump\t// in\n    tag_169:\n        /* \"#utility.yul\":1107:1110   */\n      dup3\n        /* \"#utility.yul\":1100:1137   */\n      mstore\n        /* \"#utility.yul\":1025:1143   */\n      pop\n      pop\n      jump\t// out\n        /* \"#utility.yul\":1149:1371   */\n    tag_20:\n        /* \"#utility.yul\":1242:1246   */\n      0x00\n        /* \"#utility.yul\":1280:1282   */\n      0x20\n        /* \"#utility.yul\":1269:1278   */\n      dup3\n        /* \"#utility.yul\":1265:1283   */\n      add\n        /* \"#utility.yul\":1257:1283   */\n      swap1\n      pop\n        /* \"#utility.yul\":1293:1364   */\n      tag_171\n        /* \"#utility.yul\":1361:1362   */\n      0x00\n        /* \"#utility.yul\":1350:1359   */\n      dup4\n        /* \"#utility.yul\":1346:1363   */\n      add\n        /* \"#utility.yul\":1337:1343   */\n      dup5\n        /* \"#utility.yul\":1293:1364   */\n      tag_100\n      jump\t// in\n    tag_171:\n        /* \"#utility.yul\":1149:1371   */\n      swap3\n      swap2\n      pop\n      pop\n      jump\t// out\n        /* \"#utility.yul\":1377:1476   */\n    tag_101:\n        /* \"#utility.yul\":1429:1435   */\n      0x00\n        /* \"#utility.yul\":1463:1468   */\n      dup2\n        /* \"#utility.yul\":1457:1469   */\n      mload\n        /* \"#utility.yul\":1447:1469   */\n      swap1\n      pop\n        /* \"#utility.yul\":1377:1476   */\n      swap2\n      swap1\n      pop\n      jump\t// out\n        /* \"#utility.yul\":1482:1651   */\n    tag_102:\n        /* \"#utility.yul\":1566:1577   */\n      0x00\n        /* \"#utility.yul\":1600:1606   */\n      dup3\n        /* \"#utility.yul\":1595:1598   */\n      dup3\n        /* \"#utility.yul\":1588:1607   */\n      mstore\n        /* \"#utility.yul\":1640:1644   */\n      0x20\n        /* \"#utility.yul\":1635:1638   */\n      dup3\n        /* \"#utility.yul\":1631:1645   */\n      add\n        /* \"#utility.yul\":1616:1645   */\n      swap1\n      pop\n        /* \"#utility.yul\":1482:1651   */\n      swap3\n      swap2\n      pop\n      pop\n      jump\t// out\n        /* \"#utility.yul\":1657:1796   */\n    tag_103:\n        /* \"#utility.yul\":1746:1752   */\n      dup3\n        /* \"#utility.yul\":1741:1744   */\n      dup2\n        /* \"#utility.yul\":1736:1739   */\n      dup4\n        /* \"#utility.yul\":1730:1753   */\n      mcopy\n        /* \"#utility.yul\":1787:1788   */\n      0x00\n        /* \"#utility.yul\":1778:1784   */\n      dup4\n        /* \"#utility.yul\":1773:1776   */\n      dup4\n        /* \"#utility.yul\":1769:1785   */\n      add\n        /* \"#utility.yul\":1762:1789   */\n      mstore\n        /* \"#utility.yul\":1657:1796   */\n      pop\n      pop\n      pop\n      jump\t// out\n        /* \"#utility.yul\":1802:1904   */\n    tag_104:\n        /* \"#utility.yul\":1843:1849   */\n      0x00\n        /* \"#utility.yul\":1894:1896   */\n      0x1f\n        /* \"#utility.yul\":1890:1897   */\n      not\n        /* \"#utility.yul\":1885:1887   */\n      0x1f\n        /* \"#utility.yul\":1878:1883   */\n      dup4\n        /* \"#utility.yul\":1874:1888   */\n      add\n        /* \"#utility.yul\":1870:1898   */\n      and\n        /* \"#utility.yul\":1860:1898   */\n      swap1\n      pop\n        /* \"#utility.yul\":1802:1904   */\n      swap2\n      swap1\n      pop\n      jump\t// out\n        /* \"#utility.yul\":1910:2287   */\n    tag_105:\n        /* \"#utility.yul\":1998:2001   */\n      0x00\n        /* \"#utility.yul\":2026:2065   */\n      tag_177\n        /* \"#utility.yul\":2059:2064   */\n      dup3\n        /* \"#utility.yul\":2026:2065   */\n      tag_101\n      jump\t// in\n    tag_177:\n        /* \"#utility.yul\":2081:2152   */\n      tag_178\n        /* \"#utility.yul\":2145:2151   */\n      dup2\n        /* \"#utility.yul\":2140:2143   */\n      dup6\n        /* \"#utility.yul\":2081:2152   */\n      tag_102\n      jump\t// in\n    tag_178:\n        /* \"#utility.yul\":2074:2152   */\n      swap4\n      pop\n        /* \"#utility.yul\":2161:2226   */\n      tag_179\n        /* \"#utility.yul\":2219:2225   */\n      dup2\n        /* \"#utility.yul\":2214:2217   */\n      dup6\n        /* \"#utility.yul\":2207:2211   */\n      0x20\n        /* \"#utility.yul\":2200:2205   */\n      dup7\n        /* \"#utility.yul\":2196:2212   */\n      add\n        /* \"#utility.yul\":2161:2226   */\n      tag_103\n      jump\t// in\n    tag_179:\n        /* \"#utility.yul\":2251:2280   */\n      tag_180\n        /* \"#utility.yul\":2273:2279   */\n      dup2\n        /* \"#utility.yul\":2251:2280   */\n      tag_104\n      jump\t// in\n    tag_180:\n        /* \"#utility.yul\":2246:2249   */\n      dup5\n        /* \"#utility.yul\":2242:2281   */\n      add\n        /* \"#utility.yul\":2235:2281   */\n      swap2\n      pop\n        /* \"#utility.yul\":2002:2287   */\n      pop\n        /* \"#utility.yul\":1910:2287   */\n      swap3\n      swap2\n      pop\n      pop\n      jump\t// out\n        /* \"#utility.yul\":2293:2716   */\n    tag_25:\n        /* \"#utility.yul\":2434:2438   */\n      0x00\n        /* \"#utility.yul\":2472:2474   */\n      0x40\n        /* \"#utility.yul\":2461:2470   */\n      dup3\n        /* \"#utility.yul\":2457:2475   */\n      add\n        /* \"#utility.yul\":2449:2475   */\n      swap1\n      pop\n        /* \"#utility.yul\":2521:2530   */\n      dup2\n        /* \"#utility.yul\":2515:2519   */\n      dup2\n        /* \"#utility.yul\":2511:2531   */\n      sub\n        /* \"#utility.yul\":2507:2508   */\n      0x00\n        /* \"#utility.yul\":2496:2505   */\n      dup4\n        /* \"#utility.yul\":2492:2509   */\n      add\n        /* \"#utility.yul\":2485:2532   */\n      mstore\n        /* \"#utility.yul\":2549:2627   */\n      tag_182\n        /* \"#utility.yul\":2622:2626   */\n      dup2\n        /* \"#utility.yul\":2613:2619   */\n      dup6\n        /* \"#utility.yul\":2549:2627   */\n      tag_105\n      jump\t// in\n    tag_182:\n        /* \"#utility.yul\":2541:2627   */\n      swap1\n      pop\n        /* \"#utility.yul\":2637:2709   */\n      tag_183\n        /* \"#utility.yul\":2705:2707   */\n      0x20\n        /* \"#utility.yul\":2694:2703   */\n      dup4\n        /* \"#utility.yul\":2690:2708   */\n      add\n        /* \"#utility.yul\":2681:2687   */\n      dup5\n        /* \"#utility.yul\":2637:2709   */\n      tag_100\n      jump\t// in\n    tag_183:\n        /* \"#utility.yul\":2293:2716   */\n      swap4\n      swap3\n      pop\n      pop\n      pop\n      jump\t// out\n        /* \"#utility.yul\":2722:2839   */\n    tag_106:\n        /* \"#utility.yul\":2831:2832   */\n      0x00\n        /* \"#utility.yul\":2828:2829   */\n      0x00\n        /* \"#utility.yul\":2821:2833   */\n      revert\n        /* \"#utility.yul\":2845:2962   */\n    tag_107:\n        /* \"#utility.yul\":2954:2955   */\n      0x00\n        /* \"#utility.yul\":2951:2952   */\n      0x00\n        /* \"#utility.yul\":2944:2956   */\n      revert\n        /* \"#utility.yul\":2968:3148   */\n    tag_108:\n        /* \"#utility.yul\":3016:3093   */\n      0x4e487b7100000000000000000000000000000000000000000000000000000000\n        /* \"#utility.yul\":3013:3014   */\n      0x00\n        /* \"#utility.yul\":3006:3094   */\n      mstore\n        /* \"#utility.yul\":3113:3117   */\n      0x41\n        /* \"#utility.yul\":3110:3111   */\n      0x04\n        /* \"#utility.yul\":3103:3118   */\n      mstore\n        /* \"#utility.yul\":3137:3141   */\n      0x24\n        /* \"#utility.yul\":3134:3135   */\n      0x00\n        /* \"#utility.yul\":3127:3142   */\n      revert\n        /* \"#utility.yul\":3154:3435   */\n    tag_109:\n        /* \"#utility.yul\":3237:3264   */\n      tag_188\n        /* \"#utility.yul\":3259:3263   */\n      dup3\n        /* \"#utility.yul\":3237:3264   */\n      tag_104\n      jump\t// in\n    tag_188:\n        /* \"#utility.yul\":3229:3235   */\n      dup2\n        /* \"#utility.yul\":3225:3265   */\n      add\n        /* \"#utility.yul\":3367:3373   */\n      dup2\n        /* \"#utility.yul\":3355:3365   */\n      dup2\n        /* \"#utility.yul\":3352:3374   */\n      lt\n        /* \"#utility.yul\":3331:3349   */\n      0xffffffffffffffff\n        /* \"#utility.yul\":3319:3329   */\n      dup3\n        /* \"#utility.yul\":3316:3350   */\n      gt\n        /* \"#utility.yul\":3313:3375   */\n      or\n        /* \"#utility.yul\":3310:3398   */\n      iszero\n      tag_189\n      jumpi\n        /* \"#utility.yul\":3378:3396   */\n      tag_190\n      tag_108\n      jump\t// in\n    tag_190:\n        /* \"#utility.yul\":3310:3398   */\n    tag_189:\n        /* \"#utility.yul\":3418:3428   */\n      dup1\n        /* \"#utility.yul\":3414:3416   */\n      0x40\n        /* \"#utility.yul\":3407:3429   */\n      mstore\n        /* \"#utility.yul\":3197:3435   */\n      pop\n        /* \"#utility.yul\":3154:3435   */\n      pop\n      pop\n      jump\t// out\n        /* \"#utility.yul\":3441:3570   */\n    tag_110:\n        /* \"#utility.yul\":3475:3481   */\n      0x00\n        /* \"#utility.yul\":3502:3522   */\n      tag_192\n      tag_94\n      jump\t// in\n    tag_192:\n        /* \"#utility.yul\":3492:3522   */\n      swap1\n      pop\n        /* \"#utility.yul\":3531:3564   */\n      tag_193\n        /* \"#utility.yul\":3559:3563   */\n      dup3\n        /* \"#utility.yul\":3551:3557   */\n      dup3\n        /* \"#utility.yul\":3531:3564   */\n      tag_109\n      jump\t// in\n    tag_193:\n        /* \"#utility.yul\":3441:3570   */\n      swap2\n      swap1\n      pop\n      jump\t// out\n        /* \"#utility.yul\":3576:3884   */\n    tag_111:\n        /* \"#utility.yul\":3638:3642   */\n      0x00\n        /* \"#utility.yul\":3728:3746   */\n      0xffffffffffffffff\n        /* \"#utility.yul\":3720:3726   */\n      dup3\n        /* \"#utility.yul\":3717:3747   */\n      gt\n        /* \"#utility.yul\":3714:3770   */\n      iszero\n      tag_195\n      jumpi\n        /* \"#utility.yul\":3750:3768   */\n      tag_196\n      tag_108\n      jump\t// in\n    tag_196:\n        /* \"#utility.yul\":3714:3770   */\n    tag_195:\n        /* \"#utility.yul\":3788:3817   */\n      tag_197\n        /* \"#utility.yul\":3810:3816   */\n      dup3\n        /* \"#utility.yul\":3788:3817   */\n      tag_104\n      jump\t// in\n    tag_197:\n        /* \"#utility.yul\":3780:3817   */\n      swap1\n      pop\n        /* \"#utility.yul\":3872:3876   */\n      0x20\n        /* \"#utility.yul\":3866:3870   */\n      dup2\n        /* \"#utility.yul\":3862:3877   */\n      add\n        /* \"#utility.yul\":3854:3877   */\n      swap1\n      pop\n        /* \"#utility.yul\":3576:3884   */\n      swap2\n      swap1\n      pop\n      jump\t// out\n        /* \"#utility.yul\":3890:4038   */\n    tag_112:\n        /* \"#utility.yul\":3988:3994   */\n      dup3\n        /* \"#utility.yul\":3983:3986   */\n      dup2\n        /* \"#utility.yul\":3978:3981   */\n      dup4\n        /* \"#utility.yul\":3965:3995   */\n      calldatacopy\n        /* \"#utility.yul\":4029:4030   */\n      0x00\n        /* \"#utility.yul\":4020:4026   */\n      dup4\n        /* \"#utility.yul\":4015:4018   */\n      dup4\n        /* \"#utility.yul\":4011:4027   */\n      add\n        /* \"#utility.yul\":4004:4031   */\n      mstore\n        /* \"#utility.yul\":3890:4038   */\n      pop\n      pop\n      pop\n      jump\t// out\n        /* \"#utility.yul\":4044:4469   */\n    tag_113:\n        /* \"#utility.yul\":4122:4127   */\n      0x00\n        /* \"#utility.yul\":4147:4213   */\n      tag_200\n        /* \"#utility.yul\":4163:4212   */\n      tag_201\n        /* \"#utility.yul\":4205:4211   */\n      dup5\n        /* \"#utility.yul\":4163:4212   */\n      tag_111\n      jump\t// in\n    tag_201:\n        /* \"#utility.yul\":4147:4213   */\n      tag_110\n      jump\t// in\n    tag_200:\n        /* \"#utility.yul\":4138:4213   */\n      swap1\n      pop\n        /* \"#utility.yul\":4236:4242   */\n      dup3\n        /* \"#utility.yul\":4229:4234   */\n      dup2\n        /* \"#utility.yul\":4222:4243   */\n      mstore\n        /* \"#utility.yul\":4274:4278   */\n      0x20\n        /* \"#utility.yul\":4267:4272   */\n      dup2\n        /* \"#utility.yul\":4263:4279   */\n      add\n        /* \"#utility.yul\":4312:4315   */\n      dup5\n        /* \"#utility.yul\":4303:4309   */\n      dup5\n        /* \"#utility.yul\":4298:4301   */\n      dup5\n        /* \"#utility.yul\":4294:4310   */\n      add\n        /* \"#utility.yul\":4291:4316   */\n      gt\n        /* \"#utility.yul\":4288:4400   */\n      iszero\n      tag_202\n      jumpi\n        /* \"#utility.yul\":4319:4398   */\n      tag_203\n      tag_107\n      jump\t// in\n    tag_203:\n        /* \"#utility.yul\":4288:4400   */\n    tag_202:\n        /* \"#utility.yul\":4409:4463   */\n      tag_204\n        /* \"#utility.yul\":4456:4462   */\n      dup5\n        /* \"#utility.yul\":4451:4454   */\n      dup3\n        /* \"#utility.yul\":4446:4449   */\n      dup6\n        /* \"#utility.yul\":4409:4463   */\n      tag_112\n      jump\t// in\n    tag_204:\n        /* \"#utility.yul\":4128:4469   */\n      pop\n        /* \"#utility.yul\":4044:4469   */\n      swap4\n      swap3\n      pop\n      pop\n      pop\n      jump\t// out\n        /* \"#utility.yul\":4489:4829   */\n    tag_114:\n        /* \"#utility.yul\":4545:4550   */\n      0x00\n        /* \"#utility.yul\":4594:4597   */\n      dup3\n        /* \"#utility.yul\":4587:4591   */\n      0x1f\n        /* \"#utility.yul\":4579:4585   */\n      dup4\n        /* \"#utility.yul\":4575:4592   */\n      add\n        /* \"#utility.yul\":4571:4598   */\n      slt\n        /* \"#utility.yul\":4561:4683   */\n      tag_206\n      jumpi\n        /* \"#utility.yul\":4602:4681   */\n      tag_207\n      tag_106\n      jump\t// in\n    tag_207:\n        /* \"#utility.yul\":4561:4683   */\n    tag_206:\n        /* \"#utility.yul\":4719:4725   */\n      dup2\n        /* \"#utility.yul\":4706:4726   */\n      calldataload\n        /* \"#utility.yul\":4744:4823   */\n      tag_208\n        /* \"#utility.yul\":4819:4822   */\n      dup5\n        /* \"#utility.yul\":4811:4817   */\n      dup3\n        /* \"#utility.yul\":4804:4808   */\n      0x20\n        /* \"#utility.yul\":4796:4802   */\n      dup7\n        /* \"#utility.yul\":4792:4809   */\n      add\n        /* \"#utility.yul\":4744:4823   */\n      tag_113\n      jump\t// in\n    tag_208:\n        /* \"#utility.yul\":4735:4823   */\n      swap2\n      pop\n        /* \"#utility.yul\":4551:4829   */\n      pop\n        /* \"#utility.yul\":4489:4829   */\n      swap3\n      swap2\n      pop\n      pop\n      jump\t// out\n        /* \"#utility.yul\":4835:5344   */\n    tag_28:\n        /* \"#utility.yul\":4904:4910   */\n      0x00\n        /* \"#utility.yul\":4953:4955   */\n      0x20\n        /* \"#utility.yul\":4941:4950   */\n      dup3\n        /* \"#utility.yul\":4932:4939   */\n      dup5\n        /* \"#utility.yul\":4928:4951   */\n      sub\n        /* \"#utility.yul\":4924:4956   */\n      slt\n        /* \"#utility.yul\":4921:5040   */\n      iszero\n      tag_210\n      jumpi\n        /* \"#utility.yul\":4959:5038   */\n      tag_211\n      tag_95\n      jump\t// in\n    tag_211:\n        /* \"#utility.yul\":4921:5040   */\n    tag_210:\n        /* \"#utility.yul\":5107:5108   */\n      0x00\n        /* \"#utility.yul\":5096:5105   */\n      dup3\n        /* \"#utility.yul\":5092:5109   */\n      add\n        /* \"#utility.yul\":5079:5110   */\n      calldataload\n        /* \"#utility.yul\":5137:5155   */\n      0xffffffffffffffff\n        /* \"#utility.yul\":5129:5135   */\n      dup2\n        /* \"#utility.yul\":5126:5156   */\n      gt\n        /* \"#utility.yul\":5123:5240   */\n      iszero\n      tag_212\n      jumpi\n        /* \"#utility.yul\":5159:5238   */\n      tag_213\n      tag_96\n      jump\t// in\n    tag_213:\n        /* \"#utility.yul\":5123:5240   */\n    tag_212:\n        /* \"#utility.yul\":5264:5327   */\n      tag_214\n        /* \"#utility.yul\":5319:5326   */\n      dup5\n        /* \"#utility.yul\":5310:5316   */\n      dup3\n        /* \"#utility.yul\":5299:5308   */\n      dup6\n        /* \"#utility.yul\":5295:5317   */\n      add\n        /* \"#utility.yul\":5264:5327   */\n      tag_114\n      jump\t// in\n    tag_214:\n        /* \"#utility.yul\":5254:5327   */\n      swap2\n      pop\n        /* \"#utility.yul\":5050:5337   */\n      pop\n        /* \"#utility.yul\":4835:5344   */\n      swap3\n      swap2\n      pop\n      pop\n      jump\t// out\n        /* \"#utility.yul\":5350:5488   */\n    tag_115:\n        /* \"#utility.yul\":5441:5447   */\n      0x00\n        /* \"#utility.yul\":5475:5480   */\n      dup2\n        /* \"#utility.yul\":5469:5481   */\n      mload\n        /* \"#utility.yul\":5459:5481   */\n      swap1\n      pop\n        /* \"#utility.yul\":5350:5488   */\n      swap2\n      swap1\n      pop\n      jump\t// out\n        /* \"#utility.yul\":5494:5702   */\n    tag_116:\n        /* \"#utility.yul\":5617:5628   */\n      0x00\n        /* \"#utility.yul\":5651:5657   */\n      dup3\n        /* \"#utility.yul\":5646:5649   */\n      dup3\n        /* \"#utility.yul\":5639:5658   */\n      mstore\n        /* \"#utility.yul\":5691:5695   */\n      0x20\n        /* \"#utility.yul\":5686:5689   */\n      dup3\n        /* \"#utility.yul\":5682:5696   */\n      add\n        /* \"#utility.yul\":5667:5696   */\n      swap1\n      pop\n        /* \"#utility.yul\":5494:5702   */\n      swap3\n      swap2\n      pop\n      pop\n      jump\t// out\n        /* \"#utility.yul\":5708:5864   */\n    tag_117:\n        /* \"#utility.yul\":5799:5803   */\n      0x00\n        /* \"#utility.yul\":5822:5825   */\n      dup2\n        /* \"#utility.yul\":5814:5825   */\n      swap1\n      pop\n        /* \"#utility.yul\":5852:5856   */\n      0x20\n        /* \"#utility.yul\":5847:5850   */\n      dup3\n        /* \"#utility.yul\":5843:5857   */\n      add\n        /* \"#utility.yul\":5835:5857   */\n      swap1\n      pop\n        /* \"#utility.yul\":5708:5864   */\n      swap2\n      swap1\n      pop\n      jump\t// out\n        /* \"#utility.yul\":5870:6029   */\n    tag_118:\n        /* \"#utility.yul\":5944:5955   */\n      0x00\n        /* \"#utility.yul\":5978:5984   */\n      dup3\n        /* \"#utility.yul\":5973:5976   */\n      dup3\n        /* \"#utility.yul\":5966:5985   */\n      mstore\n        /* \"#utility.yul\":6018:6022   */\n      0x20\n        /* \"#utility.yul\":6013:6016   */\n      dup3\n        /* \"#utility.yul\":6009:6023   */\n      add\n        /* \"#utility.yul\":5994:6023   */\n      swap1\n      pop\n        /* \"#utility.yul\":5870:6029   */\n      swap3\n      swap2\n      pop\n      pop\n      jump\t// out\n        /* \"#utility.yul\":6035:6392   */\n    tag_119:\n        /* \"#utility.yul\":6113:6116   */\n      0x00\n        /* \"#utility.yul\":6141:6180   */\n      tag_220\n        /* \"#utility.yul\":6174:6179   */\n      dup3\n        /* \"#utility.yul\":6141:6180   */\n      tag_101\n      jump\t// in\n    tag_220:\n        /* \"#utility.yul\":6196:6257   */\n      tag_221\n        /* \"#utility.yul\":6250:6256   */\n      dup2\n        /* \"#utility.yul\":6245:6248   */\n      dup6\n        /* \"#utility.yul\":6196:6257   */\n      tag_118\n      jump\t// in\n    tag_221:\n        /* \"#utility.yul\":6189:6257   */\n      swap4\n      pop\n        /* \"#utility.yul\":6266:6331   */\n      tag_222\n        /* \"#utility.yul\":6324:6330   */\n      dup2\n        /* \"#utility.yul\":6319:6322   */\n      dup6\n        /* \"#utility.yul\":6312:6316   */\n      0x20\n        /* \"#utility.yul\":6305:6310   */\n      dup7\n        /* \"#utility.yul\":6301:6317   */\n      add\n        /* \"#utility.yul\":6266:6331   */\n      tag_103\n      jump\t// in\n    tag_222:\n        /* \"#utility.yul\":6356:6385   */\n      tag_223\n        /* \"#utility.yul\":6378:6384   */\n      dup2\n        /* \"#utility.yul\":6356:6385   */\n      tag_104\n      jump\t// in\n    tag_223:\n        /* \"#utility.yul\":6351:6354   */\n      dup5\n        /* \"#utility.yul\":6347:6386   */\n      add\n        /* \"#utility.yul\":6340:6386   */\n      swap2\n      pop\n        /* \"#utility.yul\":6117:6392   */\n      pop\n        /* \"#utility.yul\":6035:6392   */\n      swap3\n      swap2\n      pop\n      pop\n      jump\t// out\n        /* \"#utility.yul\":6398:6506   */\n    tag_120:\n        /* \"#utility.yul\":6475:6499   */\n      tag_225\n        /* \"#utility.yul\":6493:6498   */\n      dup2\n        /* \"#utility.yul\":6475:6499   */\n      tag_97\n      jump\t// in\n    tag_225:\n        /* \"#utility.yul\":6470:6473   */\n      dup3\n        /* \"#utility.yul\":6463:6500   */\n      mstore\n        /* \"#utility.yul\":6398:6506   */\n      pop\n      pop\n      jump\t// out\n        /* \"#utility.yul\":6570:7169   */\n    tag_121:\n        /* \"#utility.yul\":6677:6680   */\n      0x00\n        /* \"#utility.yul\":6713:6717   */\n      0x40\n        /* \"#utility.yul\":6708:6711   */\n      dup4\n        /* \"#utility.yul\":6704:6718   */\n      add\n        /* \"#utility.yul\":6800:6804   */\n      0x00\n        /* \"#utility.yul\":6793:6798   */\n      dup4\n        /* \"#utility.yul\":6789:6805   */\n      add\n        /* \"#utility.yul\":6783:6806   */\n      mload\n        /* \"#utility.yul\":6853:6856   */\n      dup5\n        /* \"#utility.yul\":6847:6851   */\n      dup3\n        /* \"#utility.yul\":6843:6857   */\n      sub\n        /* \"#utility.yul\":6836:6840   */\n      0x00\n        /* \"#utility.yul\":6831:6834   */\n      dup7\n        /* \"#utility.yul\":6827:6841   */\n      add\n        /* \"#utility.yul\":6820:6858   */\n      mstore\n        /* \"#utility.yul\":6879:6952   */\n      tag_227\n        /* \"#utility.yul\":6947:6951   */\n      dup3\n        /* \"#utility.yul\":6933:6945   */\n      dup3\n        /* \"#utility.yul\":6879:6952   */\n      tag_119\n      jump\t// in\n    tag_227:\n        /* \"#utility.yul\":6871:6952   */\n      swap2\n      pop\n        /* \"#utility.yul\":6728:6963   */\n      pop\n        /* \"#utility.yul\":7050:7054   */\n      0x20\n        /* \"#utility.yul\":7043:7048   */\n      dup4\n        /* \"#utility.yul\":7039:7055   */\n      add\n        /* \"#utility.yul\":7033:7056   */\n      mload\n        /* \"#utility.yul\":7069:7132   */\n      tag_228\n        /* \"#utility.yul\":7126:7130   */\n      0x20\n        /* \"#utility.yul\":7121:7124   */\n      dup7\n        /* \"#utility.yul\":7117:7131   */\n      add\n        /* \"#utility.yul\":7103:7115   */\n      dup3\n        /* \"#utility.yul\":7069:7132   */\n      tag_120\n      jump\t// in\n    tag_228:\n        /* \"#utility.yul\":6973:7142   */\n      pop\n        /* \"#utility.yul\":7159:7163   */\n      dup1\n        /* \"#utility.yul\":7152:7163   */\n      swap2\n      pop\n        /* \"#utility.yul\":6682:7169   */\n      pop\n        /* \"#utility.yul\":6570:7169   */\n      swap3\n      swap2\n      pop\n      pop\n      jump\t// out\n        /* \"#utility.yul\":7175:7427   */\n    tag_122:\n        /* \"#utility.yul\":7292:7302   */\n      0x00\n        /* \"#utility.yul\":7327:7421   */\n      tag_230\n        /* \"#utility.yul\":7417:7420   */\n      dup4\n        /* \"#utility.yul\":7409:7415   */\n      dup4\n        /* \"#utility.yul\":7327:7421   */\n      tag_121\n      jump\t// in\n    tag_230:\n        /* \"#utility.yul\":7313:7421   */\n      swap1\n      pop\n        /* \"#utility.yul\":7175:7427   */\n      swap3\n      swap2\n      pop\n      pop\n      jump\t// out\n        /* \"#utility.yul\":7433:7570   */\n    tag_123:\n        /* \"#utility.yul\":7527:7531   */\n      0x00\n        /* \"#utility.yul\":7559:7563   */\n      0x20\n        /* \"#utility.yul\":7554:7557   */\n      dup3\n        /* \"#utility.yul\":7550:7564   */\n      add\n        /* \"#utility.yul\":7542:7564   */\n      swap1\n      pop\n        /* \"#utility.yul\":7433:7570   */\n      swap2\n      swap1\n      pop\n      jump\t// out\n        /* \"#utility.yul\":7638:8741   */\n    tag_124:\n        /* \"#utility.yul\":7805:7808   */\n      0x00\n        /* \"#utility.yul\":7834:7912   */\n      tag_233\n        /* \"#utility.yul\":7906:7911   */\n      dup3\n        /* \"#utility.yul\":7834:7912   */\n      tag_115\n      jump\t// in\n    tag_233:\n        /* \"#utility.yul\":7928:8038   */\n      tag_234\n        /* \"#utility.yul\":8031:8037   */\n      dup2\n        /* \"#utility.yul\":8026:8029   */\n      dup6\n        /* \"#utility.yul\":7928:8038   */\n      tag_116\n      jump\t// in\n    tag_234:\n        /* \"#utility.yul\":7921:8038   */\n      swap4\n      pop\n        /* \"#utility.yul\":8064:8067   */\n      dup4\n        /* \"#utility.yul\":8109:8113   */\n      0x20\n        /* \"#utility.yul\":8101:8107   */\n      dup3\n        /* \"#utility.yul\":8097:8114   */\n      mul\n        /* \"#utility.yul\":8092:8095   */\n      dup6\n        /* \"#utility.yul\":8088:8115   */\n      add\n        /* \"#utility.yul\":8139:8219   */\n      tag_235\n        /* \"#utility.yul\":8213:8218   */\n      dup6\n        /* \"#utility.yul\":8139:8219   */\n      tag_117\n      jump\t// in\n    tag_235:\n        /* \"#utility.yul\":8242:8249   */\n      dup1\n        /* \"#utility.yul\":8273:8274   */\n      0x00\n        /* \"#utility.yul\":8258:8696   */\n    tag_236:\n        /* \"#utility.yul\":8283:8289   */\n      dup6\n        /* \"#utility.yul\":8280:8281   */\n      dup2\n        /* \"#utility.yul\":8277:8290   */\n      lt\n        /* \"#utility.yul\":8258:8696   */\n      iszero\n      tag_238\n      jumpi\n        /* \"#utility.yul\":8354:8363   */\n      dup5\n        /* \"#utility.yul\":8348:8352   */\n      dup5\n        /* \"#utility.yul\":8344:8364   */\n      sub\n        /* \"#utility.yul\":8339:8342   */\n      dup10\n        /* \"#utility.yul\":8332:8365   */\n      mstore\n        /* \"#utility.yul\":8405:8411   */\n      dup2\n        /* \"#utility.yul\":8399:8412   */\n      mload\n        /* \"#utility.yul\":8433:8545   */\n      tag_239\n        /* \"#utility.yul\":8540:8544   */\n      dup6\n        /* \"#utility.yul\":8525:8538   */\n      dup3\n        /* \"#utility.yul\":8433:8545   */\n      tag_122\n      jump\t// in\n    tag_239:\n        /* \"#utility.yul\":8425:8545   */\n      swap5\n      pop\n        /* \"#utility.yul\":8568:8652   */\n      tag_240\n        /* \"#utility.yul\":8645:8651   */\n      dup4\n        /* \"#utility.yul\":8568:8652   */\n      tag_123\n      jump\t// in\n    tag_240:\n        /* \"#utility.yul\":8558:8652   */\n      swap3\n      pop\n        /* \"#utility.yul\":8681:8685   */\n      0x20\n        /* \"#utility.yul\":8676:8679   */\n      dup11\n        /* \"#utility.yul\":8672:8686   */\n      add\n        /* \"#utility.yul\":8665:8686   */\n      swap10\n      pop\n        /* \"#utility.yul\":8318:8696   */\n      pop\n        /* \"#utility.yul\":8305:8306   */\n      0x01\n        /* \"#utility.yul\":8302:8303   */\n      dup2\n        /* \"#utility.yul\":8298:8307   */\n      add\n        /* \"#utility.yul\":8293:8307   */\n      swap1\n      pop\n        /* \"#utility.yul\":8258:8696   */\n      jump(tag_236)\n    tag_238:\n        /* \"#utility.yul\":8262:8276   */\n      pop\n        /* \"#utility.yul\":8712:8716   */\n      dup3\n        /* \"#utility.yul\":8705:8716   */\n      swap8\n      pop\n        /* \"#utility.yul\":8732:8735   */\n      dup8\n        /* \"#utility.yul\":8725:8735   */\n      swap6\n      pop\n        /* \"#utility.yul\":7810:8741   */\n      pop\n      pop\n      pop\n      pop\n      pop\n        /* \"#utility.yul\":7638:8741   */\n      swap3\n      swap2\n      pop\n      pop\n      jump\t// out\n        /* \"#utility.yul\":8747:9216   */\n    tag_33:\n        /* \"#utility.yul\":8938:8942   */\n      0x00\n        /* \"#utility.yul\":8976:8978   */\n      0x20\n        /* \"#utility.yul\":8965:8974   */\n      dup3\n        /* \"#utility.yul\":8961:8979   */\n      add\n        /* \"#utility.yul\":8953:8979   */\n      swap1\n      pop\n        /* \"#utility.yul\":9025:9034   */\n      dup2\n        /* \"#utility.yul\":9019:9023   */\n      dup2\n        /* \"#utility.yul\":9015:9035   */\n      sub\n        /* \"#utility.yul\":9011:9012   */\n      0x00\n        /* \"#utility.yul\":9000:9009   */\n      dup4\n        /* \"#utility.yul\":8996:9013   */\n      add\n        /* \"#utility.yul\":8989:9036   */\n      mstore\n        /* \"#utility.yul\":9053:9209   */\n      tag_242\n        /* \"#utility.yul\":9204:9208   */\n      dup2\n        /* \"#utility.yul\":9195:9201   */\n      dup5\n        /* \"#utility.yul\":9053:9209   */\n      tag_124\n      jump\t// in\n    tag_242:\n        /* \"#utility.yul\":9045:9209   */\n      swap1\n      pop\n        /* \"#utility.yul\":8747:9216   */\n      swap3\n      swap2\n      pop\n      pop\n      jump\t// out\n        /* \"#utility.yul\":9222:9312   */\n    tag_125:\n        /* \"#utility.yul\":9256:9263   */\n      0x00\n        /* \"#utility.yul\":9299:9304   */\n      dup2\n        /* \"#utility.yul\":9292:9305   */\n      iszero\n        /* \"#utility.yul\":9285:9306   */\n      iszero\n        /* \"#utility.yul\":9274:9306   */\n      swap1\n      pop\n        /* \"#utility.yul\":9222:9312   */\n      swap2\n      swap1\n      pop\n      jump\t// out\n        /* \"#utility.yul\":9318:9427   */\n    tag_126:\n        /* \"#utility.yul\":9399:9420   */\n      tag_245\n        /* \"#utility.yul\":9414:9419   */\n      dup2\n        /* \"#utility.yul\":9399:9420   */\n      tag_125\n      jump\t// in\n    tag_245:\n        /* \"#utility.yul\":9394:9397   */\n      dup3\n        /* \"#utility.yul\":9387:9421   */\n      mstore\n        /* \"#utility.yul\":9318:9427   */\n      pop\n      pop\n      jump\t// out\n        /* \"#utility.yul\":9433:9643   */\n    tag_37:\n        /* \"#utility.yul\":9520:9524   */\n      0x00\n        /* \"#utility.yul\":9558:9560   */\n      0x20\n        /* \"#utility.yul\":9547:9556   */\n      dup3\n        /* \"#utility.yul\":9543:9561   */\n      add\n        /* \"#utility.yul\":9535:9561   */\n      swap1\n      pop\n        /* \"#utility.yul\":9571:9636   */\n      tag_247\n        /* \"#utility.yul\":9633:9634   */\n      0x00\n        /* \"#utility.yul\":9622:9631   */\n      dup4\n        /* \"#utility.yul\":9618:9635   */\n      add\n        /* \"#utility.yul\":9609:9615   */\n      dup5\n        /* \"#utility.yul\":9571:9636   */\n      tag_126\n      jump\t// in\n    tag_247:\n        /* \"#utility.yul\":9433:9643   */\n      swap3\n      swap2\n      pop\n      pop\n      jump\t// out\n        /* \"#utility.yul\":9649:9775   */\n    tag_127:\n        /* \"#utility.yul\":9686:9693   */\n      0x00\n        /* \"#utility.yul\":9726:9768   */\n      0xffffffffffffffffffffffffffffffffffffffff\n        /* \"#utility.yul\":9719:9724   */\n      dup3\n        /* \"#utility.yul\":9715:9769   */\n      and\n        /* \"#utility.yul\":9704:9769   */\n      swap1\n      pop\n        /* \"#utility.yul\":9649:9775   */\n      swap2\n      swap1\n      pop\n      jump\t// out\n        /* \"#utility.yul\":9781:9877   */\n    tag_128:\n        /* \"#utility.yul\":9818:9825   */\n      0x00\n        /* \"#utility.yul\":9847:9871   */\n      tag_250\n        /* \"#utility.yul\":9865:9870   */\n      dup3\n        /* \"#utility.yul\":9847:9871   */\n      tag_127\n      jump\t// in\n    tag_250:\n        /* \"#utility.yul\":9836:9871   */\n      swap1\n      pop\n        /* \"#utility.yul\":9781:9877   */\n      swap2\n      swap1\n      pop\n      jump\t// out\n        /* \"#utility.yul\":9883:10005   */\n    tag_129:\n        /* \"#utility.yul\":9956:9980   */\n      tag_252\n        /* \"#utility.yul\":9974:9979   */\n      dup2\n        /* \"#utility.yul\":9956:9980   */\n      tag_128\n      jump\t// in\n    tag_252:\n        /* \"#utility.yul\":9949:9954   */\n      dup2\n        /* \"#utility.yul\":9946:9981   */\n      eq\n        /* \"#utility.yul\":9936:9999   */\n      tag_253\n      jumpi\n        /* \"#utility.yul\":9995:9996   */\n      0x00\n        /* \"#utility.yul\":9992:9993   */\n      0x00\n        /* \"#utility.yul\":9985:9997   */\n      revert\n        /* \"#utility.yul\":9936:9999   */\n    tag_253:\n        /* \"#utility.yul\":9883:10005   */\n      pop\n      jump\t// out\n        /* \"#utility.yul\":10011:10150   */\n    tag_130:\n        /* \"#utility.yul\":10057:10062   */\n      0x00\n        /* \"#utility.yul\":10095:10101   */\n      dup2\n        /* \"#utility.yul\":10082:10102   */\n      calldataload\n        /* \"#utility.yul\":10073:10102   */\n      swap1\n      pop\n        /* \"#utility.yul\":10111:10144   */\n      tag_255\n        /* \"#utility.yul\":10138:10143   */\n      dup2\n        /* \"#utility.yul\":10111:10144   */\n      tag_129\n      jump\t// in\n    tag_255:\n        /* \"#utility.yul\":10011:10150   */\n      swap3\n      swap2\n      pop\n      pop\n      jump\t// out\n        /* \"#utility.yul\":10156:10485   */\n    tag_43:\n        /* \"#utility.yul\":10215:10221   */\n      0x00\n        /* \"#utility.yul\":10264:10266   */\n      0x20\n        /* \"#utility.yul\":10252:10261   */\n      dup3\n        /* \"#utility.yul\":10243:10250   */\n      dup5\n        /* \"#utility.yul\":10239:10262   */\n      sub\n        /* \"#utility.yul\":10235:10267   */\n      slt\n        /* \"#utility.yul\":10232:10351   */\n      iszero\n      tag_257\n      jumpi\n        /* \"#utility.yul\":10270:10349   */\n      tag_258\n      tag_95\n      jump\t// in\n    tag_258:\n        /* \"#utility.yul\":10232:10351   */\n    tag_257:\n        /* \"#utility.yul\":10390:10391   */\n      0x00\n        /* \"#utility.yul\":10415:10468   */\n      tag_259\n        /* \"#utility.yul\":10460:10467   */\n      dup5\n        /* \"#utility.yul\":10451:10457   */\n      dup3\n        /* \"#utility.yul\":10440:10449   */\n      dup6\n        /* \"#utility.yul\":10436:10458   */\n      add\n        /* \"#utility.yul\":10415:10468   */\n      tag_130\n      jump\t// in\n    tag_259:\n        /* \"#utility.yul\":10405:10468   */\n      swap2\n      pop\n        /* \"#utility.yul\":10361:10478   */\n      pop\n        /* \"#utility.yul\":10156:10485   */\n      swap3\n      swap2\n      pop\n      pop\n      jump\t// out\n        /* \"#utility.yul\":10491:10664   */\n    tag_131:\n        /* \"#utility.yul\":10631:10656   */\n      0x596f75206861766520616c726561647920766f7465642e000000000000000000\n        /* \"#utility.yul\":10627:10628   */\n      0x00\n        /* \"#utility.yul\":10619:10625   */\n      dup3\n        /* \"#utility.yul\":10615:10629   */\n      add\n        /* \"#utility.yul\":10608:10657   */\n      mstore\n        /* \"#utility.yul\":10491:10664   */\n      pop\n      jump\t// out\n        /* \"#utility.yul\":10670:11036   */\n    tag_132:\n        /* \"#utility.yul\":10812:10815   */\n      0x00\n        /* \"#utility.yul\":10833:10900   */\n      tag_262\n        /* \"#utility.yul\":10897:10899   */\n      0x17\n        /* \"#utility.yul\":10892:10895   */\n      dup4\n        /* \"#utility.yul\":10833:10900   */\n      tag_102\n      jump\t// in\n    tag_262:\n        /* \"#utility.yul\":10826:10900   */\n      swap2\n      pop\n        /* \"#utility.yul\":10909:11002   */\n      tag_263\n        /* \"#utility.yul\":10998:11001   */\n      dup3\n        /* \"#utility.yul\":10909:11002   */\n      tag_131\n      jump\t// in\n    tag_263:\n        /* \"#utility.yul\":11027:11029   */\n      0x20\n        /* \"#utility.yul\":11022:11025   */\n      dup3\n        /* \"#utility.yul\":11018:11030   */\n      add\n        /* \"#utility.yul\":11011:11030   */\n      swap1\n      pop\n        /* \"#utility.yul\":10670:11036   */\n      swap2\n      swap1\n      pop\n      jump\t// out\n        /* \"#utility.yul\":11042:11461   */\n    tag_52:\n        /* \"#utility.yul\":11208:11212   */\n      0x00\n        /* \"#utility.yul\":11246:11248   */\n      0x20\n        /* \"#utility.yul\":11235:11244   */\n      dup3\n        /* \"#utility.yul\":11231:11249   */\n      add\n        /* \"#utility.yul\":11223:11249   */\n      swap1\n      pop\n        /* \"#utility.yul\":11295:11304   */\n      dup2\n        /* \"#utility.yul\":11289:11293   */\n      dup2\n        /* \"#utility.yul\":11285:11305   */\n      sub\n        /* \"#utility.yul\":11281:11282   */\n      0x00\n        /* \"#utility.yul\":11270:11279   */\n      dup4\n        /* \"#utility.yul\":11266:11283   */\n      add\n        /* \"#utility.yul\":11259:11306   */\n      mstore\n        /* \"#utility.yul\":11323:11454   */\n      tag_265\n        /* \"#utility.yul\":11449:11453   */\n      dup2\n        /* \"#utility.yul\":11323:11454   */\n      tag_132\n      jump\t// in\n    tag_265:\n        /* \"#utility.yul\":11315:11454   */\n      swap1\n      pop\n        /* \"#utility.yul\":11042:11461   */\n      swap2\n      swap1\n      pop\n      jump\t// out\n        /* \"#utility.yul\":11467:11641   */\n    tag_133:\n        /* \"#utility.yul\":11607:11633   */\n      0x496e76616c69642063616e64696461746520696e6465782e0000000000000000\n        /* \"#utility.yul\":11603:11604   */\n      0x00\n        /* \"#utility.yul\":11595:11601   */\n      dup3\n        /* \"#utility.yul\":11591:11605   */\n      add\n        /* \"#utility.yul\":11584:11634   */\n      mstore\n        /* \"#utility.yul\":11467:11641   */\n      pop\n      jump\t// out\n        /* \"#utility.yul\":11647:12013   */\n    tag_134:\n        /* \"#utility.yul\":11789:11792   */\n      0x00\n        /* \"#utility.yul\":11810:11877   */\n      tag_268\n        /* \"#utility.yul\":11874:11876   */\n      0x18\n        /* \"#utility.yul\":11869:11872   */\n      dup4\n        /* \"#utility.yul\":11810:11877   */\n      tag_102\n      jump\t// in\n    tag_268:\n        /* \"#utility.yul\":11803:11877   */\n      swap2\n      pop\n        /* \"#utility.yul\":11886:11979   */\n      tag_269\n        /* \"#utility.yul\":11975:11978   */\n      dup3\n        /* \"#utility.yul\":11886:11979   */\n      tag_133\n      jump\t// in\n    tag_269:\n        /* \"#utility.yul\":12004:12006   */\n      0x20\n        /* \"#utility.yul\":11999:12002   */\n      dup3\n        /* \"#utility.yul\":11995:12007   */\n      add\n        /* \"#utility.yul\":11988:12007   */\n      swap1\n      pop\n        /* \"#utility.yul\":11647:12013   */\n      swap2\n      swap1\n      pop\n      jump\t// out\n        /* \"#utility.yul\":12019:12438   */\n    tag_55:\n        /* \"#utility.yul\":12185:12189   */\n      0x00\n        /* \"#utility.yul\":12223:12225   */\n      0x20\n        /* \"#utility.yul\":12212:12221   */\n      dup3\n        /* \"#utility.yul\":12208:12226   */\n      add\n        /* \"#utility.yul\":12200:12226   */\n      swap1\n      pop\n        /* \"#utility.yul\":12272:12281   */\n      dup2\n        /* \"#utility.yul\":12266:12270   */\n      dup2\n        /* \"#utility.yul\":12262:12282   */\n      sub\n        /* \"#utility.yul\":12258:12259   */\n      0x00\n        /* \"#utility.yul\":12247:12256   */\n      dup4\n        /* \"#utility.yul\":12243:12260   */\n      add\n        /* \"#utility.yul\":12236:12283   */\n      mstore\n        /* \"#utility.yul\":12300:12431   */\n      tag_271\n        /* \"#utility.yul\":12426:12430   */\n      dup2\n        /* \"#utility.yul\":12300:12431   */\n      tag_134\n      jump\t// in\n    tag_271:\n        /* \"#utility.yul\":12292:12431   */\n      swap1\n      pop\n        /* \"#utility.yul\":12019:12438   */\n      swap2\n      swap1\n      pop\n      jump\t// out\n        /* \"#utility.yul\":12444:12624   */\n    tag_58:\n        /* \"#utility.yul\":12492:12569   */\n      0x4e487b7100000000000000000000000000000000000000000000000000000000\n        /* \"#utility.yul\":12489:12490   */\n      0x00\n        /* \"#utility.yul\":12482:12570   */\n      mstore\n        /* \"#utility.yul\":12589:12593   */\n      0x32\n        /* \"#utility.yul\":12586:12587   */\n      0x04\n        /* \"#utility.yul\":12579:12594   */\n      mstore\n        /* \"#utility.yul\":12613:12617   */\n      0x24\n        /* \"#utility.yul\":12610:12611   */\n      0x00\n        /* \"#utility.yul\":12603:12618   */\n      revert\n        /* \"#utility.yul\":12630:12810   */\n    tag_135:\n        /* \"#utility.yul\":12678:12755   */\n      0x4e487b7100000000000000000000000000000000000000000000000000000000\n        /* \"#utility.yul\":12675:12676   */\n      0x00\n        /* \"#utility.yul\":12668:12756   */\n      mstore\n        /* \"#utility.yul\":12775:12779   */\n      0x11\n        /* \"#utility.yul\":12772:12773   */\n      0x04\n        /* \"#utility.yul\":12765:12780   */\n      mstore\n        /* \"#utility.yul\":12799:12803   */\n      0x24\n        /* \"#utility.yul\":12796:12797   */\n      0x00\n        /* \"#utility.yul\":12789:12804   */\n      revert\n        /* \"#utility.yul\":12816:13049   */\n    tag_61:\n        /* \"#utility.yul\":12855:12858   */\n      0x00\n        /* \"#utility.yul\":12878:12902   */\n      tag_275\n        /* \"#utility.yul\":12896:12901   */\n      dup3\n        /* \"#utility.yul\":12878:12902   */\n      tag_97\n      jump\t// in\n    tag_275:\n        /* \"#utility.yul\":12869:12902   */\n      swap2\n      pop\n        /* \"#utility.yul\":12924:12990   */\n      0xffffffffffffffffffffffffffffffffffffffffffffffffffffffffffffffff\n        /* \"#utility.yul\":12917:12922   */\n      dup3\n        /* \"#utility.yul\":12914:12991   */\n      sub\n        /* \"#utility.yul\":12911:13014   */\n      tag_276\n      jumpi\n        /* \"#utility.yul\":12994:13012   */\n      tag_277\n      tag_135\n      jump\t// in\n    tag_277:\n        /* \"#utility.yul\":12911:13014   */\n    tag_276:\n        /* \"#utility.yul\":13041:13042   */\n      0x01\n        /* \"#utility.yul\":13034:13039   */\n      dup3\n        /* \"#utility.yul\":13030:13043   */\n      add\n        /* \"#utility.yul\":13023:13043   */\n      swap1\n      pop\n        /* \"#utility.yul\":12816:13049   */\n      swap2\n      swap1\n      pop\n      jump\t// out\n        /* \"#utility.yul\":13055:13235   */\n    tag_136:\n        /* \"#utility.yul\":13103:13180   */\n      0x4e487b7100000000000000000000000000000000000000000000000000000000\n        /* \"#utility.yul\":13100:13101   */\n      0x00\n        /* \"#utility.yul\":13093:13181   */\n      mstore\n        /* \"#utility.yul\":13200:13204   */\n      0x22\n        /* \"#utility.yul\":13197:13198   */\n      0x04\n        /* \"#utility.yul\":13190:13205   */\n      mstore\n        /* \"#utility.yul\":13224:13228   */\n      0x24\n        /* \"#utility.yul\":13221:13222   */\n      0x00\n        /* \"#utility.yul\":13214:13229   */\n      revert\n        /* \"#utility.yul\":13241:13561   */\n    tag_65:\n        /* \"#utility.yul\":13285:13291   */\n      0x00\n        /* \"#utility.yul\":13322:13323   */\n      0x02\n        /* \"#utility.yul\":13316:13320   */\n      dup3\n        /* \"#utility.yul\":13312:13324   */\n      div\n        /* \"#utility.yul\":13302:13324   */\n      swap1\n      pop\n        /* \"#utility.yul\":13369:13370   */\n      0x01\n        /* \"#utility.yul\":13363:13367   */\n      dup3\n        /* \"#utility.yul\":13359:13371   */\n      and\n        /* \"#utility.yul\":13390:13408   */\n      dup1\n        /* \"#utility.yul\":13380:13461   */\n      tag_280\n      jumpi\n        /* \"#utility.yul\":13446:13450   */\n      0x7f\n        /* \"#utility.yul\":13438:13444   */\n      dup3\n        /* \"#utility.yul\":13434:13451   */\n      and\n        /* \"#utility.yul\":13424:13451   */\n      swap2\n      pop\n        /* \"#utility.yul\":13380:13461   */\n    tag_280:\n        /* \"#utility.yul\":13508:13510   */\n      0x20\n        /* \"#utility.yul\":13500:13506   */\n      dup3\n        /* \"#utility.yul\":13497:13511   */\n      lt\n        /* \"#utility.yul\":13477:13495   */\n      dup2\n        /* \"#utility.yul\":13474:13512   */\n      sub\n        /* \"#utility.yul\":13471:13555   */\n      tag_281\n      jumpi\n        /* \"#utility.yul\":13527:13545   */\n      tag_282\n      tag_136\n      jump\t// in\n    tag_282:\n        /* \"#utility.yul\":13471:13555   */\n    tag_281:\n        /* \"#utility.yul\":13292:13561   */\n      pop\n        /* \"#utility.yul\":13241:13561   */\n      swap2\n      swap1\n      pop\n      jump\t// out\n        /* \"#utility.yul\":13567:13708   */\n    tag_137:\n        /* \"#utility.yul\":13616:13620   */\n      0x00\n        /* \"#utility.yul\":13639:13642   */\n      dup2\n        /* \"#utility.yul\":13631:13642   */\n      swap1\n      pop\n        /* \"#utility.yul\":13662:13665   */\n      dup2\n        /* \"#utility.yul\":13659:13660   */\n      0x00\n        /* \"#utility.yul\":13652:13666   */\n      mstore\n        /* \"#utility.yul\":13696:13700   */\n      0x20\n        /* \"#utility.yul\":13693:13694   */\n      0x00\n        /* \"#utility.yul\":13683:13701   */\n      keccak256\n        /* \"#utility.yul\":13675:13701   */\n      swap1\n      pop\n        /* \"#utility.yul\":13567:13708   */\n      swap2\n      swap1\n      pop\n      jump\t// out\n        /* \"#utility.yul\":13714:13807   */\n    tag_138:\n        /* \"#utility.yul\":13751:13757   */\n      0x00\n        /* \"#utility.yul\":13798:13800   */\n      0x20\n        /* \"#utility.yul\":13793:13795   */\n      0x1f\n        /* \"#utility.yul\":13786:13791   */\n      dup4\n        /* \"#utility.yul\":13782:13796   */\n      add\n        /* \"#utility.yul\":13778:13801   */\n      div\n        /* \"#utility.yul\":13768:13801   */\n      swap1\n      pop\n        /* \"#utility.yul\":13714:13807   */\n      swap2\n      swap1\n      pop\n      jump\t// out\n        /* \"#utility.yul\":13813:13920   */\n    tag_139:\n        /* \"#utility.yul\":13857:13865   */\n      0x00\n        /* \"#utility.yul\":13907:13912   */\n      dup3\n        /* \"#utility.yul\":13901:13905   */\n      dup3\n        /* \"#utility.yul\":13897:13913   */\n      shl\n        /* \"#utility.yul\":13876:13913   */\n      swap1\n      pop\n        /* \"#utility.yul\":13813:13920   */\n      swap3\n      swap2\n      pop\n      pop\n      jump\t// out\n        /* \"#utility.yul\":13926:14319   */\n    tag_140:\n        /* \"#utility.yul\":13995:14001   */\n      0x00\n        /* \"#utility.yul\":14045:14046   */\n      0x08\n        /* \"#utility.yul\":14033:14043   */\n      dup4\n        /* \"#utility.yul\":14029:14047   */\n      mul\n        /* \"#utility.yul\":14068:14165   */\n      tag_287\n        /* \"#utility.yul\":14098:14164   */\n      0xffffffffffffffffffffffffffffffffffffffffffffffffffffffffffffffff\n        /* \"#utility.yul\":14087:14096   */\n      dup3\n        /* \"#utility.yul\":14068:14165   */\n      tag_139\n      jump\t// in\n    tag_287:\n        /* \"#utility.yul\":14186:14225   */\n      tag_288\n        /* \"#utility.yul\":14216:14224   */\n      dup7\n        /* \"#utility.yul\":14205:14214   */\n      dup4\n        /* \"#utility.yul\":14186:14225   */\n      tag_139\n      jump\t// in\n    tag_288:\n        /* \"#utility.yul\":14174:14225   */\n      swap6\n      pop\n        /* \"#utility.yul\":14258:14262   */\n      dup1\n        /* \"#utility.yul\":14254:14263   */\n      not\n        /* \"#utility.yul\":14247:14252   */\n      dup5\n        /* \"#utility.yul\":14243:14264   */\n      and\n        /* \"#utility.yul\":14234:14264   */\n      swap4\n      pop\n        /* \"#utility.yul\":14307:14311   */\n      dup1\n        /* \"#utility.yul\":14297:14305   */\n      dup7\n        /* \"#utility.yul\":14293:14312   */\n      and\n        /* \"#utility.yul\":14286:14291   */\n      dup5\n        /* \"#utility.yul\":14283:14313   */\n      or\n        /* \"#utility.yul\":14273:14313   */\n      swap3\n      pop\n        /* \"#utility.yul\":14002:14319   */\n      pop\n      pop\n        /* \"#utility.yul\":13926:14319   */\n      swap4\n      swap3\n      pop\n      pop\n      pop\n      jump\t// out\n        /* \"#utility.yul\":14325:14385   */\n    tag_141:\n        /* \"#utility.yul\":14353:14356   */\n      0x00\n        /* \"#utility.yul\":14374:14379   */\n      dup2\n        /* \"#utility.yul\":14367:14379   */\n      swap1\n      pop\n        /* \"#utility.yul\":14325:14385   */\n      swap2\n      swap1\n      pop\n      jump\t// out\n        /* \"#utility.yul\":14391:14533   */\n    tag_142:\n        /* \"#utility.yul\":14441:14450   */\n      0x00\n        /* \"#utility.yul\":14474:14527   */\n      tag_291\n        /* \"#utility.yul\":14492:14526   */\n      tag_292\n        /* \"#utility.yul\":14501:14525   */\n      tag_293\n        /* \"#utility.yul\":14519:14524   */\n      dup5\n        /* \"#utility.yul\":14501:14525   */\n      tag_97\n      jump\t// in\n    tag_293:\n        /* \"#utility.yul\":14492:14526   */\n      tag_141\n      jump\t// in\n    tag_292:\n        /* \"#utility.yul\":14474:14527   */\n      tag_97\n      jump\t// in\n    tag_291:\n        /* \"#utility.yul\":14461:14527   */\n      swap1\n      pop\n        /* \"#utility.yul\":14391:14533   */\n      swap2\n      swap1\n      pop\n      jump\t// out\n        /* \"#utility.yul\":14539:14614   */\n    tag_143:\n        /* \"#utility.yul\":14582:14585   */\n      0x00\n        /* \"#utility.yul\":14603:14608   */\n      dup2\n        /* \"#utility.yul\":14596:14608   */\n      swap1\n      pop\n        /* \"#utility.yul\":14539:14614   */\n      swap2\n      swap1\n      pop\n      jump\t// out\n        /* \"#utility.yul\":14620:14889   */\n    tag_144:\n        /* \"#utility.yul\":14730:14769   */\n      tag_296\n        /* \"#utility.yul\":14761:14768   */\n      dup4\n        /* \"#utility.yul\":14730:14769   */\n      tag_142\n      jump\t// in\n    tag_296:\n        /* \"#utility.yul\":14791:14882   */\n      tag_297\n        /* \"#utility.yul\":14840:14881   */\n      tag_298\n        /* \"#utility.yul\":14864:14880   */\n      dup3\n        /* \"#utility.yul\":14840:14881   */\n      tag_143\n      jump\t// in\n    tag_298:\n        /* \"#utility.yul\":14832:14838   */\n      dup5\n        /* \"#utility.yul\":14825:14829   */\n      dup5\n        /* \"#utility.yul\":14819:14830   */\n      sload\n        /* \"#utility.yul\":14791:14882   */\n      tag_140\n      jump\t// in\n    tag_297:\n        /* \"#utility.yul\":14785:14789   */\n      dup3\n        /* \"#utility.yul\":14778:14883   */\n      sstore\n        /* \"#utility.yul\":14696:14889   */\n      pop\n        /* \"#utility.yul\":14620:14889   */\n      pop\n      pop\n      pop\n      jump\t// out\n        /* \"#utility.yul\":14895:14968   */\n    tag_145:\n        /* \"#utility.yul\":14940:14943   */\n      0x00\n        /* \"#utility.yul\":14961:14962   */\n      0x00\n        /* \"#utility.yul\":14954:14962   */\n      swap1\n      pop\n        /* \"#utility.yul\":14895:14968   */\n      swap1\n      jump\t// out\n        /* \"#utility.yul\":14974:15163   */\n    tag_146:\n        /* \"#utility.yul\":15051:15083   */\n      tag_301\n      tag_145\n      jump\t// in\n    tag_301:\n        /* \"#utility.yul\":15092:15157   */\n      tag_302\n        /* \"#utility.yul\":15150:15156   */\n      dup2\n        /* \"#utility.yul\":15142:15148   */\n      dup5\n        /* \"#utility.yul\":15136:15140   */\n      dup5\n        /* \"#utility.yul\":15092:15157   */\n      tag_144\n      jump\t// in\n    tag_302:\n        /* \"#utility.yul\":15027:15163   */\n      pop\n        /* \"#utility.yul\":14974:15163   */\n      pop\n      pop\n      jump\t// out\n        /* \"#utility.yul\":15169:15355   */\n    tag_147:\n        /* \"#utility.yul\":15229:15349   */\n    tag_304:\n        /* \"#utility.yul\":15246:15249   */\n      dup2\n        /* \"#utility.yul\":15239:15244   */\n      dup2\n        /* \"#utility.yul\":15236:15250   */\n      lt\n        /* \"#utility.yul\":15229:15349   */\n      iszero\n      tag_306\n      jumpi\n        /* \"#utility.yul\":15300:15339   */\n      tag_307\n        /* \"#utility.yul\":15337:15338   */\n      0x00\n        /* \"#utility.yul\":15330:15335   */\n      dup3\n        /* \"#utility.yul\":15300:15339   */\n      tag_146\n      jump\t// in\n    tag_307:\n        /* \"#utility.yul\":15273:15274   */\n      0x01\n        /* \"#utility.yul\":15266:15271   */\n      dup2\n        /* \"#utility.yul\":15262:15275   */\n      add\n        /* \"#utility.yul\":15253:15275   */\n      swap1\n      pop\n        /* \"#utility.yul\":15229:15349   */\n      jump(tag_304)\n    tag_306:\n        /* \"#utility.yul\":15169:15355   */\n      pop\n      pop\n      jump\t// out\n        /* \"#utility.yul\":15361:15904   */\n    tag_148:\n        /* \"#utility.yul\":15462:15464   */\n      0x1f\n        /* \"#utility.yul\":15457:15460   */\n      dup3\n        /* \"#utility.yul\":15454:15465   */\n      gt\n        /* \"#utility.yul\":15451:15897   */\n      iszero\n      tag_309\n      jumpi\n        /* \"#utility.yul\":15496:15534   */\n      tag_310\n        /* \"#utility.yul\":15528:15533   */\n      dup2\n        /* \"#utility.yul\":15496:15534   */\n      tag_137\n      jump\t// in\n    tag_310:\n        /* \"#utility.yul\":15580:15609   */\n      tag_311\n        /* \"#utility.yul\":15598:15608   */\n      dup5\n        /* \"#utility.yul\":15580:15609   */\n      tag_138\n      jump\t// in\n    tag_311:\n        /* \"#utility.yul\":15570:15578   */\n      dup2\n        /* \"#utility.yul\":15566:15610   */\n      add\n        /* \"#utility.yul\":15763:15765   */\n      0x20\n        /* \"#utility.yul\":15751:15761   */\n      dup6\n        /* \"#utility.yul\":15748:15766   */\n      lt\n        /* \"#utility.yul\":15745:15794   */\n      iszero\n      tag_312\n      jumpi\n        /* \"#utility.yul\":15784:15792   */\n      dup2\n        /* \"#utility.yul\":15769:15792   */\n      swap1\n      pop\n        /* \"#utility.yul\":15745:15794   */\n    tag_312:\n        /* \"#utility.yul\":15807:15887   */\n      tag_313\n        /* \"#utility.yul\":15863:15885   */\n      tag_314\n        /* \"#utility.yul\":15881:15884   */\n      dup6\n        /* \"#utility.yul\":15863:15885   */\n      tag_138\n      jump\t// in\n    tag_314:\n        /* \"#utility.yul\":15853:15861   */\n      dup4\n        /* \"#utility.yul\":15849:15886   */\n      add\n        /* \"#utility.yul\":15836:15847   */\n      dup3\n        /* \"#utility.yul\":15807:15887   */\n      tag_147\n      jump\t// in\n    tag_313:\n        /* \"#utility.yul\":15466:15897   */\n      pop\n      pop\n        /* \"#utility.yul\":15451:15897   */\n    tag_309:\n        /* \"#utility.yul\":15361:15904   */\n      pop\n      pop\n      pop\n      jump\t// out\n        /* \"#utility.yul\":15910:16027   */\n    tag_149:\n        /* \"#utility.yul\":15964:15972   */\n      0x00\n        /* \"#utility.yul\":16014:16019   */\n      dup3\n        /* \"#utility.yul\":16008:16012   */\n      dup3\n        /* \"#utility.yul\":16004:16020   */\n      shr\n        /* \"#utility.yul\":15983:16020   */\n      swap1\n      pop\n        /* \"#utility.yul\":15910:16027   */\n      swap3\n      swap2\n      pop\n      pop\n      jump\t// out\n        /* \"#utility.yul\":16033:16202   */\n    tag_150:\n        /* \"#utility.yul\":16077:16083   */\n      0x00\n        /* \"#utility.yul\":16110:16161   */\n      tag_317\n        /* \"#utility.yul\":16158:16159   */\n      0x00\n        /* \"#utility.yul\":16154:16160   */\n      not\n        /* \"#utility.yul\":16146:16151   */\n      dup5\n        /* \"#utility.yul\":16143:16144   */\n      0x08\n        /* \"#utility.yul\":16139:16152   */\n      mul\n        /* \"#utility.yul\":16110:16161   */\n      tag_149\n      jump\t// in\n    tag_317:\n        /* \"#utility.yul\":16106:16162   */\n      not\n        /* \"#utility.yul\":16191:16195   */\n      dup1\n        /* \"#utility.yul\":16185:16189   */\n      dup4\n        /* \"#utility.yul\":16181:16196   */\n      and\n        /* \"#utility.yul\":16171:16196   */\n      swap2\n      pop\n        /* \"#utility.yul\":16084:16202   */\n      pop\n        /* \"#utility.yul\":16033:16202   */\n      swap3\n      swap2\n      pop\n      pop\n      jump\t// out\n        /* \"#utility.yul\":16207:16502   */\n    tag_151:\n        /* \"#utility.yul\":16283:16287   */\n      0x00\n        /* \"#utility.yul\":16429:16458   */\n      tag_319\n        /* \"#utility.yul\":16454:16457   */\n      dup4\n        /* \"#utility.yul\":16448:16452   */\n      dup4\n        /* \"#utility.yul\":16429:16458   */\n      tag_150\n      jump\t// in\n    tag_319:\n        /* \"#utility.yul\":16421:16458   */\n      swap2\n      pop\n        /* \"#utility.yul\":16491:16494   */\n      dup3\n        /* \"#utility.yul\":16488:16489   */\n      0x02\n        /* \"#utility.yul\":16484:16495   */\n      mul\n        /* \"#utility.yul\":16478:16482   */\n      dup3\n        /* \"#utility.yul\":16475:16496   */\n      or\n        /* \"#utility.yul\":16467:16496   */\n      swap1\n      pop\n        /* \"#utility.yul\":16207:16502   */\n      swap3\n      swap2\n      pop\n      pop\n      jump\t// out\n        /* \"#utility.yul\":16507:17902   */\n    tag_75:\n        /* \"#utility.yul\":16624:16661   */\n      tag_321\n        /* \"#utility.yul\":16657:16660   */\n      dup3\n        /* \"#utility.yul\":16624:16661   */\n      tag_101\n      jump\t// in\n    tag_321:\n        /* \"#utility.yul\":16726:16744   */\n      0xffffffffffffffff\n        /* \"#utility.yul\":16718:16724   */\n      dup2\n        /* \"#utility.yul\":16715:16745   */\n      gt\n        /* \"#utility.yul\":16712:16768   */\n      iszero\n      tag_322\n      jumpi\n        /* \"#utility.yul\":16748:16766   */\n      tag_323\n      tag_108\n      jump\t// in\n    tag_323:\n        /* \"#utility.yul\":16712:16768   */\n    tag_322:\n        /* \"#utility.yul\":16792:16830   */\n      tag_324\n        /* \"#utility.yul\":16824:16828   */\n      dup3\n        /* \"#utility.yul\":16818:16829   */\n      sload\n        /* \"#utility.yul\":16792:16830   */\n      tag_65\n      jump\t// in\n    tag_324:\n        /* \"#utility.yul\":16877:16944   */\n      tag_325\n        /* \"#utility.yul\":16937:16943   */\n      dup3\n        /* \"#utility.yul\":16929:16935   */\n      dup3\n        /* \"#utility.yul\":16923:16927   */\n      dup6\n        /* \"#utility.yul\":16877:16944   */\n      tag_148\n      jump\t// in\n    tag_325:\n        /* \"#utility.yul\":16971:16972   */\n      0x00\n        /* \"#utility.yul\":16995:16999   */\n      0x20\n        /* \"#utility.yul\":16982:16999   */\n      swap1\n      pop\n        /* \"#utility.yul\":17027:17029   */\n      0x1f\n        /* \"#utility.yul\":17019:17025   */\n      dup4\n        /* \"#utility.yul\":17016:17030   */\n      gt\n        /* \"#utility.yul\":17044:17045   */\n      0x01\n        /* \"#utility.yul\":17039:17657   */\n      dup2\n      eq\n      tag_327\n      jumpi\n        /* \"#utility.yul\":17701:17702   */\n      0x00\n        /* \"#utility.yul\":17718:17724   */\n      dup5\n        /* \"#utility.yul\":17715:17792   */\n      iszero\n      tag_328\n      jumpi\n        /* \"#utility.yul\":17767:17776   */\n      dup3\n        /* \"#utility.yul\":17762:17765   */\n      dup8\n        /* \"#utility.yul\":17758:17777   */\n      add\n        /* \"#utility.yul\":17752:17778   */\n      mload\n        /* \"#utility.yul\":17743:17778   */\n      swap1\n      pop\n        /* \"#utility.yul\":17715:17792   */\n    tag_328:\n        /* \"#utility.yul\":17818:17885   */\n      tag_329\n        /* \"#utility.yul\":17878:17884   */\n      dup6\n        /* \"#utility.yul\":17871:17876   */\n      dup3\n        /* \"#utility.yul\":17818:17885   */\n      tag_151\n      jump\t// in\n    tag_329:\n        /* \"#utility.yul\":17812:17816   */\n      dup7\n        /* \"#utility.yul\":17805:17886   */\n      sstore\n        /* \"#utility.yul\":17674:17896   */\n      pop\n        /* \"#utility.yul\":17009:17896   */\n      jump(tag_326)\n        /* \"#utility.yul\":17039:17657   */\n    tag_327:\n        /* \"#utility.yul\":17091:17095   */\n      0x1f\n        /* \"#utility.yul\":17087:17096   */\n      not\n        /* \"#utility.yul\":17079:17085   */\n      dup5\n        /* \"#utility.yul\":17075:17097   */\n      and\n        /* \"#utility.yul\":17125:17162   */\n      tag_330\n        /* \"#utility.yul\":17157:17161   */\n      dup7\n        /* \"#utility.yul\":17125:17162   */\n      tag_137\n      jump\t// in\n    tag_330:\n        /* \"#utility.yul\":17184:17185   */\n      0x00\n        /* \"#utility.yul\":17198:17406   */\n    tag_331:\n        /* \"#utility.yul\":17212:17219   */\n      dup3\n        /* \"#utility.yul\":17209:17210   */\n      dup2\n        /* \"#utility.yul\":17206:17220   */\n      lt\n        /* \"#utility.yul\":17198:17406   */\n      iszero\n      tag_333\n      jumpi\n        /* \"#utility.yul\":17291:17300   */\n      dup5\n        /* \"#utility.yul\":17286:17289   */\n      dup10\n        /* \"#utility.yul\":17282:17301   */\n      add\n        /* \"#utility.yul\":17276:17302   */\n      mload\n        /* \"#utility.yul\":17268:17274   */\n      dup3\n        /* \"#utility.yul\":17261:17303   */\n      sstore\n        /* \"#utility.yul\":17342:17343   */\n      0x01\n        /* \"#utility.yul\":17334:17340   */\n      dup3\n        /* \"#utility.yul\":17330:17344   */\n      add\n        /* \"#utility.yul\":17320:17344   */\n      swap2\n      pop\n        /* \"#utility.yul\":17389:17391   */\n      0x20\n        /* \"#utility.yul\":17378:17387   */\n      dup6\n        /* \"#utility.yul\":17374:17392   */\n      add\n        /* \"#utility.yul\":17361:17392   */\n      swap5\n      pop\n        /* \"#utility.yul\":17235:17239   */\n      0x20\n        /* \"#utility.yul\":17232:17233   */\n      dup2\n        /* \"#utility.yul\":17228:17240   */\n      add\n        /* \"#utility.yul\":17223:17240   */\n      swap1\n      pop\n        /* \"#utility.yul\":17198:17406   */\n      jump(tag_331)\n    tag_333:\n        /* \"#utility.yul\":17434:17440   */\n      dup7\n        /* \"#utility.yul\":17425:17432   */\n      dup4\n        /* \"#utility.yul\":17422:17441   */\n      lt\n        /* \"#utility.yul\":17419:17598   */\n      iszero\n      tag_334\n      jumpi\n        /* \"#utility.yul\":17492:17501   */\n      dup5\n        /* \"#utility.yul\":17487:17490   */\n      dup10\n        /* \"#utility.yul\":17483:17502   */\n      add\n        /* \"#utility.yul\":17477:17503   */\n      mload\n        /* \"#utility.yul\":17535:17583   */\n      tag_335\n        /* \"#utility.yul\":17577:17581   */\n      0x1f\n        /* \"#utility.yul\":17569:17575   */\n      dup10\n        /* \"#utility.yul\":17565:17582   */\n      and\n        /* \"#utility.yul\":17554:17563   */\n      dup3\n        /* \"#utility.yul\":17535:17583   */\n      tag_150\n      jump\t// in\n    tag_335:\n        /* \"#utility.yul\":17527:17533   */\n      dup4\n        /* \"#utility.yul\":17520:17584   */\n      sstore\n        /* \"#utility.yul\":17442:17598   */\n      pop\n        /* \"#utility.yul\":17419:17598   */\n    tag_334:\n        /* \"#utility.yul\":17644:17645   */\n      0x01\n        /* \"#utility.yul\":17640:17641   */\n      0x02\n        /* \"#utility.yul\":17632:17638   */\n      dup9\n        /* \"#utility.yul\":17628:17642   */\n      mul\n        /* \"#utility.yul\":17624:17646   */\n      add\n        /* \"#utility.yul\":17618:17622   */\n      dup9\n        /* \"#utility.yul\":17611:17647   */\n      sstore\n        /* \"#utility.yul\":17046:17657   */\n      pop\n      pop\n      pop\n        /* \"#utility.yul\":17009:17896   */\n    tag_326:\n      pop\n        /* \"#utility.yul\":16599:17902   */\n      pop\n      pop\n      pop\n        /* \"#utility.yul\":16507:17902   */\n      pop\n      pop\n      jump\t// out\n        /* \"#utility.yul\":17908:18085   */\n    tag_152:\n        /* \"#utility.yul\":18048:18077   */\n      0x566f74696e6720686173206e6f742073746172746564207965742e0000000000\n        /* \"#utility.yul\":18044:18045   */\n      0x00\n        /* \"#utility.yul\":18036:18042   */\n      dup3\n        /* \"#utility.yul\":18032:18046   */\n      add\n        /* \"#utility.yul\":18025:18078   */\n      mstore\n        /* \"#utility.yul\":17908:18085   */\n      pop\n      jump\t// out\n        /* \"#utility.yul\":18091:18457   */\n    tag_153:\n        /* \"#utility.yul\":18233:18236   */\n      0x00\n        /* \"#utility.yul\":18254:18321   */\n      tag_338\n        /* \"#utility.yul\":18318:18320   */\n      0x1b\n        /* \"#utility.yul\":18313:18316   */\n      dup4\n        /* \"#utility.yul\":18254:18321   */\n      tag_102\n      jump\t// in\n    tag_338:\n        /* \"#utility.yul\":18247:18321   */\n      swap2\n      pop\n        /* \"#utility.yul\":18330:18423   */\n      tag_339\n        /* \"#utility.yul\":18419:18422   */\n      dup3\n        /* \"#utility.yul\":18330:18423   */\n      tag_152\n      jump\t// in\n    tag_339:\n        /* \"#utility.yul\":18448:18450   */\n      0x20\n        /* \"#utility.yul\":18443:18446   */\n      dup3\n        /* \"#utility.yul\":18439:18451   */\n      add\n        /* \"#utility.yul\":18432:18451   */\n      swap1\n      pop\n        /* \"#utility.yul\":18091:18457   */\n      swap2\n      swap1\n      pop\n      jump\t// out\n        /* \"#utility.yul\":18463:18882   */\n    tag_90:\n        /* \"#utility.yul\":18629:18633   */\n      0x00\n        /* \"#utility.yul\":18667:18669   */\n      0x20\n        /* \"#utility.yul\":18656:18665   */\n      dup3\n        /* \"#utility.yul\":18652:18670   */\n      add\n        /* \"#utility.yul\":18644:18670   */\n      swap1\n      pop\n        /* \"#utility.yul\":18716:18725   */\n      dup2\n        /* \"#utility.yul\":18710:18714   */\n      dup2\n        /* \"#utility.yul\":18706:18726   */\n      sub\n        /* \"#utility.yul\":18702:18703   */\n      0x00\n        /* \"#utility.yul\":18691:18700   */\n      dup4\n        /* \"#utility.yul\":18687:18704   */\n      add\n        /* \"#utility.yul\":18680:18727   */\n      mstore\n        /* \"#utility.yul\":18744:18875   */\n      tag_341\n        /* \"#utility.yul\":18870:18874   */\n      dup2\n        /* \"#utility.yul\":18744:18875   */\n      tag_153\n      jump\t// in\n    tag_341:\n        /* \"#utility.yul\":18736:18875   */\n      swap1\n      pop\n        /* \"#utility.yul\":18463:18882   */\n      swap2\n      swap1\n      pop\n      jump\t// out\n        /* \"#utility.yul\":18888:19082   */\n    tag_93:\n        /* \"#utility.yul\":18928:18932   */\n      0x00\n        /* \"#utility.yul\":18948:18968   */\n      tag_343\n        /* \"#utility.yul\":18966:18967   */\n      dup3\n        /* \"#utility.yul\":18948:18968   */\n      tag_97\n      jump\t// in\n    tag_343:\n        /* \"#utility.yul\":18943:18968   */\n      swap2\n      pop\n        /* \"#utility.yul\":18982:19002   */\n      tag_344\n        /* \"#utility.yul\":19000:19001   */\n      dup4\n        /* \"#utility.yul\":18982:19002   */\n      tag_97\n      jump\t// in\n    tag_344:\n        /* \"#utility.yul\":18977:19002   */\n      swap3\n      pop\n        /* \"#utility.yul\":19026:19027   */\n      dup3\n        /* \"#utility.yul\":19023:19024   */\n      dup3\n        /* \"#utility.yul\":19019:19028   */\n      sub\n        /* \"#utility.yul\":19011:19028   */\n      swap1\n      pop\n        /* \"#utility.yul\":19050:19051   */\n      dup2\n        /* \"#utility.yul\":19044:19048   */\n      dup2\n        /* \"#utility.yul\":19041:19052   */\n      gt\n        /* \"#utility.yul\":19038:19075   */\n      iszero\n      tag_345\n      jumpi\n        /* \"#utility.yul\":19055:19073   */\n      tag_346\n      tag_135\n      jump\t// in\n    tag_346:\n        /* \"#utility.yul\":19038:19075   */\n    tag_345:\n        /* \"#utility.yul\":18888:19082   */\n      swap3\n      swap2\n      pop\n      pop\n      jump\t// out\n\n    auxdata: 0xa2646970667358221220d54a0ffca28280ffa2d30c469288586f045fb4b1789e79f72ad38de39e98f05564736f6c634300081e0033\n}\n",
				"bytecode": {
					"linkReferences": {},
					"object": "608060405234801561000f575f5ffd5b506040516117a53803806117a583398181016040528101906100319190610391565b5f5f90505b82518110156100c2575f604051806040016040528085848151811061005e5761005d6103eb565b5b602002602001015181526020015f815250908060018154018082558091505060019003905f5260205f2090600202015f909190919091505f820151815f0190816100a8919061061f565b506020820151816001015550508080600101915050610036565b503360015f6101000a81548173ffffffffffffffffffffffffffffffffffffffff021916908373ffffffffffffffffffffffffffffffffffffffff16021790555042600381905550603c81610117919061071b565b42610122919061075c565b600481905550505061078f565b5f604051905090565b5f5ffd5b5f5ffd5b5f5ffd5b5f601f19601f8301169050919050565b7f4e487b71000000000000000000000000000000000000000000000000000000005f52604160045260245ffd5b61018a82610144565b810181811067ffffffffffffffff821117156101a9576101a8610154565b5b80604052505050565b5f6101bb61012f565b90506101c78282610181565b919050565b5f67ffffffffffffffff8211156101e6576101e5610154565b5b602082029050602081019050919050565b5f5ffd5b5f5ffd5b5f67ffffffffffffffff82111561021957610218610154565b5b61022282610144565b9050602081019050919050565b8281835e5f83830152505050565b5f61024f61024a846101ff565b6101b2565b90508281526020810184848401111561026b5761026a6101fb565b5b61027684828561022f565b509392505050565b5f82601f83011261029257610291610140565b5b81516102a284826020860161023d565b91505092915050565b5f6102bd6102b8846101cc565b6101b2565b905080838252602082019050602084028301858111156102e0576102df6101f7565b5b835b8181101561032757805167ffffffffffffffff81111561030557610304610140565b5b808601610312898261027e565b855260208501945050506020810190506102e2565b5050509392505050565b5f82601f83011261034557610344610140565b5b81516103558482602086016102ab565b91505092915050565b5f819050919050565b6103708161035e565b811461037a575f5ffd5b50565b5f8151905061038b81610367565b92915050565b5f5f604083850312156103a7576103a6610138565b5b5f83015167ffffffffffffffff8111156103c4576103c361013c565b5b6103d085828601610331565b92505060206103e18582860161037d565b9150509250929050565b7f4e487b71000000000000000000000000000000000000000000000000000000005f52603260045260245ffd5b5f81519050919050565b7f4e487b71000000000000000000000000000000000000000000000000000000005f52602260045260245ffd5b5f600282049050600182168061046657607f821691505b60208210810361047957610478610422565b5b50919050565b5f819050815f5260205f209050919050565b5f6020601f8301049050919050565b5f82821b905092915050565b5f600883026104db7fffffffffffffffffffffffffffffffffffffffffffffffffffffffffffffffff826104a0565b6104e586836104a0565b95508019841693508086168417925050509392505050565b5f819050919050565b5f61052061051b6105168461035e565b6104fd565b61035e565b9050919050565b5f819050919050565b61053983610506565b61054d61054582610527565b8484546104ac565b825550505050565b5f5f905090565b610564610555565b61056f818484610530565b505050565b5b81811015610592576105875f8261055c565b600181019050610575565b5050565b601f8211156105d7576105a88161047f565b6105b184610491565b810160208510156105c0578190505b6105d46105cc85610491565b830182610574565b50505b505050565b5f82821c905092915050565b5f6105f75f19846008026105dc565b1980831691505092915050565b5f61060f83836105e8565b9150826002028217905092915050565b61062882610418565b67ffffffffffffffff81111561064157610640610154565b5b61064b825461044f565b610656828285610596565b5f60209050601f831160018114610687575f8415610675578287015190505b61067f8582610604565b8655506106e6565b601f1984166106958661047f565b5f5b828110156106bc57848901518255600182019150602085019450602081019050610697565b868310156106d957848901516106d5601f8916826105e8565b8355505b6001600288020188555050505b505050505050565b7f4e487b71000000000000000000000000000000000000000000000000000000005f52601160045260245ffd5b5f6107258261035e565b91506107308361035e565b925082820261073e8161035e565b91508282048414831517610755576107546106ee565b5b5092915050565b5f6107668261035e565b91506107718361035e565b9250828201905080821115610789576107886106ee565b5b92915050565b6110098061079c5f395ff3fe608060405234801561000f575f5ffd5b5060043610610091575f3560e01c80634d6bda5f116100645780634d6bda5f1461011c578063581c281c1461013a57806385a3863514610158578063a3ec138d14610176578063efb98bcf146101a657610091565b80630121b93f14610095578063101158af146100b15780633477ee2e146100cf578063462e91ec14610100575b5f5ffd5b6100af60048036038101906100aa9190610673565b6101c4565b005b6100b9610323565b6040516100c691906106ad565b60405180910390f35b6100e960048036038101906100e49190610673565b610329565b6040516100f7929190610736565b60405180910390f35b61011a60048036038101906101159190610890565b6103dd565b005b610124610494565b6040516101319190610a23565b60405180910390f35b610142610588565b60405161014f9190610a5d565b60405180910390f35b6101606105a1565b60405161016d91906106ad565b60405180910390f35b610190600480360381019061018b9190610ad0565b6105a7565b60405161019d9190610a5d565b60405180910390f35b6101ae6105c4565b6040516101bb91906106ad565b60405180910390f35b60025f3373ffffffffffffffffffffffffffffffffffffffff1673ffffffffffffffffffffffffffffffffffffffff1681526020019081526020015f205f9054906101000a900460ff161561024e576040517f08c379a000000000000000000000000000000000000000000000000000000000815260040161024590610b45565b60405180910390fd5b5f805490508110610294576040517f08c379a000000000000000000000000000000000000000000000000000000000815260040161028b90610bad565b60405180910390fd5b5f81815481106102a7576102a6610bcb565b5b905f5260205f2090600202016001015f8154809291906102c690610c25565b9190505550600160025f3373ffffffffffffffffffffffffffffffffffffffff1673ffffffffffffffffffffffffffffffffffffffff1681526020019081526020015f205f6101000a81548160ff02191690831515021790555050565b60035481565b5f8181548110610337575f80fd5b905f5260205f2090600202015f91509050805f01805461035690610c99565b80601f016020809104026020016040519081016040528092919081815260200182805461038290610c99565b80156103cd5780601f106103a4576101008083540402835291602001916103cd565b820191905f5260205f20905b8154815290600101906020018083116103b057829003601f168201915b5050505050908060010154905082565b60015f9054906101000a900473ffffffffffffffffffffffffffffffffffffffff1673ffffffffffffffffffffffffffffffffffffffff163373ffffffffffffffffffffffffffffffffffffffff1614610435575f5ffd5b5f60405180604001604052808381526020015f815250908060018154018082558091505060019003905f5260205f2090600202015f909190919091505f820151815f0190816104849190610e69565b5060208201518160010155505050565b60605f805480602002602001604051908101604052809291908181526020015f905b8282101561057f578382905f5260205f2090600202016040518060400160405290815f820180546104e690610c99565b80601f016020809104026020016040519081016040528092919081815260200182805461051290610c99565b801561055d5780601f106105345761010080835404028352916020019161055d565b820191905f5260205f20905b81548152906001019060200180831161054057829003601f168201915b50505050508152602001600182015481525050815260200190600101906104b6565b50505050905090565b5f600354421015801561059c575060045442105b905090565b60045481565b6002602052805f5260405f205f915054906101000a900460ff1681565b5f60035442101561060a576040517f08c379a000000000000000000000000000000000000000000000000000000000815260040161060190610f82565b60405180910390fd5b600454421061061b575f905061062c565b426004546106299190610fa0565b90505b90565b5f604051905090565b5f5ffd5b5f5ffd5b5f819050919050565b61065281610640565b811461065c575f5ffd5b50565b5f8135905061066d81610649565b92915050565b5f6020828403121561068857610687610638565b5b5f6106958482850161065f565b91505092915050565b6106a781610640565b82525050565b5f6020820190506106c05f83018461069e565b92915050565b5f81519050919050565b5f82825260208201905092915050565b8281835e5f83830152505050565b5f601f19601f8301169050919050565b5f610708826106c6565b61071281856106d0565b93506107228185602086016106e0565b61072b816106ee565b840191505092915050565b5f6040820190508181035f83015261074e81856106fe565b905061075d602083018461069e565b9392505050565b5f5ffd5b5f5ffd5b7f4e487b71000000000000000000000000000000000000000000000000000000005f52604160045260245ffd5b6107a2826106ee565b810181811067ffffffffffffffff821117156107c1576107c061076c565b5b80604052505050565b5f6107d361062f565b90506107df8282610799565b919050565b5f67ffffffffffffffff8211156107fe576107fd61076c565b5b610807826106ee565b9050602081019050919050565b828183375f83830152505050565b5f61083461082f846107e4565b6107ca565b9050828152602081018484840111156108505761084f610768565b5b61085b848285610814565b509392505050565b5f82601f83011261087757610876610764565b5b8135610887848260208601610822565b91505092915050565b5f602082840312156108a5576108a4610638565b5b5f82013567ffffffffffffffff8111156108c2576108c161063c565b5b6108ce84828501610863565b91505092915050565b5f81519050919050565b5f82825260208201905092915050565b5f819050602082019050919050565b5f82825260208201905092915050565b5f61091a826106c6565b6109248185610900565b93506109348185602086016106e0565b61093d816106ee565b840191505092915050565b61095181610640565b82525050565b5f604083015f8301518482035f8601526109718282610910565b91505060208301516109866020860182610948565b508091505092915050565b5f61099c8383610957565b905092915050565b5f602082019050919050565b5f6109ba826108d7565b6109c481856108e1565b9350836020820285016109d6856108f1565b805f5b85811015610a1157848403895281516109f28582610991565b94506109fd836109a4565b925060208a019950506001810190506109d9565b50829750879550505050505092915050565b5f6020820190508181035f830152610a3b81846109b0565b905092915050565b5f8115159050919050565b610a5781610a43565b82525050565b5f602082019050610a705f830184610a4e565b92915050565b5f73ffffffffffffffffffffffffffffffffffffffff82169050919050565b5f610a9f82610a76565b9050919050565b610aaf81610a95565b8114610ab9575f5ffd5b50565b5f81359050610aca81610aa6565b92915050565b5f60208284031215610ae557610ae4610638565b5b5f610af284828501610abc565b91505092915050565b7f596f75206861766520616c726561647920766f7465642e0000000000000000005f82015250565b5f610b2f6017836106d0565b9150610b3a82610afb565b602082019050919050565b5f6020820190508181035f830152610b5c81610b23565b9050919050565b7f496e76616c69642063616e64696461746520696e6465782e00000000000000005f82015250565b5f610b976018836106d0565b9150610ba282610b63565b602082019050919050565b5f6020820190508181035f830152610bc481610b8b565b9050919050565b7f4e487b71000000000000000000000000000000000000000000000000000000005f52603260045260245ffd5b7f4e487b71000000000000000000000000000000000000000000000000000000005f52601160045260245ffd5b5f610c2f82610640565b91507fffffffffffffffffffffffffffffffffffffffffffffffffffffffffffffffff8203610c6157610c60610bf8565b5b600182019050919050565b7f4e487b71000000000000000000000000000000000000000000000000000000005f52602260045260245ffd5b5f6002820490506001821680610cb057607f821691505b602082108103610cc357610cc2610c6c565b5b50919050565b5f819050815f5260205f209050919050565b5f6020601f8301049050919050565b5f82821b905092915050565b5f60088302610d257fffffffffffffffffffffffffffffffffffffffffffffffffffffffffffffffff82610cea565b610d2f8683610cea565b95508019841693508086168417925050509392505050565b5f819050919050565b5f610d6a610d65610d6084610640565b610d47565b610640565b9050919050565b5f819050919050565b610d8383610d50565b610d97610d8f82610d71565b848454610cf6565b825550505050565b5f5f905090565b610dae610d9f565b610db9818484610d7a565b505050565b5b81811015610ddc57610dd15f82610da6565b600181019050610dbf565b5050565b601f821115610e2157610df281610cc9565b610dfb84610cdb565b81016020851015610e0a578190505b610e1e610e1685610cdb565b830182610dbe565b50505b505050565b5f82821c905092915050565b5f610e415f1984600802610e26565b1980831691505092915050565b5f610e598383610e32565b9150826002028217905092915050565b610e72826106c6565b67ffffffffffffffff811115610e8b57610e8a61076c565b5b610e958254610c99565b610ea0828285610de0565b5f60209050601f831160018114610ed1575f8415610ebf578287015190505b610ec98582610e4e565b865550610f30565b601f198416610edf86610cc9565b5f5b82811015610f0657848901518255600182019150602085019450602081019050610ee1565b86831015610f235784890151610f1f601f891682610e32565b8355505b6001600288020188555050505b505050505050565b7f566f74696e6720686173206e6f742073746172746564207965742e00000000005f82015250565b5f610f6c601b836106d0565b9150610f7782610f38565b602082019050919050565b5f6020820190508181035f830152610f9981610f60565b9050919050565b5f610faa82610640565b9150610fb583610640565b9250828203905081811115610fcd57610fcc610bf8565b5b9291505056fea2646970667358221220d54a0ffca28280ffa2d30c469288586f045fb4b1789e79f72ad38de39e98f05564736f6c634300081e0033",
					"opcodes": "PUSH1 0x80 PUSH1 0x40 MSTORE CALLVALUE DUP1 ISZERO PUSH2 0xF JUMPI PUSH0 PUSH0 REVERT JUMPDEST POP PUSH1 0x40 MLOAD PUSH2 0x17A5 CODESIZE SUB DUP1 PUSH2 0x17A5 DUP4 CODECOPY DUP2 DUP2 ADD PUSH1 0x40 MSTORE DUP2 ADD SWAP1 PUSH2 0x31 SWAP2 SWAP1 PUSH2 0x391 JUMP JUMPDEST PUSH0 PUSH0 SWAP1 POP JUMPDEST DUP3 MLOAD DUP2 LT ISZERO PUSH2 0xC2 JUMPI PUSH0 PUSH1 0x40 MLOAD DUP1 PUSH1 0x40 ADD PUSH1 0x40 MSTORE DUP1 DUP6 DUP5 DUP2 MLOAD DUP2 LT PUSH2 0x5E JUMPI PUSH2 0x5D PUSH2 0x3EB JUMP JUMPDEST JUMPDEST PUSH1 0x20 MUL PUSH1 0x20 ADD ADD MLOAD DUP2 MSTORE PUSH1 0x20 ADD PUSH0 DUP2 MSTORE POP SWAP1 DUP1 PUSH1 0x1 DUP2 SLOAD ADD DUP1 DUP3 SSTORE DUP1 SWAP2 POP POP PUSH1 0x1 SWAP1 SUB SWAP1 PUSH0 MSTORE PUSH1 0x20 PUSH0 KECCAK256 SWAP1 PUSH1 0x2 MUL ADD PUSH0 SWAP1 SWAP2 SWAP1 SWAP2 SWAP1 SWAP2 POP PUSH0 DUP3 ADD MLOAD DUP2 PUSH0 ADD SWAP1 DUP2 PUSH2 0xA8 SWAP2 SWAP1 PUSH2 0x61F JUMP JUMPDEST POP PUSH1 0x20 DUP3 ADD MLOAD DUP2 PUSH1 0x1 ADD SSTORE POP POP DUP1 DUP1 PUSH1 0x1 ADD SWAP2 POP POP PUSH2 0x36 JUMP JUMPDEST POP CALLER PUSH1 0x1 PUSH0 PUSH2 0x100 EXP DUP2 SLOAD DUP2 PUSH20 0xFFFFFFFFFFFFFFFFFFFFFFFFFFFFFFFFFFFFFFFF MUL NOT AND SWAP1 DUP4 PUSH20 0xFFFFFFFFFFFFFFFFFFFFFFFFFFFFFFFFFFFFFFFF AND MUL OR SWAP1 SSTORE POP TIMESTAMP PUSH1 0x3 DUP2 SWAP1 SSTORE POP PUSH1 0x3C DUP2 PUSH2 0x117 SWAP2 SWAP1 PUSH2 0x71B JUMP JUMPDEST TIMESTAMP PUSH2 0x122 SWAP2 SWAP1 PUSH2 0x75C JUMP JUMPDEST PUSH1 0x4 DUP2 SWAP1 SSTORE POP POP POP PUSH2 0x78F JUMP JUMPDEST PUSH0 PUSH1 0x40 MLOAD SWAP1 POP SWAP1 JUMP JUMPDEST PUSH0 PUSH0 REVERT JUMPDEST PUSH0 PUSH0 REVERT JUMPDEST PUSH0 PUSH0 REVERT JUMPDEST PUSH0 PUSH1 0x1F NOT PUSH1 0x1F DUP4 ADD AND SWAP1 POP SWAP2 SWAP1 POP JUMP JUMPDEST PUSH32 0x4E487B7100000000000000000000000000000000000000000000000000000000 PUSH0 MSTORE PUSH1 0x41 PUSH1 0x4 MSTORE PUSH1 0x24 PUSH0 REVERT JUMPDEST PUSH2 0x18A DUP3 PUSH2 0x144 JUMP JUMPDEST DUP2 ADD DUP2 DUP2 LT PUSH8 0xFFFFFFFFFFFFFFFF DUP3 GT OR ISZERO PUSH2 0x1A9 JUMPI PUSH2 0x1A8 PUSH2 0x154 JUMP JUMPDEST JUMPDEST DUP1 PUSH1 0x40 MSTORE POP POP POP JUMP JUMPDEST PUSH0 PUSH2 0x1BB PUSH2 0x12F JUMP JUMPDEST SWAP1 POP PUSH2 0x1C7 DUP3 DUP3 PUSH2 0x181 JUMP JUMPDEST SWAP2 SWAP1 POP JUMP JUMPDEST PUSH0 PUSH8 0xFFFFFFFFFFFFFFFF DUP3 GT ISZERO PUSH2 0x1E6 JUMPI PUSH2 0x1E5 PUSH2 0x154 JUMP JUMPDEST JUMPDEST PUSH1 0x20 DUP3 MUL SWAP1 POP PUSH1 0x20 DUP2 ADD SWAP1 POP SWAP2 SWAP1 POP JUMP JUMPDEST PUSH0 PUSH0 REVERT JUMPDEST PUSH0 PUSH0 REVERT JUMPDEST PUSH0 PUSH8 0xFFFFFFFFFFFFFFFF DUP3 GT ISZERO PUSH2 0x219 JUMPI PUSH2 0x218 PUSH2 0x154 JUMP JUMPDEST JUMPDEST PUSH2 0x222 DUP3 PUSH2 0x144 JUMP JUMPDEST SWAP1 POP PUSH1 0x20 DUP2 ADD SWAP1 POP SWAP2 SWAP1 POP JUMP JUMPDEST DUP3 DUP2 DUP4 MCOPY PUSH0 DUP4 DUP4 ADD MSTORE POP POP POP JUMP JUMPDEST PUSH0 PUSH2 0x24F PUSH2 0x24A DUP5 PUSH2 0x1FF JUMP JUMPDEST PUSH2 0x1B2 JUMP JUMPDEST SWAP1 POP DUP3 DUP2 MSTORE PUSH1 0x20 DUP2 ADD DUP5 DUP5 DUP5 ADD GT ISZERO PUSH2 0x26B JUMPI PUSH2 0x26A PUSH2 0x1FB JUMP JUMPDEST JUMPDEST PUSH2 0x276 DUP5 DUP3 DUP6 PUSH2 0x22F JUMP JUMPDEST POP SWAP4 SWAP3 POP POP POP JUMP JUMPDEST PUSH0 DUP3 PUSH1 0x1F DUP4 ADD SLT PUSH2 0x292 JUMPI PUSH2 0x291 PUSH2 0x140 JUMP JUMPDEST JUMPDEST DUP2 MLOAD PUSH2 0x2A2 DUP5 DUP3 PUSH1 0x20 DUP7 ADD PUSH2 0x23D JUMP JUMPDEST SWAP2 POP POP SWAP3 SWAP2 POP POP JUMP JUMPDEST PUSH0 PUSH2 0x2BD PUSH2 0x2B8 DUP5 PUSH2 0x1CC JUMP JUMPDEST PUSH2 0x1B2 JUMP JUMPDEST SWAP1 POP DUP1 DUP4 DUP3 MSTORE PUSH1 0x20 DUP3 ADD SWAP1 POP PUSH1 0x20 DUP5 MUL DUP4 ADD DUP6 DUP2 GT ISZERO PUSH2 0x2E0 JUMPI PUSH2 0x2DF PUSH2 0x1F7 JUMP JUMPDEST JUMPDEST DUP4 JUMPDEST DUP2 DUP2 LT ISZERO PUSH2 0x327 JUMPI DUP1 MLOAD PUSH8 0xFFFFFFFFFFFFFFFF DUP2 GT ISZERO PUSH2 0x305 JUMPI PUSH2 0x304 PUSH2 0x140 JUMP JUMPDEST JUMPDEST DUP1 DUP7 ADD PUSH2 0x312 DUP10 DUP3 PUSH2 0x27E JUMP JUMPDEST DUP6 MSTORE PUSH1 0x20 DUP6 ADD SWAP5 POP POP POP PUSH1 0x20 DUP2 ADD SWAP1 POP PUSH2 0x2E2 JUMP JUMPDEST POP POP POP SWAP4 SWAP3 POP POP POP JUMP JUMPDEST PUSH0 DUP3 PUSH1 0x1F DUP4 ADD SLT PUSH2 0x345 JUMPI PUSH2 0x344 PUSH2 0x140 JUMP JUMPDEST JUMPDEST DUP2 MLOAD PUSH2 0x355 DUP5 DUP3 PUSH1 0x20 DUP7 ADD PUSH2 0x2AB JUMP JUMPDEST SWAP2 POP POP SWAP3 SWAP2 POP POP JUMP JUMPDEST PUSH0 DUP2 SWAP1 POP SWAP2 SWAP1 POP JUMP JUMPDEST PUSH2 0x370 DUP2 PUSH2 0x35E JUMP JUMPDEST DUP2 EQ PUSH2 0x37A JUMPI PUSH0 PUSH0 REVERT JUMPDEST POP JUMP JUMPDEST PUSH0 DUP2 MLOAD SWAP1 POP PUSH2 0x38B DUP2 PUSH2 0x367 JUMP JUMPDEST SWAP3 SWAP2 POP POP JUMP JUMPDEST PUSH0 PUSH0 PUSH1 0x40 DUP4 DUP6 SUB SLT ISZERO PUSH2 0x3A7 JUMPI PUSH2 0x3A6 PUSH2 0x138 JUMP JUMPDEST JUMPDEST PUSH0 DUP4 ADD MLOAD PUSH8 0xFFFFFFFFFFFFFFFF DUP2 GT ISZERO PUSH2 0x3C4 JUMPI PUSH2 0x3C3 PUSH2 0x13C JUMP JUMPDEST JUMPDEST PUSH2 0x3D0 DUP6 DUP3 DUP7 ADD PUSH2 0x331 JUMP JUMPDEST SWAP3 POP POP PUSH1 0x20 PUSH2 0x3E1 DUP6 DUP3 DUP7 ADD PUSH2 0x37D JUMP JUMPDEST SWAP2 POP POP SWAP3 POP SWAP3 SWAP1 POP JUMP JUMPDEST PUSH32 0x4E487B7100000000000000000000000000000000000000000000000000000000 PUSH0 MSTORE PUSH1 0x32 PUSH1 0x4 MSTORE PUSH1 0x24 PUSH0 REVERT JUMPDEST PUSH0 DUP2 MLOAD SWAP1 POP SWAP2 SWAP1 POP JUMP JUMPDEST PUSH32 0x4E487B7100000000000000000000000000000000000000000000000000000000 PUSH0 MSTORE PUSH1 0x22 PUSH1 0x4 MSTORE PUSH1 0x24 PUSH0 REVERT JUMPDEST PUSH0 PUSH1 0x2 DUP3 DIV SWAP1 POP PUSH1 0x1 DUP3 AND DUP1 PUSH2 0x466 JUMPI PUSH1 0x7F DUP3 AND SWAP2 POP JUMPDEST PUSH1 0x20 DUP3 LT DUP2 SUB PUSH2 0x479 JUMPI PUSH2 0x478 PUSH2 0x422 JUMP JUMPDEST JUMPDEST POP SWAP2 SWAP1 POP JUMP JUMPDEST PUSH0 DUP2 SWAP1 POP DUP2 PUSH0 MSTORE PUSH1 0x20 PUSH0 KECCAK256 SWAP1 POP SWAP2 SWAP1 POP JUMP JUMPDEST PUSH0 PUSH1 0x20 PUSH1 0x1F DUP4 ADD DIV SWAP1 POP SWAP2 SWAP1 POP JUMP JUMPDEST PUSH0 DUP3 DUP3 SHL SWAP1 POP SWAP3 SWAP2 POP POP JUMP JUMPDEST PUSH0 PUSH1 0x8 DUP4 MUL PUSH2 0x4DB PUSH32 0xFFFFFFFFFFFFFFFFFFFFFFFFFFFFFFFFFFFFFFFFFFFFFFFFFFFFFFFFFFFFFFFF DUP3 PUSH2 0x4A0 JUMP JUMPDEST PUSH2 0x4E5 DUP7 DUP4 PUSH2 0x4A0 JUMP JUMPDEST SWAP6 POP DUP1 NOT DUP5 AND SWAP4 POP DUP1 DUP7 AND DUP5 OR SWAP3 POP POP POP SWAP4 SWAP3 POP POP POP JUMP JUMPDEST PUSH0 DUP2 SWAP1 POP SWAP2 SWAP1 POP JUMP JUMPDEST PUSH0 PUSH2 0x520 PUSH2 0x51B PUSH2 0x516 DUP5 PUSH2 0x35E JUMP JUMPDEST PUSH2 0x4FD JUMP JUMPDEST PUSH2 0x35E JUMP JUMPDEST SWAP1 POP SWAP2 SWAP1 POP JUMP JUMPDEST PUSH0 DUP2 SWAP1 POP SWAP2 SWAP1 POP JUMP JUMPDEST PUSH2 0x539 DUP4 PUSH2 0x506 JUMP JUMPDEST PUSH2 0x54D PUSH2 0x545 DUP3 PUSH2 0x527 JUMP JUMPDEST DUP5 DUP5 SLOAD PUSH2 0x4AC JUMP JUMPDEST DUP3 SSTORE POP POP POP POP JUMP JUMPDEST PUSH0 PUSH0 SWAP1 POP SWAP1 JUMP JUMPDEST PUSH2 0x564 PUSH2 0x555 JUMP JUMPDEST PUSH2 0x56F DUP2 DUP5 DUP5 PUSH2 0x530 JUMP JUMPDEST POP POP POP JUMP JUMPDEST JUMPDEST DUP2 DUP2 LT ISZERO PUSH2 0x592 JUMPI PUSH2 0x587 PUSH0 DUP3 PUSH2 0x55C JUMP JUMPDEST PUSH1 0x1 DUP2 ADD SWAP1 POP PUSH2 0x575 JUMP JUMPDEST POP POP JUMP JUMPDEST PUSH1 0x1F DUP3 GT ISZERO PUSH2 0x5D7 JUMPI PUSH2 0x5A8 DUP2 PUSH2 0x47F JUMP JUMPDEST PUSH2 0x5B1 DUP5 PUSH2 0x491 JUMP JUMPDEST DUP2 ADD PUSH1 0x20 DUP6 LT ISZERO PUSH2 0x5C0 JUMPI DUP2 SWAP1 POP JUMPDEST PUSH2 0x5D4 PUSH2 0x5CC DUP6 PUSH2 0x491 JUMP JUMPDEST DUP4 ADD DUP3 PUSH2 0x574 JUMP JUMPDEST POP POP JUMPDEST POP POP POP JUMP JUMPDEST PUSH0 DUP3 DUP3 SHR SWAP1 POP SWAP3 SWAP2 POP POP JUMP JUMPDEST PUSH0 PUSH2 0x5F7 PUSH0 NOT DUP5 PUSH1 0x8 MUL PUSH2 0x5DC JUMP JUMPDEST NOT DUP1 DUP4 AND SWAP2 POP POP SWAP3 SWAP2 POP POP JUMP JUMPDEST PUSH0 PUSH2 0x60F DUP4 DUP4 PUSH2 0x5E8 JUMP JUMPDEST SWAP2 POP DUP3 PUSH1 0x2 MUL DUP3 OR SWAP1 POP SWAP3 SWAP2 POP POP JUMP JUMPDEST PUSH2 0x628 DUP3 PUSH2 0x418 JUMP JUMPDEST PUSH8 0xFFFFFFFFFFFFFFFF DUP2 GT ISZERO PUSH2 0x641 JUMPI PUSH2 0x640 PUSH2 0x154 JUMP JUMPDEST JUMPDEST PUSH2 0x64B DUP3 SLOAD PUSH2 0x44F JUMP JUMPDEST PUSH2 0x656 DUP3 DUP3 DUP6 PUSH2 0x596 JUMP JUMPDEST PUSH0 PUSH1 0x20 SWAP1 POP PUSH1 0x1F DUP4 GT PUSH1 0x1 DUP2 EQ PUSH2 0x687 JUMPI PUSH0 DUP5 ISZERO PUSH2 0x675 JUMPI DUP3 DUP8 ADD MLOAD SWAP1 POP JUMPDEST PUSH2 0x67F DUP6 DUP3 PUSH2 0x604 JUMP JUMPDEST DUP7 SSTORE POP PUSH2 0x6E6 JUMP JUMPDEST PUSH1 0x1F NOT DUP5 AND PUSH2 0x695 DUP7 PUSH2 0x47F JUMP JUMPDEST PUSH0 JUMPDEST DUP3 DUP2 LT ISZERO PUSH2 0x6BC JUMPI DUP5 DUP10 ADD MLOAD DUP3 SSTORE PUSH1 0x1 DUP3 ADD SWAP2 POP PUSH1 0x20 DUP6 ADD SWAP5 POP PUSH1 0x20 DUP2 ADD SWAP1 POP PUSH2 0x697 JUMP JUMPDEST DUP7 DUP4 LT ISZERO PUSH2 0x6D9 JUMPI DUP5 DUP10 ADD MLOAD PUSH2 0x6D5 PUSH1 0x1F DUP10 AND DUP3 PUSH2 0x5E8 JUMP JUMPDEST DUP4 SSTORE POP JUMPDEST PUSH1 0x1 PUSH1 0x2 DUP9 MUL ADD DUP9 SSTORE POP POP POP JUMPDEST POP POP POP POP POP POP JUMP JUMPDEST PUSH32 0x4E487B7100000000000000000000000000000000000000000000000000000000 PUSH0 MSTORE PUSH1 0x11 PUSH1 0x4 MSTORE PUSH1 0x24 PUSH0 REVERT JUMPDEST PUSH0 PUSH2 0x725 DUP3 PUSH2 0x35E JUMP JUMPDEST SWAP2 POP PUSH2 0x730 DUP4 PUSH2 0x35E JUMP JUMPDEST SWAP3 POP DUP3 DUP3 MUL PUSH2 0x73E DUP2 PUSH2 0x35E JUMP JUMPDEST SWAP2 POP DUP3 DUP3 DIV DUP5 EQ DUP4 ISZERO OR PUSH2 0x755 JUMPI PUSH2 0x754 PUSH2 0x6EE JUMP JUMPDEST JUMPDEST POP SWAP3 SWAP2 POP POP JUMP JUMPDEST PUSH0 PUSH2 0x766 DUP3 PUSH2 0x35E JUMP JUMPDEST SWAP2 POP PUSH2 0x771 DUP4 PUSH2 0x35E JUMP JUMPDEST SWAP3 POP DUP3 DUP3 ADD SWAP1 POP DUP1 DUP3 GT ISZERO PUSH2 0x789 JUMPI PUSH2 0x788 PUSH2 0x6EE JUMP JUMPDEST JUMPDEST SWAP3 SWAP2 POP POP JUMP JUMPDEST PUSH2 0x1009 DUP1 PUSH2 0x79C PUSH0 CODECOPY PUSH0 RETURN INVALID PUSH1 0x80 PUSH1 0x40 MSTORE CALLVALUE DUP1 ISZERO PUSH2 0xF JUMPI PUSH0 PUSH0 REVERT JUMPDEST POP PUSH1 0x4 CALLDATASIZE LT PUSH2 0x91 JUMPI PUSH0 CALLDATALOAD PUSH1 0xE0 SHR DUP1 PUSH4 0x4D6BDA5F GT PUSH2 0x64 JUMPI DUP1 PUSH4 0x4D6BDA5F EQ PUSH2 0x11C JUMPI DUP1 PUSH4 0x581C281C EQ PUSH2 0x13A JUMPI DUP1 PUSH4 0x85A38635 EQ PUSH2 0x158 JUMPI DUP1 PUSH4 0xA3EC138D EQ PUSH2 0x176 JUMPI DUP1 PUSH4 0xEFB98BCF EQ PUSH2 0x1A6 JUMPI PUSH2 0x91 JUMP JUMPDEST DUP1 PUSH4 0x121B93F EQ PUSH2 0x95 JUMPI DUP1 PUSH4 0x101158AF EQ PUSH2 0xB1 JUMPI DUP1 PUSH4 0x3477EE2E EQ PUSH2 0xCF JUMPI DUP1 PUSH4 0x462E91EC EQ PUSH2 0x100 JUMPI JUMPDEST PUSH0 PUSH0 REVERT JUMPDEST PUSH2 0xAF PUSH1 0x4 DUP1 CALLDATASIZE SUB DUP2 ADD SWAP1 PUSH2 0xAA SWAP2 SWAP1 PUSH2 0x673 JUMP JUMPDEST PUSH2 0x1C4 JUMP JUMPDEST STOP JUMPDEST PUSH2 0xB9 PUSH2 0x323 JUMP JUMPDEST PUSH1 0x40 MLOAD PUSH2 0xC6 SWAP2 SWAP1 PUSH2 0x6AD JUMP JUMPDEST PUSH1 0x40 MLOAD DUP1 SWAP2 SUB SWAP1 RETURN JUMPDEST PUSH2 0xE9 PUSH1 0x4 DUP1 CALLDATASIZE SUB DUP2 ADD SWAP1 PUSH2 0xE4 SWAP2 SWAP1 PUSH2 0x673 JUMP JUMPDEST PUSH2 0x329 JUMP JUMPDEST PUSH1 0x40 MLOAD PUSH2 0xF7 SWAP3 SWAP2 SWAP1 PUSH2 0x736 JUMP JUMPDEST PUSH1 0x40 MLOAD DUP1 SWAP2 SUB SWAP1 RETURN JUMPDEST PUSH2 0x11A PUSH1 0x4 DUP1 CALLDATASIZE SUB DUP2 ADD SWAP1 PUSH2 0x115 SWAP2 SWAP1 PUSH2 0x890 JUMP JUMPDEST PUSH2 0x3DD JUMP JUMPDEST STOP JUMPDEST PUSH2 0x124 PUSH2 0x494 JUMP JUMPDEST PUSH1 0x40 MLOAD PUSH2 0x131 SWAP2 SWAP1 PUSH2 0xA23 JUMP JUMPDEST PUSH1 0x40 MLOAD DUP1 SWAP2 SUB SWAP1 RETURN JUMPDEST PUSH2 0x142 PUSH2 0x588 JUMP JUMPDEST PUSH1 0x40 MLOAD PUSH2 0x14F SWAP2 SWAP1 PUSH2 0xA5D JUMP JUMPDEST PUSH1 0x40 MLOAD DUP1 SWAP2 SUB SWAP1 RETURN JUMPDEST PUSH2 0x160 PUSH2 0x5A1 JUMP JUMPDEST PUSH1 0x40 MLOAD PUSH2 0x16D SWAP2 SWAP1 PUSH2 0x6AD JUMP JUMPDEST PUSH1 0x40 MLOAD DUP1 SWAP2 SUB SWAP1 RETURN JUMPDEST PUSH2 0x190 PUSH1 0x4 DUP1 CALLDATASIZE SUB DUP2 ADD SWAP1 PUSH2 0x18B SWAP2 SWAP1 PUSH2 0xAD0 JUMP JUMPDEST PUSH2 0x5A7 JUMP JUMPDEST PUSH1 0x40 MLOAD PUSH2 0x19D SWAP2 SWAP1 PUSH2 0xA5D JUMP JUMPDEST PUSH1 0x40 MLOAD DUP1 SWAP2 SUB SWAP1 RETURN JUMPDEST PUSH2 0x1AE PUSH2 0x5C4 JUMP JUMPDEST PUSH1 0x40 MLOAD PUSH2 0x1BB SWAP2 SWAP1 PUSH2 0x6AD JUMP JUMPDEST PUSH1 0x40 MLOAD DUP1 SWAP2 SUB SWAP1 RETURN JUMPDEST PUSH1 0x2 PUSH0 CALLER PUSH20 0xFFFFFFFFFFFFFFFFFFFFFFFFFFFFFFFFFFFFFFFF AND PUSH20 0xFFFFFFFFFFFFFFFFFFFFFFFFFFFFFFFFFFFFFFFF AND DUP2 MSTORE PUSH1 0x20 ADD SWAP1 DUP2 MSTORE PUSH1 0x20 ADD PUSH0 KECCAK256 PUSH0 SWAP1 SLOAD SWAP1 PUSH2 0x100 EXP SWAP1 DIV PUSH1 0xFF AND ISZERO PUSH2 0x24E JUMPI PUSH1 0x40 MLOAD PUSH32 0x8C379A000000000000000000000000000000000000000000000000000000000 DUP2 MSTORE PUSH1 0x4 ADD PUSH2 0x245 SWAP1 PUSH2 0xB45 JUMP JUMPDEST PUSH1 0x40 MLOAD DUP1 SWAP2 SUB SWAP1 REVERT JUMPDEST PUSH0 DUP1 SLOAD SWAP1 POP DUP2 LT PUSH2 0x294 JUMPI PUSH1 0x40 MLOAD PUSH32 0x8C379A000000000000000000000000000000000000000000000000000000000 DUP2 MSTORE PUSH1 0x4 ADD PUSH2 0x28B SWAP1 PUSH2 0xBAD JUMP JUMPDEST PUSH1 0x40 MLOAD DUP1 SWAP2 SUB SWAP1 REVERT JUMPDEST PUSH0 DUP2 DUP2 SLOAD DUP2 LT PUSH2 0x2A7 JUMPI PUSH2 0x2A6 PUSH2 0xBCB JUMP JUMPDEST JUMPDEST SWAP1 PUSH0 MSTORE PUSH1 0x20 PUSH0 KECCAK256 SWAP1 PUSH1 0x2 MUL ADD PUSH1 0x1 ADD PUSH0 DUP2 SLOAD DUP1 SWAP3 SWAP2 SWAP1 PUSH2 0x2C6 SWAP1 PUSH2 0xC25 JUMP JUMPDEST SWAP2 SWAP1 POP SSTORE POP PUSH1 0x1 PUSH1 0x2 PUSH0 CALLER PUSH20 0xFFFFFFFFFFFFFFFFFFFFFFFFFFFFFFFFFFFFFFFF AND PUSH20 0xFFFFFFFFFFFFFFFFFFFFFFFFFFFFFFFFFFFFFFFF AND DUP2 MSTORE PUSH1 0x20 ADD SWAP1 DUP2 MSTORE PUSH1 0x20 ADD PUSH0 KECCAK256 PUSH0 PUSH2 0x100 EXP DUP2 SLOAD DUP2 PUSH1 0xFF MUL NOT AND SWAP1 DUP4 ISZERO ISZERO MUL OR SWAP1 SSTORE POP POP JUMP JUMPDEST PUSH1 0x3 SLOAD DUP2 JUMP JUMPDEST PUSH0 DUP2 DUP2 SLOAD DUP2 LT PUSH2 0x337 JUMPI PUSH0 DUP1 REVERT JUMPDEST SWAP1 PUSH0 MSTORE PUSH1 0x20 PUSH0 KECCAK256 SWAP1 PUSH1 0x2 MUL ADD PUSH0 SWAP2 POP SWAP1 POP DUP1 PUSH0 ADD DUP1 SLOAD PUSH2 0x356 SWAP1 PUSH2 0xC99 JUMP JUMPDEST DUP1 PUSH1 0x1F ADD PUSH1 0x20 DUP1 SWAP2 DIV MUL PUSH1 0x20 ADD PUSH1 0x40 MLOAD SWAP1 DUP2 ADD PUSH1 0x40 MSTORE DUP1 SWAP3 SWAP2 SWAP1 DUP2 DUP2 MSTORE PUSH1 0x20 ADD DUP3 DUP1 SLOAD PUSH2 0x382 SWAP1 PUSH2 0xC99 JUMP JUMPDEST DUP1 ISZERO PUSH2 0x3CD JUMPI DUP1 PUSH1 0x1F LT PUSH2 0x3A4 JUMPI PUSH2 0x100 DUP1 DUP4 SLOAD DIV MUL DUP4 MSTORE SWAP2 PUSH1 0x20 ADD SWAP2 PUSH2 0x3CD JUMP JUMPDEST DUP3 ADD SWAP2 SWAP1 PUSH0 MSTORE PUSH1 0x20 PUSH0 KECCAK256 SWAP1 JUMPDEST DUP2 SLOAD DUP2 MSTORE SWAP1 PUSH1 0x1 ADD SWAP1 PUSH1 0x20 ADD DUP1 DUP4 GT PUSH2 0x3B0 JUMPI DUP3 SWAP1 SUB PUSH1 0x1F AND DUP3 ADD SWAP2 JUMPDEST POP POP POP POP POP SWAP1 DUP1 PUSH1 0x1 ADD SLOAD SWAP1 POP DUP3 JUMP JUMPDEST PUSH1 0x1 PUSH0 SWAP1 SLOAD SWAP1 PUSH2 0x100 EXP SWAP1 DIV PUSH20 0xFFFFFFFFFFFFFFFFFFFFFFFFFFFFFFFFFFFFFFFF AND PUSH20 0xFFFFFFFFFFFFFFFFFFFFFFFFFFFFFFFFFFFFFFFF AND CALLER PUSH20 0xFFFFFFFFFFFFFFFFFFFFFFFFFFFFFFFFFFFFFFFF AND EQ PUSH2 0x435 JUMPI PUSH0 PUSH0 REVERT JUMPDEST PUSH0 PUSH1 0x40 MLOAD DUP1 PUSH1 0x40 ADD PUSH1 0x40 MSTORE DUP1 DUP4 DUP2 MSTORE PUSH1 0x20 ADD PUSH0 DUP2 MSTORE POP SWAP1 DUP1 PUSH1 0x1 DUP2 SLOAD ADD DUP1 DUP3 SSTORE DUP1 SWAP2 POP POP PUSH1 0x1 SWAP1 SUB SWAP1 PUSH0 MSTORE PUSH1 0x20 PUSH0 KECCAK256 SWAP1 PUSH1 0x2 MUL ADD PUSH0 SWAP1 SWAP2 SWAP1 SWAP2 SWAP1 SWAP2 POP PUSH0 DUP3 ADD MLOAD DUP2 PUSH0 ADD SWAP1 DUP2 PUSH2 0x484 SWAP2 SWAP1 PUSH2 0xE69 JUMP JUMPDEST POP PUSH1 0x20 DUP3 ADD MLOAD DUP2 PUSH1 0x1 ADD SSTORE POP POP POP JUMP JUMPDEST PUSH1 0x60 PUSH0 DUP1 SLOAD DUP1 PUSH1 0x20 MUL PUSH1 0x20 ADD PUSH1 0x40 MLOAD SWAP1 DUP2 ADD PUSH1 0x40 MSTORE DUP1 SWAP3 SWAP2 SWAP1 DUP2 DUP2 MSTORE PUSH1 0x20 ADD PUSH0 SWAP1 JUMPDEST DUP3 DUP3 LT ISZERO PUSH2 0x57F JUMPI DUP4 DUP3 SWAP1 PUSH0 MSTORE PUSH1 0x20 PUSH0 KECCAK256 SWAP1 PUSH1 0x2 MUL ADD PUSH1 0x40 MLOAD DUP1 PUSH1 0x40 ADD PUSH1 0x40 MSTORE SWAP1 DUP2 PUSH0 DUP3 ADD DUP1 SLOAD PUSH2 0x4E6 SWAP1 PUSH2 0xC99 JUMP JUMPDEST DUP1 PUSH1 0x1F ADD PUSH1 0x20 DUP1 SWAP2 DIV MUL PUSH1 0x20 ADD PUSH1 0x40 MLOAD SWAP1 DUP2 ADD PUSH1 0x40 MSTORE DUP1 SWAP3 SWAP2 SWAP1 DUP2 DUP2 MSTORE PUSH1 0x20 ADD DUP3 DUP1 SLOAD PUSH2 0x512 SWAP1 PUSH2 0xC99 JUMP JUMPDEST DUP1 ISZERO PUSH2 0x55D JUMPI DUP1 PUSH1 0x1F LT PUSH2 0x534 JUMPI PUSH2 0x100 DUP1 DUP4 SLOAD DIV MUL DUP4 MSTORE SWAP2 PUSH1 0x20 ADD SWAP2 PUSH2 0x55D JUMP JUMPDEST DUP3 ADD SWAP2 SWAP1 PUSH0 MSTORE PUSH1 0x20 PUSH0 KECCAK256 SWAP1 JUMPDEST DUP2 SLOAD DUP2 MSTORE SWAP1 PUSH1 0x1 ADD SWAP1 PUSH1 0x20 ADD DUP1 DUP4 GT PUSH2 0x540 JUMPI DUP3 SWAP1 SUB PUSH1 0x1F AND DUP3 ADD SWAP2 JUMPDEST POP POP POP POP POP DUP2 MSTORE PUSH1 0x20 ADD PUSH1 0x1 DUP3 ADD SLOAD DUP2 MSTORE POP POP DUP2 MSTORE PUSH1 0x20 ADD SWAP1 PUSH1 0x1 ADD SWAP1 PUSH2 0x4B6 JUMP JUMPDEST POP POP POP POP SWAP1 POP SWAP1 JUMP JUMPDEST PUSH0 PUSH1 0x3 SLOAD TIMESTAMP LT ISZERO DUP1 ISZERO PUSH2 0x59C JUMPI POP PUSH1 0x4 SLOAD TIMESTAMP LT JUMPDEST SWAP1 POP SWAP1 JUMP JUMPDEST PUSH1 0x4 SLOAD DUP2 JUMP JUMPDEST PUSH1 0x2 PUSH1 0x20 MSTORE DUP1 PUSH0 MSTORE PUSH1 0x40 PUSH0 KECCAK256 PUSH0 SWAP2 POP SLOAD SWAP1 PUSH2 0x100 EXP SWAP1 DIV PUSH1 0xFF AND DUP2 JUMP JUMPDEST PUSH0 PUSH1 0x3 SLOAD TIMESTAMP LT ISZERO PUSH2 0x60A JUMPI PUSH1 0x40 MLOAD PUSH32 0x8C379A000000000000000000000000000000000000000000000000000000000 DUP2 MSTORE PUSH1 0x4 ADD PUSH2 0x601 SWAP1 PUSH2 0xF82 JUMP JUMPDEST PUSH1 0x40 MLOAD DUP1 SWAP2 SUB SWAP1 REVERT JUMPDEST PUSH1 0x4 SLOAD TIMESTAMP LT PUSH2 0x61B JUMPI PUSH0 SWAP1 POP PUSH2 0x62C JUMP JUMPDEST TIMESTAMP PUSH1 0x4 SLOAD PUSH2 0x629 SWAP2 SWAP1 PUSH2 0xFA0 JUMP JUMPDEST SWAP1 POP JUMPDEST SWAP1 JUMP JUMPDEST PUSH0 PUSH1 0x40 MLOAD SWAP1 POP SWAP1 JUMP JUMPDEST PUSH0 PUSH0 REVERT JUMPDEST PUSH0 PUSH0 REVERT JUMPDEST PUSH0 DUP2 SWAP1 POP SWAP2 SWAP1 POP JUMP JUMPDEST PUSH2 0x652 DUP2 PUSH2 0x640 JUMP JUMPDEST DUP2 EQ PUSH2 0x65C JUMPI PUSH0 PUSH0 REVERT JUMPDEST POP JUMP JUMPDEST PUSH0 DUP2 CALLDATALOAD SWAP1 POP PUSH2 0x66D DUP2 PUSH2 0x649 JUMP JUMPDEST SWAP3 SWAP2 POP POP JUMP JUMPDEST PUSH0 PUSH1 0x20 DUP3 DUP5 SUB SLT ISZERO PUSH2 0x688 JUMPI PUSH2 0x687 PUSH2 0x638 JUMP JUMPDEST JUMPDEST PUSH0 PUSH2 0x695 DUP5 DUP3 DUP6 ADD PUSH2 0x65F JUMP JUMPDEST SWAP2 POP POP SWAP3 SWAP2 POP POP JUMP JUMPDEST PUSH2 0x6A7 DUP2 PUSH2 0x640 JUMP JUMPDEST DUP3 MSTORE POP POP JUMP JUMPDEST PUSH0 PUSH1 0x20 DUP3 ADD SWAP1 POP PUSH2 0x6C0 PUSH0 DUP4 ADD DUP5 PUSH2 0x69E JUMP JUMPDEST SWAP3 SWAP2 POP POP JUMP JUMPDEST PUSH0 DUP2 MLOAD SWAP1 POP SWAP2 SWAP1 POP JUMP JUMPDEST PUSH0 DUP3 DUP3 MSTORE PUSH1 0x20 DUP3 ADD SWAP1 POP SWAP3 SWAP2 POP POP JUMP JUMPDEST DUP3 DUP2 DUP4 MCOPY PUSH0 DUP4 DUP4 ADD MSTORE POP POP POP JUMP JUMPDEST PUSH0 PUSH1 0x1F NOT PUSH1 0x1F DUP4 ADD AND SWAP1 POP SWAP2 SWAP1 POP JUMP JUMPDEST PUSH0 PUSH2 0x708 DUP3 PUSH2 0x6C6 JUMP JUMPDEST PUSH2 0x712 DUP2 DUP6 PUSH2 0x6D0 JUMP JUMPDEST SWAP4 POP PUSH2 0x722 DUP2 DUP6 PUSH1 0x20 DUP7 ADD PUSH2 0x6E0 JUMP JUMPDEST PUSH2 0x72B DUP2 PUSH2 0x6EE JUMP JUMPDEST DUP5 ADD SWAP2 POP POP SWAP3 SWAP2 POP POP JUMP JUMPDEST PUSH0 PUSH1 0x40 DUP3 ADD SWAP1 POP DUP2 DUP2 SUB PUSH0 DUP4 ADD MSTORE PUSH2 0x74E DUP2 DUP6 PUSH2 0x6FE JUMP JUMPDEST SWAP1 POP PUSH2 0x75D PUSH1 0x20 DUP4 ADD DUP5 PUSH2 0x69E JUMP JUMPDEST SWAP4 SWAP3 POP POP POP JUMP JUMPDEST PUSH0 PUSH0 REVERT JUMPDEST PUSH0 PUSH0 REVERT JUMPDEST PUSH32 0x4E487B7100000000000000000000000000000000000000000000000000000000 PUSH0 MSTORE PUSH1 0x41 PUSH1 0x4 MSTORE PUSH1 0x24 PUSH0 REVERT JUMPDEST PUSH2 0x7A2 DUP3 PUSH2 0x6EE JUMP JUMPDEST DUP2 ADD DUP2 DUP2 LT PUSH8 0xFFFFFFFFFFFFFFFF DUP3 GT OR ISZERO PUSH2 0x7C1 JUMPI PUSH2 0x7C0 PUSH2 0x76C JUMP JUMPDEST JUMPDEST DUP1 PUSH1 0x40 MSTORE POP POP POP JUMP JUMPDEST PUSH0 PUSH2 0x7D3 PUSH2 0x62F JUMP JUMPDEST SWAP1 POP PUSH2 0x7DF DUP3 DUP3 PUSH2 0x799 JUMP JUMPDEST SWAP2 SWAP1 POP JUMP JUMPDEST PUSH0 PUSH8 0xFFFFFFFFFFFFFFFF DUP3 GT ISZERO PUSH2 0x7FE JUMPI PUSH2 0x7FD PUSH2 0x76C JUMP JUMPDEST JUMPDEST PUSH2 0x807 DUP3 PUSH2 0x6EE JUMP JUMPDEST SWAP1 POP PUSH1 0x20 DUP2 ADD SWAP1 POP SWAP2 SWAP1 POP JUMP JUMPDEST DUP3 DUP2 DUP4 CALLDATACOPY PUSH0 DUP4 DUP4 ADD MSTORE POP POP POP JUMP JUMPDEST PUSH0 PUSH2 0x834 PUSH2 0x82F DUP5 PUSH2 0x7E4 JUMP JUMPDEST PUSH2 0x7CA JUMP JUMPDEST SWAP1 POP DUP3 DUP2 MSTORE PUSH1 0x20 DUP2 ADD DUP5 DUP5 DUP5 ADD GT ISZERO PUSH2 0x850 JUMPI PUSH2 0x84F PUSH2 0x768 JUMP JUMPDEST JUMPDEST PUSH2 0x85B DUP5 DUP3 DUP6 PUSH2 0x814 JUMP JUMPDEST POP SWAP4 SWAP3 POP POP POP JUMP JUMPDEST PUSH0 DUP3 PUSH1 0x1F DUP4 ADD SLT PUSH2 0x877 JUMPI PUSH2 0x876 PUSH2 0x764 JUMP JUMPDEST JUMPDEST DUP2 CALLDATALOAD PUSH2 0x887 DUP5 DUP3 PUSH1 0x20 DUP7 ADD PUSH2 0x822 JUMP JUMPDEST SWAP2 POP POP SWAP3 SWAP2 POP POP JUMP JUMPDEST PUSH0 PUSH1 0x20 DUP3 DUP5 SUB SLT ISZERO PUSH2 0x8A5 JUMPI PUSH2 0x8A4 PUSH2 0x638 JUMP JUMPDEST JUMPDEST PUSH0 DUP3 ADD CALLDATALOAD PUSH8 0xFFFFFFFFFFFFFFFF DUP2 GT ISZERO PUSH2 0x8C2 JUMPI PUSH2 0x8C1 PUSH2 0x63C JUMP JUMPDEST JUMPDEST PUSH2 0x8CE DUP5 DUP3 DUP6 ADD PUSH2 0x863 JUMP JUMPDEST SWAP2 POP POP SWAP3 SWAP2 POP POP JUMP JUMPDEST PUSH0 DUP2 MLOAD SWAP1 POP SWAP2 SWAP1 POP JUMP JUMPDEST PUSH0 DUP3 DUP3 MSTORE PUSH1 0x20 DUP3 ADD SWAP1 POP SWAP3 SWAP2 POP POP JUMP JUMPDEST PUSH0 DUP2 SWAP1 POP PUSH1 0x20 DUP3 ADD SWAP1 POP SWAP2 SWAP1 POP JUMP JUMPDEST PUSH0 DUP3 DUP3 MSTORE PUSH1 0x20 DUP3 ADD SWAP1 POP SWAP3 SWAP2 POP POP JUMP JUMPDEST PUSH0 PUSH2 0x91A DUP3 PUSH2 0x6C6 JUMP JUMPDEST PUSH2 0x924 DUP2 DUP6 PUSH2 0x900 JUMP JUMPDEST SWAP4 POP PUSH2 0x934 DUP2 DUP6 PUSH1 0x20 DUP7 ADD PUSH2 0x6E0 JUMP JUMPDEST PUSH2 0x93D DUP2 PUSH2 0x6EE JUMP JUMPDEST DUP5 ADD SWAP2 POP POP SWAP3 SWAP2 POP POP JUMP JUMPDEST PUSH2 0x951 DUP2 PUSH2 0x640 JUMP JUMPDEST DUP3 MSTORE POP POP JUMP JUMPDEST PUSH0 PUSH1 0x40 DUP4 ADD PUSH0 DUP4 ADD MLOAD DUP5 DUP3 SUB PUSH0 DUP7 ADD MSTORE PUSH2 0x971 DUP3 DUP3 PUSH2 0x910 JUMP JUMPDEST SWAP2 POP POP PUSH1 0x20 DUP4 ADD MLOAD PUSH2 0x986 PUSH1 0x20 DUP7 ADD DUP3 PUSH2 0x948 JUMP JUMPDEST POP DUP1 SWAP2 POP POP SWAP3 SWAP2 POP POP JUMP JUMPDEST PUSH0 PUSH2 0x99C DUP4 DUP4 PUSH2 0x957 JUMP JUMPDEST SWAP1 POP SWAP3 SWAP2 POP POP JUMP JUMPDEST PUSH0 PUSH1 0x20 DUP3 ADD SWAP1 POP SWAP2 SWAP1 POP JUMP JUMPDEST PUSH0 PUSH2 0x9BA DUP3 PUSH2 0x8D7 JUMP JUMPDEST PUSH2 0x9C4 DUP2 DUP6 PUSH2 0x8E1 JUMP JUMPDEST SWAP4 POP DUP4 PUSH1 0x20 DUP3 MUL DUP6 ADD PUSH2 0x9D6 DUP6 PUSH2 0x8F1 JUMP JUMPDEST DUP1 PUSH0 JUMPDEST DUP6 DUP2 LT ISZERO PUSH2 0xA11 JUMPI DUP5 DUP5 SUB DUP10 MSTORE DUP2 MLOAD PUSH2 0x9F2 DUP6 DUP3 PUSH2 0x991 JUMP JUMPDEST SWAP5 POP PUSH2 0x9FD DUP4 PUSH2 0x9A4 JUMP JUMPDEST SWAP3 POP PUSH1 0x20 DUP11 ADD SWAP10 POP POP PUSH1 0x1 DUP2 ADD SWAP1 POP PUSH2 0x9D9 JUMP JUMPDEST POP DUP3 SWAP8 POP DUP8 SWAP6 POP POP POP POP POP POP SWAP3 SWAP2 POP POP JUMP JUMPDEST PUSH0 PUSH1 0x20 DUP3 ADD SWAP1 POP DUP2 DUP2 SUB PUSH0 DUP4 ADD MSTORE PUSH2 0xA3B DUP2 DUP5 PUSH2 0x9B0 JUMP JUMPDEST SWAP1 POP SWAP3 SWAP2 POP POP JUMP JUMPDEST PUSH0 DUP2 ISZERO ISZERO SWAP1 POP SWAP2 SWAP1 POP JUMP JUMPDEST PUSH2 0xA57 DUP2 PUSH2 0xA43 JUMP JUMPDEST DUP3 MSTORE POP POP JUMP JUMPDEST PUSH0 PUSH1 0x20 DUP3 ADD SWAP1 POP PUSH2 0xA70 PUSH0 DUP4 ADD DUP5 PUSH2 0xA4E JUMP JUMPDEST SWAP3 SWAP2 POP POP JUMP JUMPDEST PUSH0 PUSH20 0xFFFFFFFFFFFFFFFFFFFFFFFFFFFFFFFFFFFFFFFF DUP3 AND SWAP1 POP SWAP2 SWAP1 POP JUMP JUMPDEST PUSH0 PUSH2 0xA9F DUP3 PUSH2 0xA76 JUMP JUMPDEST SWAP1 POP SWAP2 SWAP1 POP JUMP JUMPDEST PUSH2 0xAAF DUP2 PUSH2 0xA95 JUMP JUMPDEST DUP2 EQ PUSH2 0xAB9 JUMPI PUSH0 PUSH0 REVERT JUMPDEST POP JUMP JUMPDEST PUSH0 DUP2 CALLDATALOAD SWAP1 POP PUSH2 0xACA DUP2 PUSH2 0xAA6 JUMP JUMPDEST SWAP3 SWAP2 POP POP JUMP JUMPDEST PUSH0 PUSH1 0x20 DUP3 DUP5 SUB SLT ISZERO PUSH2 0xAE5 JUMPI PUSH2 0xAE4 PUSH2 0x638 JUMP JUMPDEST JUMPDEST PUSH0 PUSH2 0xAF2 DUP5 DUP3 DUP6 ADD PUSH2 0xABC JUMP JUMPDEST SWAP2 POP POP SWAP3 SWAP2 POP POP JUMP JUMPDEST PUSH32 0x596F75206861766520616C726561647920766F7465642E000000000000000000 PUSH0 DUP3 ADD MSTORE POP JUMP JUMPDEST PUSH0 PUSH2 0xB2F PUSH1 0x17 DUP4 PUSH2 0x6D0 JUMP JUMPDEST SWAP2 POP PUSH2 0xB3A DUP3 PUSH2 0xAFB JUMP JUMPDEST PUSH1 0x20 DUP3 ADD SWAP1 POP SWAP2 SWAP1 POP JUMP JUMPDEST PUSH0 PUSH1 0x20 DUP3 ADD SWAP1 POP DUP2 DUP2 SUB PUSH0 DUP4 ADD MSTORE PUSH2 0xB5C DUP2 PUSH2 0xB23 JUMP JUMPDEST SWAP1 POP SWAP2 SWAP1 POP JUMP JUMPDEST PUSH32 0x496E76616C69642063616E64696461746520696E6465782E0000000000000000 PUSH0 DUP3 ADD MSTORE POP JUMP JUMPDEST PUSH0 PUSH2 0xB97 PUSH1 0x18 DUP4 PUSH2 0x6D0 JUMP JUMPDEST SWAP2 POP PUSH2 0xBA2 DUP3 PUSH2 0xB63 JUMP JUMPDEST PUSH1 0x20 DUP3 ADD SWAP1 POP SWAP2 SWAP1 POP JUMP JUMPDEST PUSH0 PUSH1 0x20 DUP3 ADD SWAP1 POP DUP2 DUP2 SUB PUSH0 DUP4 ADD MSTORE PUSH2 0xBC4 DUP2 PUSH2 0xB8B JUMP JUMPDEST SWAP1 POP SWAP2 SWAP1 POP JUMP JUMPDEST PUSH32 0x4E487B7100000000000000000000000000000000000000000000000000000000 PUSH0 MSTORE PUSH1 0x32 PUSH1 0x4 MSTORE PUSH1 0x24 PUSH0 REVERT JUMPDEST PUSH32 0x4E487B7100000000000000000000000000000000000000000000000000000000 PUSH0 MSTORE PUSH1 0x11 PUSH1 0x4 MSTORE PUSH1 0x24 PUSH0 REVERT JUMPDEST PUSH0 PUSH2 0xC2F DUP3 PUSH2 0x640 JUMP JUMPDEST SWAP2 POP PUSH32 0xFFFFFFFFFFFFFFFFFFFFFFFFFFFFFFFFFFFFFFFFFFFFFFFFFFFFFFFFFFFFFFFF DUP3 SUB PUSH2 0xC61 JUMPI PUSH2 0xC60 PUSH2 0xBF8 JUMP JUMPDEST JUMPDEST PUSH1 0x1 DUP3 ADD SWAP1 POP SWAP2 SWAP1 POP JUMP JUMPDEST PUSH32 0x4E487B7100000000000000000000000000000000000000000000000000000000 PUSH0 MSTORE PUSH1 0x22 PUSH1 0x4 MSTORE PUSH1 0x24 PUSH0 REVERT JUMPDEST PUSH0 PUSH1 0x2 DUP3 DIV SWAP1 POP PUSH1 0x1 DUP3 AND DUP1 PUSH2 0xCB0 JUMPI PUSH1 0x7F DUP3 AND SWAP2 POP JUMPDEST PUSH1 0x20 DUP3 LT DUP2 SUB PUSH2 0xCC3 JUMPI PUSH2 0xCC2 PUSH2 0xC6C JUMP JUMPDEST JUMPDEST POP SWAP2 SWAP1 POP JUMP JUMPDEST PUSH0 DUP2 SWAP1 POP DUP2 PUSH0 MSTORE PUSH1 0x20 PUSH0 KECCAK256 SWAP1 POP SWAP2 SWAP1 POP JUMP JUMPDEST PUSH0 PUSH1 0x20 PUSH1 0x1F DUP4 ADD DIV SWAP1 POP SWAP2 SWAP1 POP JUMP JUMPDEST PUSH0 DUP3 DUP3 SHL SWAP1 POP SWAP3 SWAP2 POP POP JUMP JUMPDEST PUSH0 PUSH1 0x8 DUP4 MUL PUSH2 0xD25 PUSH32 0xFFFFFFFFFFFFFFFFFFFFFFFFFFFFFFFFFFFFFFFFFFFFFFFFFFFFFFFFFFFFFFFF DUP3 PUSH2 0xCEA JUMP JUMPDEST PUSH2 0xD2F DUP7 DUP4 PUSH2 0xCEA JUMP JUMPDEST SWAP6 POP DUP1 NOT DUP5 AND SWAP4 POP DUP1 DUP7 AND DUP5 OR SWAP3 POP POP POP SWAP4 SWAP3 POP POP POP JUMP JUMPDEST PUSH0 DUP2 SWAP1 POP SWAP2 SWAP1 POP JUMP JUMPDEST PUSH0 PUSH2 0xD6A PUSH2 0xD65 PUSH2 0xD60 DUP5 PUSH2 0x640 JUMP JUMPDEST PUSH2 0xD47 JUMP JUMPDEST PUSH2 0x640 JUMP JUMPDEST SWAP1 POP SWAP2 SWAP1 POP JUMP JUMPDEST PUSH0 DUP2 SWAP1 POP SWAP2 SWAP1 POP JUMP JUMPDEST PUSH2 0xD83 DUP4 PUSH2 0xD50 JUMP JUMPDEST PUSH2 0xD97 PUSH2 0xD8F DUP3 PUSH2 0xD71 JUMP JUMPDEST DUP5 DUP5 SLOAD PUSH2 0xCF6 JUMP JUMPDEST DUP3 SSTORE POP POP POP POP JUMP JUMPDEST PUSH0 PUSH0 SWAP1 POP SWAP1 JUMP JUMPDEST PUSH2 0xDAE PUSH2 0xD9F JUMP JUMPDEST PUSH2 0xDB9 DUP2 DUP5 DUP5 PUSH2 0xD7A JUMP JUMPDEST POP POP POP JUMP JUMPDEST JUMPDEST DUP2 DUP2 LT ISZERO PUSH2 0xDDC JUMPI PUSH2 0xDD1 PUSH0 DUP3 PUSH2 0xDA6 JUMP JUMPDEST PUSH1 0x1 DUP2 ADD SWAP1 POP PUSH2 0xDBF JUMP JUMPDEST POP POP JUMP JUMPDEST PUSH1 0x1F DUP3 GT ISZERO PUSH2 0xE21 JUMPI PUSH2 0xDF2 DUP2 PUSH2 0xCC9 JUMP JUMPDEST PUSH2 0xDFB DUP5 PUSH2 0xCDB JUMP JUMPDEST DUP2 ADD PUSH1 0x20 DUP6 LT ISZERO PUSH2 0xE0A JUMPI DUP2 SWAP1 POP JUMPDEST PUSH2 0xE1E PUSH2 0xE16 DUP6 PUSH2 0xCDB JUMP JUMPDEST DUP4 ADD DUP3 PUSH2 0xDBE JUMP JUMPDEST POP POP JUMPDEST POP POP POP JUMP JUMPDEST PUSH0 DUP3 DUP3 SHR SWAP1 POP SWAP3 SWAP2 POP POP JUMP JUMPDEST PUSH0 PUSH2 0xE41 PUSH0 NOT DUP5 PUSH1 0x8 MUL PUSH2 0xE26 JUMP JUMPDEST NOT DUP1 DUP4 AND SWAP2 POP POP SWAP3 SWAP2 POP POP JUMP JUMPDEST PUSH0 PUSH2 0xE59 DUP4 DUP4 PUSH2 0xE32 JUMP JUMPDEST SWAP2 POP DUP3 PUSH1 0x2 MUL DUP3 OR SWAP1 POP SWAP3 SWAP2 POP POP JUMP JUMPDEST PUSH2 0xE72 DUP3 PUSH2 0x6C6 JUMP JUMPDEST PUSH8 0xFFFFFFFFFFFFFFFF DUP2 GT ISZERO PUSH2 0xE8B JUMPI PUSH2 0xE8A PUSH2 0x76C JUMP JUMPDEST JUMPDEST PUSH2 0xE95 DUP3 SLOAD PUSH2 0xC99 JUMP JUMPDEST PUSH2 0xEA0 DUP3 DUP3 DUP6 PUSH2 0xDE0 JUMP JUMPDEST PUSH0 PUSH1 0x20 SWAP1 POP PUSH1 0x1F DUP4 GT PUSH1 0x1 DUP2 EQ PUSH2 0xED1 JUMPI PUSH0 DUP5 ISZERO PUSH2 0xEBF JUMPI DUP3 DUP8 ADD MLOAD SWAP1 POP JUMPDEST PUSH2 0xEC9 DUP6 DUP3 PUSH2 0xE4E JUMP JUMPDEST DUP7 SSTORE POP PUSH2 0xF30 JUMP JUMPDEST PUSH1 0x1F NOT DUP5 AND PUSH2 0xEDF DUP7 PUSH2 0xCC9 JUMP JUMPDEST PUSH0 JUMPDEST DUP3 DUP2 LT ISZERO PUSH2 0xF06 JUMPI DUP5 DUP10 ADD MLOAD DUP3 SSTORE PUSH1 0x1 DUP3 ADD SWAP2 POP PUSH1 0x20 DUP6 ADD SWAP5 POP PUSH1 0x20 DUP2 ADD SWAP1 POP PUSH2 0xEE1 JUMP JUMPDEST DUP7 DUP4 LT ISZERO PUSH2 0xF23 JUMPI DUP5 DUP10 ADD MLOAD PUSH2 0xF1F PUSH1 0x1F DUP10 AND DUP3 PUSH2 0xE32 JUMP JUMPDEST DUP4 SSTORE POP JUMPDEST PUSH1 0x1 PUSH1 0x2 DUP9 MUL ADD DUP9 SSTORE POP POP POP JUMPDEST POP POP POP POP POP POP JUMP JUMPDEST PUSH32 0x566F74696E6720686173206E6F742073746172746564207965742E0000000000 PUSH0 DUP3 ADD MSTORE POP JUMP JUMPDEST PUSH0 PUSH2 0xF6C PUSH1 0x1B DUP4 PUSH2 0x6D0 JUMP JUMPDEST SWAP2 POP PUSH2 0xF77 DUP3 PUSH2 0xF38 JUMP JUMPDEST PUSH1 0x20 DUP3 ADD SWAP1 POP SWAP2 SWAP1 POP JUMP JUMPDEST PUSH0 PUSH1 0x20 DUP3 ADD SWAP1 POP DUP2 DUP2 SUB PUSH0 DUP4 ADD MSTORE PUSH2 0xF99 DUP2 PUSH2 0xF60 JUMP JUMPDEST SWAP1 POP SWAP2 SWAP1 POP JUMP JUMPDEST PUSH0 PUSH2 0xFAA DUP3 PUSH2 0x640 JUMP JUMPDEST SWAP2 POP PUSH2 0xFB5 DUP4 PUSH2 0x640 JUMP JUMPDEST SWAP3 POP DUP3 DUP3 SUB SWAP1 POP DUP2 DUP2 GT ISZERO PUSH2 0xFCD JUMPI PUSH2 0xFCC PUSH2 0xBF8 JUMP JUMPDEST JUMPDEST SWAP3 SWAP2 POP POP JUMP INVALID LOG2 PUSH5 0x6970667358 0x22 SLT KECCAK256 0xD5 BLOBBASEFEE 0xF 0xFC LOG2 DUP3 DUP1 SELFDESTRUCT LOG2 0xD3 0xC CHAINID SWAP3 DUP9 PC PUSH16 0x45FB4B1789E79F72AD38DE39E98F055 PUSH5 0x736F6C6343 STOP ADDMOD 0x1E STOP CALLER "
				},
				"gasEstimates": {
					"creation": {
						"codeDepositCost": "821000",
						"executionCost": "infinite",
						"totalCost": "infinite"
					},
					"external": {
						"addCandidate(string)": "infinite",
						"candidates(uint256)": "infinite",
						"getAllVotesOfCandiates()": "infinite",
						"getRemainingTime()": "infinite",
						"getVotingStatus()": "4598",
						"vote(uint256)": "infinite",
						"voters(address)": "2899",
						"votingEnd()": "2469",
						"votingStart()": "2448"
					}
				},
				"methodIdentifiers": {
					"addCandidate(string)": "462e91ec",
					"candidates(uint256)": "3477ee2e",
					"getAllVotesOfCandiates()": "4d6bda5f",
					"getRemainingTime()": "efb98bcf",
					"getVotingStatus()": "581c281c",
					"vote(uint256)": "0121b93f",
					"voters(address)": "a3ec138d",
					"votingEnd()": "85a38635",
					"votingStart()": "101158af"
				}
			},
			"storageLayout": {
				"storage": [
					{
						"astId": 10,
						"contract": "voting.sol:Voting",
						"label": "candidates",
						"offset": 0,
						"slot": "0",
						"type": "t_array(t_struct(Candidate)6_storage)dyn_storage"
					},
					{
						"astId": 12,
						"contract": "voting.sol:Voting",
						"label": "owner",
						"offset": 0,
						"slot": "1",
						"type": "t_address"
					},
					{
						"astId": 16,
						"contract": "voting.sol:Voting",
						"label": "voters",
						"offset": 0,
						"slot": "2",
						"type": "t_mapping(t_address,t_bool)"
					},
					{
						"astId": 18,
						"contract": "voting.sol:Voting",
						"label": "votingStart",
						"offset": 0,
						"slot": "3",
						"type": "t_uint256"
					},
					{
						"astId": 20,
						"contract": "voting.sol:Voting",
						"label": "votingEnd",
						"offset": 0,
						"slot": "4",
						"type": "t_uint256"
					}
				],
				"types": {
					"t_address": {
						"encoding": "inplace",
						"label": "address",
						"numberOfBytes": "20"
					},
					"t_array(t_struct(Candidate)6_storage)dyn_storage": {
						"base": "t_struct(Candidate)6_storage",
						"encoding": "dynamic_array",
						"label": "struct Voting.Candidate[]",
						"numberOfBytes": "32"
					},
					"t_bool": {
						"encoding": "inplace",
						"label": "bool",
						"numberOfBytes": "1"
					},
					"t_mapping(t_address,t_bool)": {
						"encoding": "mapping",
						"key": "t_address",
						"label": "mapping(address => bool)",
						"numberOfBytes": "32",
						"value": "t_bool"
					},
					"t_string_storage": {
						"encoding": "bytes",
						"label": "string",
						"numberOfBytes": "32"
					},
					"t_struct(Candidate)6_storage": {
						"encoding": "inplace",
						"label": "struct Voting.Candidate",
						"members": [
							{
								"astId": 3,
								"contract": "voting.sol:Voting",
								"label": "name",
								"offset": 0,
								"slot": "0",
								"type": "t_string_storage"
							},
							{
								"astId": 5,
								"contract": "voting.sol:Voting",
								"label": "voteCount",
								"offset": 0,
								"slot": "1",
								"type": "t_uint256"
							}
						],
						"numberOfBytes": "64"
					},
					"t_uint256": {
						"encoding": "inplace",
						"label": "uint256",
						"numberOfBytes": "32"
					}
				}
			},
			"userdoc": {
				"kind": "user",
				"methods": {},
				"version": 1
			}
		}
	}
}